:10000000004000202D6500002F2100000F2A000075
:10001000232F00002B3000006330000000000000A0
:100020000000000000000000000000001D1900009A
:10003000C346000000000000C5180000ED120000DB
:10004000CD6A0000D56A0000DD6A0000E56A0000A4
:10005000ED6A0000F56A0000FD6A0000056B000013
:100060000D6B0000156B00001D6B0000256B000080
:100070002D6B0000356B00003D6B0000456B0000F0
:100080004D6B0000016C0000016C0000016C000071
:10009000016C0000016C0000016C0000016C0000AC
:1000A000556B0000016C00005D6B0000016C0000EE
:1000B000016C0000016C0000016C0000656B000029
:1000C0006D6B0000756B00007D6B0000016C000023
:1000D000016C0000016C0000016C0000016C00006C
:1000E000016C0000016C0000016C0000016C00005C
:1000F000016C0000016C0000016C0000016C00004C
:10010000016C0000016C0000016C0000016C00003B
:10011000016C0000016C0000016C0000016C00002B
:10012000016C0000016C0000016C0000016C00001B
:10013000016C0000016C0000016C0000016C00000B
:10014000016C0000016C0000016C0000016C0000FB
:10015000016C0000016C0000016C0000016C0000EB
:10016000016C0000016C0000016C0000856B000058
:100170008D6B0000956B00009D6B0000A56B00006F
:10018000AD6B0000016C0000016C0000016C000010
:10019000016C0000016C0000016C0000016C0000AB
:1001A000016C0000016C0000016C0000016C00009B
:1001B000016C0000016C0000B56B0000BD6B00001D
:1001C000C56B0000CD6B0000D56B0000DD6B00003F
:1001D000016C0000016C0000016C0000016C00006B
:1001E000016C0000016C0000016C0000016C00005B
:1001F000016C0000016C0000016C0000016C00004B
:10020000016C0000016C0000016C0000016C00003A
:1003F000016C0000016C0000016C0000FFFFFFFFBA
:10040000FFFFFFFFFFFFFFFFFFFFFFFFFEFFFFFFFD
:100410002DE9F84F84B006000F0090469946DDF8AC
:1004200038A0DDF83CB0404680B2800000F0C2FC4D
:100430000500002D0BD0742000F0BCFC0400002C43
:1004400001D0256304E0280000F044FD00E0002412
:10045000002C12D0002003900294CDF804B0CDF807
:1004600000A04B46424692B23900300000F00AF834
:10047000200000F088F8012001E05FF0FF3005B0B7
:10048000BDE8F08F2DE9F94F81B00C0016000C9FEC
:100490000D9DDDF83880B00000905FF0A50BD8F816
:1004A00030A05A460099504600F0BEFDD8F8300002
:1004B00000EB8600B0F1040A5FEADA0A5FEACA0AD2
:1004C0001AF00700002807D0202080F31188BFF31E
:1004D0004F8FBFF36F8FFEE7C8F844A0002C15D0F4
:1004E00000208146B9F1100F0CD214F8090008EB76
:1004F000090181F8340014F80900002802D019F12C
:100500000109EFE7002088F8430002E0002088F8A6
:100510003400072F01D306200700C8F82C70C8F854
:1005200050700020C8F8540018F1040000F0BEFD1F
:1005300018F1180000F0BAFDC8F81080D7F10700D4
:10054000A8F81800C8F824805FF0000BBBF1050F75
:1005500006D2002008EB8B0188651BF1010BF5E743
:100560000020C8F86C00002088F87000029A0199F9
:10057000504600F0FBFDC8F80000002D01D0C5F882
:100580000080BDE8F78F38B5040000F07FFEDFF88B
:1005900064150868401C0860DFF868552868002862
:1005A00006D12C60086801280DD100F0C7FA0AE0D6
:1005B000DFF854050068002805D1E06A2968C96A97
:1005C000884200D32C60DFF844050168491C0160B3
:1005D0000068A064DFF838150A680123E06A8340E8
:1005E0001A430A60211DDFF85025E36A14204343B3
:1005F00002EB030000F05DFD00F062FEDFF808058D
:10060000006800280DD02868C06AE16A884208D2D4
:100610005FF08050DFF8B8150860BFF34F8FBFF36D
:100620006F8F31BD38B505000024280080B2002846
:1006300016D0DFF898050068002807D0202080F346
:100640001188BFF34F8FBFF36F8FFEE700F04DF8B7
:100650000021280080B200F059FB00F04CF80400A3
:10066000002C08D15FF08050DFF864150860BFF3FC
:100670004F8FBFF36F8F31BD1CB5DFF8700601904F
:100680000020009000235A22DFF864160FF2854004
:10069000FFF7BEFE0400012C02D100F095FE04001D
:1006A000012C16D1202080F31188BFF34F8FBFF3A8
:1006B0006F8F4FF6FF70DFF83C1608800120DFF8DF
:1006C000481408600020DFF80C15088000F077FD62
:1006D0000AE014F1010F07D1202080F31188BFF345
:1006E0004F8FBFF36F8FFEE713BDDFF8E0040168A3
:1006F000491C01607047F8B500250026DFF8CC449E
:100700002068002807D1202080F31188BFF34F8F85
:10071000BFF36F8FFEE700F0B9FD2068401E206038
:100720002068002857D1DFF8CC030068002852D099
:10073000DFF8C4150868002827D0C868C06805001D
:1007400015F1180000F0E1FC281D00F0DEFCDFF8D8
:10075000C0130A680123E86A83401A430A60291D0E
:10076000DFF8D423EB6A1420434302EB030000F0CC
:10077000A0FCE86ADFF88C130968C96A8842D7D3FD
:100780000120DFF87C150860D2E7002D01D000F0D1
:100790002CFADFF868753C68002C0CD000F02AF8C1
:1007A000002803D00120DFF858150860641E002CD3
:1007B000F4D100203860DFF84805006800280AD02E
:1007C000012006005FF08050DFF804140860BFF3DA
:1007D0004F8FBFF36F8F00F073FD3000F2BD10B587
:1007E00000F054FDDFF8EC03048800F069FD200000
:1007F00080B210BD2DE9F0410026DFF8D00300687B
:1008000000286CD1DFF8CC0307887F1C07803800F4
:1008100080B200281CD1DFF818140868006800288E
:1008200007D0202080F31188BFF34F8FBFF36F8F65
:10083000FEE7D1F80080DFF8FC0302680A60C0F828
:100840000080DFF8C0040168491C016000F0CDF9A8
:10085000DFF8A0843800B8F8001080B2884243D393
:10086000DFF8CC1308680068002804D14FF6FF7049
:10087000A8F8000038E00868C068C0680400A088D4
:1008800005003800290080B289B2884202D2A8F857
:10089000005029E0201D00F038FCA06A002803D099
:1008A00014F1180000F031FCDFF864120A6801232B
:1008B000E06A83401A430A60211DDFF87C22E36A64
:1008C0001420434302EB030000F0F3FBE06A8D4980
:1008D0000968C96A8842C3D301200600C0E7DFF86F
:1008E0001C040168491C0160DFF81404006800283A
:1008F00001D0012006003000BDE8F081DFF8CC0215
:100900000068002804D00120DFF8F41308602BE011
:100910000020DFF8EC1308607D480068B0FA80F131
:10092000D1F11F011422844B02FB01F0185800285A
:1009300007D1202080F31188BFF34F8FBFF36F8F53
:10094000FEE702FB01F203EB0200426852684260DC
:10095000426810F108039A4202D14268526842602C
:100960004068C068674A1060704738B504000D00E1
:10097000002C07D1202080F31188BFF34F8FBFF3E5
:100980006F8FFEE75F48006810F11801200000F04B
:100990009CFB0121280080B200F0B8F931BD70B590
:1009A00005000E001400002D07D1202080F31188CF
:1009B000BFF34F8FBFF36F8FFEE7DFF8C003006810
:1009C00010F11801280000F074FB002C02D04FF643
:1009D000FF7006002100300080B200F097F970BD72
:1009E00038B50500E868C468002C07D1202080F3E2
:1009F0001188BFF34F8FBFF36F8FFEE714F118001C
:100A000000F083FB71480068002813D1201D00F01E
:100A10007CFB3F490A680123E06A83401A430A606D
:100A2000211D454AE36A1420434302EB030000F012
:100A300040FB05E014F11801DFF8BC0200F039FBBF
:100A400030480068C06AE16A884205D2012001216D
:100A5000DFF8B422116000E0002032BDDFF8A412FC
:100A600009680160DFF818130988818070472DE953
:100A7000F04104000D00002C07D1202080F31188E4
:100A8000BFF34F8FBFF36F8FFEE7002D07D12020FC
:100A900080F31188BFF34F8FBFF36F8FFEE700F035
:100AA000F5FB4C480788A688BE1BDFF85802006893
:100AB0002168884207D03800A18880B2884202D3DA
:100AC0005FF0010811E03000298880B2884208D226
:100AD0002888801B28802000FFF7C0FF5FF00008F7
:100AE00003E0002028805FF0010800F0E9FB4046A9
:100AF000BDE8F081202A00200120DFF80C120860F8
:100B00007047000034290020282A0020382A0020BD
:100B1000242A002010B5040000F038F806480068C8
:100B20000228F9D35FF0805029490860BFF34F8F46
:100B3000BFF36F8FF0E700003829002070B5002464
:100B4000072C09D2DFF83C02142101FB04F1084410
:100B500000F09DFA641CF3E7DFF82C52280000F047
:100B600096FADFF82862300000F091FADFF8880189
:100B700000F08DFA044800F08AFA2D480560DFF88D
:100B80001002066070BD0000082A002038B5DFF8AA
:100B900004522868002817D000F078FBDFF8F8012D
:100BA000C068C0680400201D00F0AFFADFF8EC0157
:100BB0000168491E01602868401E286000F080FB23
:100BC000200000F009F8E2E731BD0000402A0020D3
:100BD00004ED00E0802A002010B50400206B00F036
:100BE00079F9200000F076F910BD114A106800680C
:100BF000002804D14FF6FF703E4A108006E01068CE
:100C0000C068C068010088883A4A10807047DFF8E1
:100C100090010068002801D1012007E0DFF884017D
:100C20000068002801D1022000E000207047000089
:100C3000EC290020F029002070B5040025000026D2
:100C4000002C50D0DFF834010068854207D0202006
:100C500080F31188BFF34F8FBFF36F8FFEE7686D8E
:100C6000002807D1202080F31188BFF34F8FBFF3F6
:100C70006F8FFEE7686D401E6865E86A296D8842DF
:100C800031D0686D00282ED1281D00F03EFA0028D2
:100C90000FD1DFF8F010EA6A142042438858002888
:100CA00007D1DFF804110A680123E86A83409A43F8
:100CB0000A60286DE862E86AD0F107002883DFF84F
:100CC000E8100A680123E86A83401A430A60291D74
:100CD000DFF8B020EB6A1420434302EB030000F07E
:100CE000E8F901200600300070BD00003C2A002019
:100CF0008C6A0000822A0020F42900202C2A00207F
:100D0000302A0020342A0020302A00202DE9F0412A
:100D100004000D001A480688184F3868001D00F0BE
:100D2000F4F9002807D138681F490A680123C06A0E
:100D300083409A430A6014EB06083868A0F80480E0
:100D40004046310080B289B2884206D23868011D1F
:100D50000F48006800F0B9F90DE03868011D13482C
:100D6000006800F0B2F912484146028889B2914207
:100D700001D2A0F80080BDE8F081000034290020F5
:100D8000802A002038290020C4290020D8290020EA
:100D9000F02900201C2A0020082A0020202A0020F8
:100DA000282A0020402A0020242A0020EC290020A4
:100DB000822A00202DE9F84F04005FF00008FFF7B9
:100DC00094FCDFF84892D9F80000002801D100F027
:100DD000BBF8DFF83CA2DAF80000044269D1002C2D
:100DE00015D08C480068041914F0070F0FD014F1C7
:100DF000080014F00704041B14F0070F07D020208C
:100E000080F31188BFF34F8FBFF36F8FFEE7002C85
:100E10004FD0DFF804B2DBF80000A04249D37F488E
:100E20000600006805006868A04205D2286800280E
:100E300002D02E002D68F6E7D9F80000854238D0A0
:100E40007448316802681144884629683160006836
:100E500040006968091B884215D205EB04000700B1
:100E600017F00700002807D0202080F31188BFF377
:100E70004F8FBFF36F8FFEE76868001B78606C6070
:100E8000380000F092F8DBF800106868091ACBF817
:100E900000106348DBF800100268914202D2DBF8D0
:100EA000001001606968DAF8000001436960002001
:100EB0002860FFF720FC18F00700002807D020204A
:100EC00080F31188BFF34F8FBFF36F8FFEE740466B
:100ED000BDE8F28F70B504002600002C33D04D48D9
:100EE0000068404206443500494968680A68104273
:100EF00007D1202080F31188BFF34F8FBFF36F8F8E
:100F0000FEE72868002807D0202080F31188BFF36F
:100F10004F8FBFF36F8FFEE768680A68104212D0E8
:100F2000286800280FD16A68086882436A60FFF762
:100F3000DCFB39490A68686882180A60280000F0FA
:100F400034F8FFF7D8FB70BD70B44FF42052354829
:100F5000010011F0070F04D0C91DC908C900521AB9
:100F600082180B002D48036000244460D4182948DF
:100F70000068241AE408E400244D2C6000202E6848
:100F8000706000202E6830601800261A46602D68B8
:100F900005604568224E356045681F4E35605FF03C
:100FA00000451B4E356070BC704730B41B4A116859
:100FB000814201D21268FAE714005168214481424B
:100FC00004D153684168CB18536010000300416896
:100FD00019441568A94210D10C4914680D68AC4237
:100FE00008D04468116849680C19446011680968A0
:100FF000016004E00968016001E01168016082425B
:1010000000D0106030BC704700000000B428002001
:10101000C0280020F86B0000B8280020AC28002071
:10102000BC280020AC00002062F30F2262F31F42B4
:10103000401810F0030308D0C91A1FD3DB0748BFBC
:1010400000F8012D28BF20F8022D130030B41446FB
:101050001546103928BF20E93C00FAD8490728BFB7
:1010600020E90C0048BF40F8042D890028BF20F873
:10107000022D48BF00F8012D30BC7047C91818BFB9
:1010800000F8012DCB0728BF00F8012D704710F1A3
:10109000080141604FF6FF71018110F10801C16044
:1010A00010F1080101610021016070470021016118
:1010B000704742684A6093688B609368596091609A
:1010C000086103685B1C0360704730B40B881A002A
:1010D0004FF6FF7492B2A24201D1026909E010F109
:1010E00008021C0055682D88A4B2AC4201D3526896
:1010F000F7E754684C604C68A1608A6051600861F1
:101100000468641C046030BC7047010008698A6888
:101110004B689A604A688B685A6042688A4201D17B
:101120008A68426000220A610268521E02600068FA
:10113000704730B4002513E050F8042BD30744BFA8
:10114000A9F101039A18091F042942F8045BFAD295
:1011500013468C0744BF15809B1CC90748BF1D70F0
:1011600050F8041B0029E7D130BC7047001F5FF026
:1011700080730360001F4B085B000360001F0FF2C9
:101180001503036014380260001F7FF00203036040
:10119000203870477348006810F1010F07D02020F5
:1011A00080F31188BFF34F8FBFF36F8FFEE72020CE
:1011B00080F31188BFF34F8FBFF36F8FFEE7E0B569
:1011C00069480168694A914207D1202080F311885B
:1011D000BFF34F8FBFF36F8FFEE70068644988420B
:1011E00007D1202080F31188BFF34F8FBFF36F8F9B
:1011F000FEE7604801780191FF21017001788DF8C8
:1012000000109DF8001011F020015B4A11705B493D
:1012100007220A609DF80020120608D50A68521EAF
:101220000A609DF8002052008DF80020F2E70A685D
:10123000D2F10702042A07D0202181F31188BFF3DD
:101240004F8FBFF36F8FFEE70A6812020A600A68C9
:1012500012F4E0620A60019901704948016851F492
:1012600070010160016851F07041016000F092F876
:1012700000203C49086000F06FFB4248016851F0D3
:101280004041016000F058FB00200EBD202080F39B
:101290001188BFF34F8FBFF36F8F32490A68521C1A
:1012A0000A60096801290AD137490968090606D088
:1012B00080F31188BFF34F8FBFF36F8FFEE7704746
:1012C00028490868002807D1202080F31188BFF33F
:1012D0004F8FBFF36F8FFEE70868401E08600868F5
:1012E000002802D1002080F31188704780B52020AB
:1012F00080F31188BFF34F8FBFF36F8FFFF77AFA38
:10130000002803D05FF080501F490860002080F360
:10131000118801BDEFF30580102811D31B4A126814
:10132000125C11000A00144B1B78D2B29A4207D209
:10133000202282F31188BFF34F8FBFF36F8FFEE738
:101340000E4A1268124B1B6813F4E0639A4207D2EC
:10135000202282F31188BFF34F8FBFF36F8FFEE718
:10136000704700000800002000ED00E071C20F414E
:1013700070C20F4100E400E0862A0020F02800201F
:1013800020ED00E034EF00E004ED00E0FC6B000035
:101390000CED00E00848002101600021074A1160BF
:1013A000074909684FF47A72B1FBF2F1491E054A08
:1013B000116007210160704710E000E018E000E0D4
:1013C0000C00002014E000E01CB5002400F043FAFB
:1013D000DFF8C804006800280DD0DFF8C4040190CD
:1013E000062000900023B422DFF8B8140FF2191081
:1013F000FFF70EF80400002C07D1202080F311889D
:10140000BFF34F8FBFF36F8FFEE7200016BD2DE9AE
:10141000FF4704000E00170098460C9D5FF000097E
:10142000002C07D1202080F31188BFF34F8FBFF32A
:101430006F8FFEE7DFF864A4DAF80000002824D0FC
:101440000096ADF804700294062E16DAFFF7DFFB63
:10145000022809D100232A0092B26946DAF8000076
:1014600000F018FB814610E0002300226946DAF8FC
:10147000000000F00FFB814607E00023424669466A
:10148000DAF8000000F0DCFB8146484604B0BDE815
:10149000F087F8B505000E00DFF80C040068C0689E
:1014A000C768381DFFF731FE97F82800400720D5A0
:1014B0002B009BB2320092B2398B491989B23800A5
:1014C00000F09DF800281AD00020009000232A0088
:1014D00092B200213800FFF79AFF0400002C07D1D8
:1014E000202080F31188BFF34F8FBFF36F8FFEE78B
:1014F00005E097F8280010F0FE0087F82800380073
:10150000396A8847F1BD000038B50400684600F02C
:101510004AF805000099280080B200F003F800F0B6
:10152000A5F8F3E77CB506000C00FFF7DEF8684687
:1015300000F04EF805000098002831D1002C0ED1A3
:101540002800310080B289B2884208D3FFF7D3F86F
:10155000290089B2300080B2FFF79BFF22E0002C07
:1015600008D0DFF8480300680068002801D1012492
:1015700000E000242200711B89B2DFF8200300681C
:1015800000F05AFDFFF7B7F800280BD15FF080504C
:10159000DFF81C130860BFF34F8FBFF36F8F01E0BC
:1015A000FFF7A9F873BD0100DFF8FC22106800689E
:1015B000002801D1012000E0002008600868002810
:1015C00003D11068C068008800E0002080B2704736
:1015D00070B50400FFF703F90500DFF8D8622800B2
:1015E000318880B2884204D200F0E9F801202060FE
:1015F00001E0002020603580280080B270BD2DE918
:10160000F04104000D0016001F005FF00008A580E7
:1016100024613000290080B289B288420ED3F01BC9
:10162000218B80B2884202D3012080461BE0211D1D
:10163000DFF878020068FFF748FD14E03000390059
:1016400080B289B2884208D22800390080B289B2BB
:10165000884202D30120804605E0211DDFF84802C0
:101660000068FFF732FD4046BDE8F081F8B586B06E
:10167000002201A98948006800F052FB002800F010
:101680009C80019800280ED502AD002D07D12020A6
:1016900080F31188BFF34F8FBFF36F8FFEE7A96808
:1016A00068682A68904701980028E1D403980600EA
:1016B0007069002802D0301DFFF727FD05A8FFF74D
:1016C00087FF0700019800280ED002280CD00BD30A
:1016D000042843D03BD3062806D05ED3082836D052
:1016E00002D309283AD067E096F8280050F00100AC
:1016F00086F82800BDF808303A0092B2BDF808100C
:10170000308B411889B23000FFF779FF00281DD0D7
:101710003000316A884796F82800400716D5002027
:1017200000900023BDF80820308B821892B200216F
:101730003000FFF76CFE0400002C07D1202080F35E
:101740001188BFF34F8FBFF36F8FFEE790E796F8D6
:10175000280010F0FE0086F8280089E796F8280097
:1017600050F0010086F82800BDF808003083308B67
:10177000002807D1202080F31188BFF34F8FBFF3DB
:101780006F8FFEE73B009BB23A0092B2318BC919D2
:1017900089B23000FFF733FF6AE796F82800800728
:1017A00003D43000FFF796FB05E096F8280010F010
:1017B000FE0086F828005BE75AE707B0F0BD2DE988
:1017C000FC41DFF8E480D8F800000068002839D038
:1017D000D8F80000C06800880500D8F80000C0688C
:1017E000C0680700381DFFF790FC3800396A884749
:1017F00097F828004007E4D5388B401906002800E8
:10180000310080B289B2884207D2BE803F61391D63
:10181000D8F80000FFF759FCD3E700200090002320
:101820002A0092B200213800FFF7F1FD0400002CDD
:1018300007D1202080F31188BFF34F8FBFF36F8F44
:10184000FEE7BEE7D8F8000018490A68C8F800208B
:101850000860BDE8F38170B5FFF718FD0F4C2068F4
:10186000002818D1144D2800FFF711FC134E30004A
:10187000FFF70DFC0C4805600C48066000221021A3
:101880000A2000F0C1F820602068002803D00C492D
:10189000206800F0BCFBFFF713FD70BD742A002028
:1018A000782A0020946A00006C2A0020702A002008
:1018B00004ED00E0842A0020442A0020582A002059
:1018C0009C6A0000EFF30980BFF36F8F264B1A6804
:1018D0001EF0100F08BF20ED108A20E9F04F1060B5
:1018E00009B44FF0200080F31188BFF34F8FBFF38E
:1018F0006F8FFFF703F84FF0000080F3118809BCE9
:1019000019680868B0E8F04F1EF0100F08BFB0EC7F
:10191000108A80F30988BFF36F8F7047124B1968E4
:101920000868B0E8F04F80F30988BFF36F8F4FF07D
:10193000000080F3118870470C480068006880F34D
:1019400008884FF0000080F3148862B661B6BFF3D8
:101950004F8FBFF36F8F00DFDFF81400016841F491
:1019600070010160704700003429002008ED00E09C
:1019700088ED00E070B506000C003500002D07D1A1
:10198000202080F31188BFF34F8FBFF36F8FFEE7E6
:10199000FFF77CFC2968EA6B286C424301EB0200EC
:1019A000A8600020A863286868602968EA6B521E56
:1019B000286C424301EB0200E8605FF0FF3085F8DD
:1019C000440085F84500002C12D12869002817D062
:1019D00015F11000FFF704F8002811D05FF08050D7
:1019E000DFF8AC140860BFF34F8FBFF36F8F07E0D1
:1019F00015F11000FFF74BFB15F12400FFF747FB33
:101A0000FFF75EFC012070BD2DE9F84304000D00D6
:101A10001700002C07D1202080F31188BFF34F8FCF
:101A2000BFF36F8FFEE7002D02D15FF0000901E0E8
:101A300005FB04F919F15000FFF7BCF90600002E70
:101A40000AD030005030804600963B00DBB2424660
:101A50002900200000F003F83000BDE8F2832DE9F2
:101A6000F04105000C0016001F00DDF81880002C66
:101A700002D1C8F8008001E0C8F80060C8F83C5006
:101A8000C8F8404001214046FFF774FF88F84C70C9
:101A9000BDE8F0812DE9F74380460D00994600240A
:101AA0004646002E07D1202080F31188BFF34F8FC8
:101AB000BFF36F8FFEE7002D02D1306C002801D1FB
:101AC000012000E00020C0B2002807D1202080F3D0
:101AD0001188BFF34F8FBFF36F8FFEE7B9F1020F8D
:101AE00002D1F06B012801D1012000E00020C0B23A
:101AF000002807D1202080F31188BFF34F8FBFF358
:101B00006F8FFEE7FFF783F8002803D1BDF80800C8
:101B1000002801D1012000E00020C0B2002807D138
:101B2000202080F31188BFF34F8FBFF36F8FFEE744
:101B3000FFF7ACFBB06BF16B884202D3B9F1020F37
:101B400027D14A462900300000F0A4F90700706A46
:101B500000280FD016F12400FEF742FF002814D011
:101B60005FF08050DFF828130860BFF34F8FBFF39A
:101B70006F8F0AE0002F08D05FF08050DFF810135D
:101B80000860BFF34F8FBFF36F8FFFF799FB012002
:101B900054E0BDF80800002803D1FFF791FB0020B6
:101BA0004CE0002C04D16846FEF758FF01200400E9
:101BB000FFF786FBFEF799FDFFF768FB96F94400F7
:101BC00010F1010F02D1002086F8440096F945007B
:101BD00010F1010F02D1002086F84500FFF770FBDD
:101BE00002A96846FEF743FF002821D1300000F02B
:101BF000FFF9002816D0BDF8081016F11000FEF706
:101C0000B4FE300000F0AFF9FEF775FD00288FD16B
:101C10005FF08050DFF878120860BFF34F8FBFF39A
:101C20006F8F85E7300000F09EF9FEF764FD7FE7D7
:101C3000300000F098F9FEF75EFD0020BDE8FE835D
:101C40002DE9F04707000C00150098463E00002ED5
:101C500007D1202080F31188BFF34F8FBFF36F8F20
:101C6000FEE7002C02D1306C002801D1012000E0F9
:101C70000020C0B2002807D1202080F31188BFF3D4
:101C80004F8FBFF36F8FFEE7B8F1020F02D1F06BF9
:101C9000012801D1012000E00020C0B2002807D1B6
:101CA000202080F31188BFF34F8FBFF36F8FFEE7C3
:101CB000FFF730FBEFF31189202080F31188BFF389
:101CC0004F8FBFF36F8FB06BF16B884202D3B8F1C7
:101CD000020F20D196F945A042462100300000F0C5
:101CE000D9F850465FF0FF3140B288420DD1706A9A
:101CF00000280ED016F12400FEF772FE002808D04E
:101D0000002D06D00120286003E01AF1010086F8BA
:101D10004500012000E0002089F31188BDE8F0872C
:101D20002DE9F64182B080460E0000244746002F80
:101D300007D1202080F31188BFF34F8FBFF36F8F3F
:101D4000FEE7002E02D1386C002801D1012000E00E
:101D50000020C0B2002807D1202080F31188BFF3F3
:101D60004F8FBFF36F8FFEE7FEF751FF002803D1BF
:101D7000BDF80C00002801D1012000E00020C0B215
:101D8000002807D1202080F31188BFF34F8FBFF3C5
:101D90006F8FFEE7FFF77AFABD6B002D1BD0310085
:101DA000380000F0C5F8681EB863386900280ED006
:101DB00017F11000FEF714FE002808D05FF08050E5
:101DC000DFF8CC100860BFF34F8FBFF36F8FFFF7C2
:101DD00077FA012059E0BDF80C00002803D1FFF785
:101DE0006FFA002051E0002C04D16846FEF736FE61
:101DF00001200400FFF764FAFEF777FCFFF746FACC
:101E000097F9440010F1010F02D1002087F8440037
:101E100097F9450010F1010F02D1002087F8450025
:101E2000FFF74EFA03A96846FEF721FE002821D1EC
:101E3000380000F0CFF8002816D0BDF80C1017F1CC
:101E40002400FEF792FD380000F08DF8FEF753FCF9
:101E500000289FD15FF08050DFF834100860BFF396
:101E60004F8FBFF36F8F95E7380000F07CF8FEF7D7
:101E700042FC8FE7380000F076F8FEF73CFC3800B3
:101E800000F0A8F8002885D0002004B0BDE8F0815B
:101E900004ED00E02DE9F84F06000F0014005FF09C
:101EA0000008B56B306C002809D1306800283AD1A1
:101EB000B068FEF7C1FE80460020B06033E0002C21
:101EC00014D1D6F84090BA46D6F804B04A465146E6
:101ED000584600F0D9F87068316C0844706070683A
:101EE000B16888421FD3306870601CE0D6F840901B
:101EF000BA46D6F80CB04A465146584600F0C4F8E7
:101F0000F068316C49420844F060F06831688842FA
:101F100004D2B068316C49420844F060022C02D10E
:101F2000002D00D06D1E681CB0634046BDE8F28FE6
:101F30002DE9F04104000D00206C002811D0E0686C
:101F4000216C0844E060E068A168884201D3206801
:101F5000E060266CE768A84632003900404600F091
:101F600093F8BDE8F081F8B50400FFF78FF994F914
:101F70004550280040B201280CDB606A002809D0D7
:101F800014F12400FEF72CFD002801D0FEF7B4FD6B
:101F90006D1EEEE75FF0FF3684F84560FFF790F9BD
:101FA000FFF774F994F94470380040B201280CDB53
:101FB0002069002809D014F11000FEF711FD002857
:101FC00001D0FEF799FD7F1EEEE784F84460FFF72D
:101FD00077F9F1BD38B50400FFF758F9A06B002878
:101FE00001D1012500E00025FFF76AF9280032BD84
:101FF00038B50400FFF74AF9A06BE16B884201D1C4
:10200000012500E00025FFF75BF9280032BD10B480
:102010000023082B0CD2074C54F83320002A05D19A
:1020200044F8331004EBC302506001E05B1CF0E79E
:1020300010BC7047F4280020F8B504000D0016000D
:102040002700FFF723F997F9440010F1010F02D19F
:10205000002087F8440097F9450010F1010F02D1E4
:10206000002087F84500FFF72BF9B86B002806D150
:102070003200290089B217F12400FEF790FC3800E5
:10208000FFF771FFF1BD000062B38B0708D0521E4D
:1020900011F8013B00F8013B00F024808B07F6D1DA
:1020A000830740F0208000BF103A07D330B4B1E876
:1020B0003810103AA0E83810F9D230BC530724BFCA
:1020C000B1E80810A0E8081044BF51F8043B40F8FC
:1020D000043BD20724BF31F8022B20F8022B44BF67
:1020E0000B7803707047121F17D35B0009D151F8AA
:1020F000043B20F8023B1B0C121F20F8023BF6D2D7
:102100000BE051F8043B00F8013B1B0A20F8023BAE
:102110001B0C121F00F8013BF3D238BF121D521ED8
:1021200024BF11F8013B00F8013BF8D87047FEE7E7
:10213000DFF88C1611EB10410A68012383401A4323
:102140000A60704738B505000024002C07D1DFF87D
:10215000740650F82400A84201D0641CF5E7002C56
:1021600008D03722DFF86016DFF8600600F03CFB8D
:10217000AFF30080200032BDF8B505000E0014005A
:10218000002C08D14922DFF84016DFF8440600F0A1
:102190002BFBAFF300806079022805D13000C0B27C
:1021A000002801D10120B4E0607A012805D1300077
:1021B000C0B2002801D10120ABE02800FFF7C2FF28
:1021C000DFF81016000108443100C9B250F82100B0
:1021D000FFF7AEFFB5F88E0150F00F00A5F88E01A5
:1021E00060213000C0B248432844828812F4E6528D
:1021F000607910F00300E37ADB0013F03803184332
:1022000023791B0213F440731843237850EAC33038
:10221000637850EA8330637A9B0013F00403184319
:102220000243E079002803D002280ED003D316E041
:1022300052F4005213E0B5F88831012716F10C0072
:102240008740BB43A5F8883109E0B5F888310127FC
:1022500016F10C0087403B43A5F88831FFE73000BA
:10226000C0B24843284482803000C0B2484328446A
:10227000C38840F68B700340A079000110F0700015
:10228000A77A50EA07300343207A002805D00228B5
:102290000CD005D303280FD013E053F0040310E053
:1022A00053F400634FF6FF3003400AE04FF2FF7033
:1022B000034053F4806304E053F4006353F48063F9
:1022C000FFE73000C0B248432844C380B5F890010E
:1022D000000605D0B5F8900110F47F40A5F89001F4
:1022E000A278120212F4E062E0780243A5F890218D
:1022F000E07A00280CD13000C0B2484328443200B4
:10230000D2B201FB02F12944898851F04001818059
:102310000020F2BDF8B50400002C08D1D522DFF86A
:10232000A814DFF8AC0400F05FFAAFF300800C25CE
:1023300000262700320029003800FEF775FE002035
:10234000207000206070002060720020A0700020CB
:10235000E070002060710020A0710020207100203A
:10236000E0720020A072002020720020E071F1BD18
:102370002DE9FE4F05000E001400002C09D140F29B
:102380001112DFF84414DFF8500400F02DFAAFF317
:1023900000800D98002809D14FF48972DFF82814C5
:1023A000DFF8380400F020FAAFF300809DF8080051
:1023B000002809D140F21312DFF80C14DFF82004D2
:1023C00000F012FAAFF300800E98002809D14FF404
:1023D0008A72DFF8F413DFF80C0400F005FAAFF3AB
:1023E00000805FF0000A00210022002300279DF8F2
:1023F0000800032801DB0120E0E15FF060085FF0E6
:1024000001090E98B4465FFA8CFC08FB0CFCAC4446
:10241000BCF806C0CCF3021C19FA0CFCB0FBFCF0B3
:1024200000900098DDF834C0B0FBFCFC5FF0000EBB
:1024300070469DF808A0C0B2504580F0BE81E246CB
:102440001FFA8AFA607800FB0AFA64209AFBF0F01F
:1024500001009DF83000002807D0022800F0C88055
:102460005FD3032800F0128151E1604680B240083A
:1024700002003000C0B208FB00F0284492460FFA78
:102480008AFADAF1000AA0F802A03000C0B208FB14
:1024900000F028445FF0000AA0F80AA03000C0B2A3
:1024A00008FB00F02844C281207801281CD13000AC
:1024B000C0B208FB00F028448A461FFA8AFA7FF06F
:1024C000010B9AFBFBFAA0F812A03000C0B208FB87
:1024D00000F028448A461FFA8AFA5FF0020B9AFB42
:1024E000FBFAA0F816A01BE03000C0B208FB00F019
:1024F00028448A461FFA8AFA7FF0010B9AFBFBFAFE
:10250000A0F81AA03000C0B208FB00F028448A46A8
:102510001FFA8AFA5FF0020B9AFBFBFAA0F81EA0E2
:10252000F5E03000C0B208FB00F028445FF0000A7C
:10253000A0F802A03000C0B208FB00F02844E24638
:102540001FFA8AFA5FF0020B9AFBFBFAA0F80AA0C6
:102550003000C0B208FB00F02844A0F80EC020787C
:10256000012822D13000C0B208FB00F005EB000AC0
:10257000E3461FFA8BFB080080B2BBEB000B022086
:102580009BFBF0F0AAF812003000C0B208FB00F08C
:1025900028448A461FFA8AFA1AFA8CFA5FF0020B6C
:1025A0009AFBFBFAA0F816A021E03000C0B208FBAD
:1025B00000F005EB000AE3461FFA8BFB080080B22F
:1025C000BBEB000B02209BFBF0F0AAF81A003000D6
:1025D000C0B208FB00F028448A461FFA8AFA1AFAA9
:1025E0008CFA5FF0020B9AFBFBFAA0F81EA08EE0BB
:1025F000604680B2400802003000C0B208FB00F024
:10260000284492460FFA8AFADAF1000AA0F802A0EA
:102610003000C0B208FB00F028445FF0000AA0F8C8
:102620000AA03000C0B208FB00F02844C281207824
:10263000012815D13000C0B208FB00F028449246B2
:102640000FFA8AFADAF1000AA0F812A03000C0B23C
:1026500008FB00F02844B1EB020AA0F816A014E031
:102660003000C0B208FB00F0284492460FFA8AFA04
:10267000DAF1000AA0F81AA03000C0B208FB00F09E
:102680002844B1EB020AA0F81EA040E03000C0B21E
:1026900008FB00F028445FF0000AA0F802A0300018
:1026A000C0B208FB00F02844E2461FFA8AFA5FF045
:1026B000020B9AFBFBFAA0F80AA03000C0B208FB9C
:1026C00000F02844A0F80EC0207801280FD1300077
:1026D000C0B208FB00F028445FF0000AA0F812A086
:1026E0003000C0B208FB00F02844C1820EE0300088
:1026F000C0B208FB00F028445FF0000AA0F81AA05E
:102700003000C0B208FB00F02844C183FFE7207806
:1027100001280DD10A200300082007003000C0B2B4
:1027200008FB00F02844B4F804A0A0F830A00CE0A6
:1027300009200300042007003000C0B208FB00F0AD
:102740002844B4F804A0A0F832A0A078002813D13F
:102750003000C0B208FB00F005EB000A3000C0B248
:1027600008FB00F02844B0F822B019FA03F03BEA65
:10277000000BAAF822B012E03000C0B208FB00F053
:1027800005EB000A3000C0B208FB00F02844B0F8A6
:1027900022B019FA03F050EA0B0BAAF822B0B5F8F0
:1027A000800116EB070A19FA0AFA5AEA0000A5F89E
:1027B0008001A41D1EF1010E3AE60020BDE8FE8F47
:1027C00000700440EC6B000068610000F4620000DF
:1027D000346A0000586800009C690000A869000085
:1027E000B4690000C069000070B504000D00160057
:1027F00033002A002100024800F0C0F800BEFDE7C7
:10280000D463000070B505000C0043F22156002D82
:1028100007D140F2D1126A496A48FFF7E5FFAFF3EA
:102820000080002C07D14FF4E97265496648FFF734
:10283000DBFFAFF3008022002900644800F0CCF9F0
:10284000002801D05FF0FF34200070BD2DE9F04179
:1028500004000D0016001F0000205FF00008B845BE
:1028600011DA2868401C802805D329682000FFF76A
:10287000C9FF00202860286826542868401C28606A
:1028800018F10108EBE7BDE8F0812DE9F14F88B0C0
:102890000E001700984643F2215568464C49102215
:1028A000FFF702FCCDF8008001969DF820008DF81E
:1028B0000A008DF818703800C0B2012818D1684697
:1028C00007905FF01C0A5FF0000BDFF808914C46A0
:1028D0005A4651462000FEF7A7FBC9F8109004A9FC
:1028E000D9F8100000F0E9F80400002C14D11BE026
:1028F0003800C0B2022801D128003CE03800C0B244
:10290000032801D1280036E03800C0B2042801D1E4
:10291000280030E028002EE04FF4337228492E487A
:10292000FFF762FFAFF3008019F11401D9F810002E
:1029300000F0F8F80500002D07D040F2D62220491B
:102940002548FFF751FFAFF3008019F11801D9F8BE
:10295000100000F012F90400002C07D040F2E12230
:1029600017491D48FFF740FFAFF30080D9F810006A
:102970001A490860002009B0BDE8F08F0EB42DE9B7
:10298000F841A0B00400002500266846802100F030
:102990003DF912480068002801D100200BE027AF64
:1029A0000F4B6A463900200000F093F980464146FB
:1029B0006846FFF727FF21B0BDE8F0015DF810FB86
:1029C000B45900002C6A0000786900003000002033
:1029D000486800001C00002004650000380000204A
:1029E0004D28000070B505000C001600002C01D128
:1029F00000200BE0012D04D0022D02D05FF0FF304B
:102A000004E031002000FFF7FDFE300070BDFEE75E
:102A10002DE9F04105000C0016001F0043F2215083
:102A20008046002C0BD0297B012907D13A003100C8
:102A300015F1080000F0ADFA804600E080464046FF
:102A400000B2BDE8F0812DE9F04107000E0015004D
:102A5000002F09D140F20632DFF89011DFF8900123
:102A6000FFF7C2FEAFF30080002E07D140F207321D
:102A70005E496048FFF7B8FEAFF30080002D07D134
:102A80004FF4427259495C48FFF7AEFEAFF3008045
:102A9000B846D8F80040002C07D140F20D32534917
:102AA0005648FFF7A1FEAFF300802B0032004146ED
:102AB0002000FFF7ADFFBDE8F0812DE9F0470400ED
:102AC0000D0043F22156002D07D140F2293247492B
:102AD0004C48FFF789FEAFF30080002C07D140F28D
:102AE0002E3242494848FFF77FFEAFF300802700AF
:102AF0005FF010085FF00009BA464A46414650466A
:102B0000FEF792FA287A3873287A012806D1E96804
:102B100017F1080000F006FA0600FFE7300000B2E7
:102B2000BDE8F0872DE9F04705000C00002D07D126
:102B300040F2DB322D493448FFF756FEAFF30080F8
:102B4000002C07D14FF4777228492948FFF74CFE33
:102B5000AFF300802E0027005FF004085FF000094B
:102B6000A2464A4641465046FEF75EFA7068401C4F
:102B700070603E600020BDE8F0872DE9F047050059
:102B80000C00002D07D140F20C4218491E48FFF7F7
:102B90002BFEAFF30080002C07D140F20D42134909
:102BA0001748FFF721FEAFF300802E0027003068A2
:102BB000002802D043F222500CE05FF004085FF0DE
:102BC0000009A2464A4641465046FEF72DFA3760B4
:102BD0003E600020BDE8F08770B504000D001600CF
:102BE000320029002000FFF72EFF70BD4C5B000073
:102BF000F06900005C6A0000646A00006C6A000012
:102C0000FC690000746A000018690000002200F0EE
:102C1000F3B92DE9F04F84460D001400099E002001
:102C2000E2465FF0000B8AF800B01AF1010A002CAE
:102C300024D0D5F800B05946002905D15FF0300BFB
:102C40008AF800B0401C42E0002940D091FBF3FB21
:102C5000DE4603FB1E1BBBF1000F05D55F467FEA76
:102C6000070919F1310902E0D94619F13009714615
:102C70008AF800901AF1010A401CE5E7D5F800B087
:102C80005A46002A05D15FF0300B8AF800B0401C8C
:102C90001DE0002A1BD0B2FBF3FBD84603FB182B28
:102CA000BBF10A0F02D25F46303709E03700FFB2AE
:102CB000002F01D0412700E061270A3F17EB0B07E7
:102CC00042468AF800701AF1010A401CE1E7BDE8AB
:102CD000F08F2DE9F54F91B08B461F0000265FF075
:102CE00000080020029000208DF8040000200490CD
:102CF000DDF844A09AF800000500002D00F00D81D9
:102D0000252D07D0012328000200D2B202A9129873
:102D1000B847FFE001208DF8050000208146002023
:102D200003900398002813D11AF1010A9AF80000C1
:102D30000500302D07DB3A2D05DA0A21B5F1300008
:102D400001FB0909EDE7BAF1010A01200390E8E768
:102D5000062005901AF1010108782E2819D10020CB
:102D60000590002003900398002813D1491C08788F
:102D70000500302D09DB3A2D07DA059A0A23B5F153
:102D8000300003FB02020592EDE7491E012003908B
:102D9000E9E7491E11F1010A9AF800000500642DC7
:102DA00011D0692D0FD0662D0DD0462D0BD0782D6A
:102DB00009D0582D07D06F2D05D0622D03D0702D6E
:102DC00001D0752D72D1642D01D0692D11D1DBF8A0
:102DD00000001BF1040B06909DF8050000900A23EB
:102DE000012206A908A8FFF714FF804608A840445E
:102DF0000600582D01D0782D16D1782D02D1002053
:102E00008DF80500DBF800001BF1040B04909DF821
:102E1000050000901023002204A908A8FFF7F9FE7E
:102E2000804608A8404406006F2D05D0622D03D0CF
:102E3000702D01D0752D27D1DBF800001BF1040B9C
:102E400004906F2D03D108208DF804000EE0622D50
:102E500003D102208DF8040008E0702D03D110206A
:102E60008DF8040002E00A208DF804009DF80500AA
:102E700000909DF80430002204A908A8FFF7C9FEBD
:102E8000804608A840440600B9EB0803202202A9A6
:102E90001298B847002E3DD0307800283AD0012350
:102EA000327802A91298B847761EF5E7632D0DD146
:102EB000DBF800001BF1040BC0B207900123079858
:102EC0000200D2B202A91298B84723E0732D1AD19A
:102ED000DBF800001BF1040B0400002C1AD02000CA
:102EE00000F0A4F88046B9EB0803202202A912984A
:102EF000B847207800280DD00123227802A9129823
:102F0000B847641CF5E7012328000200D2B202A9E9
:102F10001298B8471AF1010AECE6029813B0BDE81E
:102F2000F08FFEE7F8B584B004000D00002D06D147
:102F30008B222C492C48FFF757FCAFF30080002C64
:102F400006D18C2227492948FFF74EFCAFF30080B9
:102F50002E00270070680190307A8DF80800707A92
:102F60008DF80900F07A8DF80A00307B8DF80B009F
:102F700030680090B07A8DF80C006946380000F097
:102F800079F8002802D043F2215000E0002005B07B
:102F9000F0BDF8B506000D001400002E07D140F278
:102FA0000B1210491148FFF71FFCAFF30080002DF2
:102FB00007D14FF486720B490D48FFF715FCAFF3AC
:102FC0000080002C07D140F20D1206490948FFF796
:102FD0000BFCAFF30080370022002900380000F01E
:102FE000BFF8F2BDD45B000028690000386900001A
:102FF0007C6A0000846A000000B500BF130096469A
:103000009446103928BFA0E80C50FAD85FEA417CFA
:1030100028BF0CC048BF40F8042BC90728BF20F8C0
:10302000022B48BF00F8012B00BDFEE700F10103B1
:10303000810704D010F8011B820781B1FAD1026820
:10304000A2F10131914311F0803104BF50F8042FF7
:10305000F6E709BAB1FA81F100EBD100401CC01AC1
:103060007047FEE70100002901D1002001E042F68F
:10307000AF7070477FB504000D00002C06D1DE2232
:103080004E494F48FFF7B0FBAFF30080002D06D14B
:10309000DF224A494B48FFF7A7FBAFF30080287BAC
:1030A000022806D3E02245494748FFF79DFBAFF3CE
:1030B0000080464E287B56F82000002806D1E122E9
:1030C0003E494348FFF790FBAFF30080684600F0AD
:1030D0008DF968680090287A012803D102208DF8C4
:1030E000040009E0287A022803D103208DF80400A7
:1030F00002E000208DF80400687A012803D1012045
:103100008DF8050002E000208DF80500A87A00285F
:1031100001D0012000E000208DF80C00E87A0028A2
:1031200001D0012000E000208DF80B0000208DF878
:10313000060001208DF807002A686946287B56F8AA
:10314000200000F070F80600002E03D03000FFF7DA
:1031500089FF03E02100287B0870002004B070BDC7
:10316000F8B506000D001400002E07D14FF4A87228
:1031700012491348FFF738FBAFF30080002D07D149
:1031800040F251120D491348FFF72EFBAFF30080B8
:10319000002C07D14FF4A97208490F48FFF724FB10
:1031A000AFF3008037002200290008483B7850F830
:1031B000230000F054F90020F2BD00005C5C000028
:1031C000A46A0000AC6A000030620000C46A00001B
:1031D000E8650000B46A0000BC6A0000DFF8001374
:1031E00011EB10410A68012383401A430A607047BB
:1031F00070B5040002260025B54207D2DFF8E402CC
:1032000050F82500A04201D06D1CF5E7B54208D367
:103210008D22DFF8D412DFF8D402FFF7E5FAAFF31E
:103220000080280070BD2DE9F84F05000C00160045
:10323000002C08D1D422DFF8B012DFF8B402FFF777
:10324000D3FAAFF300802068002808D1D522DFF838
:103250009812DFF8A002FFF7C7FAAFF30080DFF89B
:103260009872BD4201D1082007E0DFF89002854244
:1032700001D1012001E05FF0FF30A179884208DA36
:10328000D722DFF86412DFF87802FFF7ADFAAFF368
:103290000080BD4201D1082007E0DFF860028542CE
:1032A00001D1012001E05FF0FF30E179884208DAC6
:1032B000D822DFF83412DFF84C02FFF795FAAFF3AB
:1032C000008000210027002022681201B6FBF2F8DE
:1032D000424692B2002A01D10121884600217200A3
:1032E0002368B2FBF3F9424692B2B9EB421972007D
:1032F00043469BB25B0113FA89F3B2FBF3FA2268EF
:10330000524504D2D4F800B0BAEB0B0B03E0D4F86A
:1033100000B0BBEB0A0B20686421B0FBF1F1032085
:103320004143594502D240F2F5305DE02800FFF7F5
:103330005FFFDFF80C1251F82000FFF74FFFE8782D
:1033400010F0F300E870297811F0E001404680B2F7
:10335000000A0143297085F80180A97A11F0E00183
:1033600019F01F000143A972A97811F0E801A07AB1
:10337000800010F0040001432079002803D0207958
:1033800050F010000143A970287810F0DF00627936
:10339000520112F0200210432870A079E874E079FD
:1033A0006875287C50F088002874687C50F0C00054
:1033B0006874207A002803D0687B50F00800687396
:1033C000607A002803D0687B50F001006873EA78C7
:1033D000E07A002801D052F00802207B002801D0BA
:1033E00052F00402EA700020BDE8F28FF8B5040044
:1033F000002C09D140F28B12DFF8EC10DFF8F0005E
:10340000FFF7F2F9AFF30080102500262700320005
:1034100029003800FDF708FE5FF4E130206000204D
:103420002071002060710020A0710120E071002057
:103430002072002060720020A0720020E072002044
:103440002073F1BD01000879C0B24A7950EA022028
:103450000A7B50EA02408A7C50EA026070471300FF
:103460005A1E002B06D003791B06FCD50B78C371BE
:10347000491CF4E77047F8B505000C001700002C54
:1034800009D140F2EE22DFF86010DFF8B800FFF754
:10349000ABF9AFF300803800471E00281ED0A87D8E
:1034A000002817D12800FFF7CDFF0600300702D50E
:1034B00040F2F13013E0700702D540F2F2300EE036
:1034C000B00702D540F2F33009E0F007E7D54FF43A
:1034D0007D7004E0E8792070641CDCE70020F2BD18
:1034E000007004404C6A00000C600000C4660000DC
:1034F0003C6A00002867000000A0064000B00640BB
:103500003C5A0000C45A000080B50F4801681048BA
:103510000E4A12689047BFF34F8F01BD80B5FFF789
:10352000F3FFBFF34F8F01BD80B5074841680948DD
:10353000064A12689047BFF34F8F01BD000000009C
:10354000546A0000446A0000A0000020A800002087
:1035500000A0064000B0064080B5FFF7E5FFBFF3CE
:103560004F8F01BDDFF8301611EB10410A680123BF
:1035700083401A430A60704738B505000024002CC8
:1035800007D1DFF8180650F82400A84201D0641CC7
:10359000F5E7002C08D05C22DFF80416DFF80406FB
:1035A000FFF722F9AFF30080200032BD38B50500E7
:1035B0000C00002C08D16E22DFF8E415DFF8E805D6
:1035C000FFF712F9AFF300802800FFF7D5FFDFF80F
:1035D000DC1551F82000FFF7C5FF29884FF6F87079
:1035E0000140207810F0070001432980607800280E
:1035F00004D0688850F04000688004E06A884FF684
:10360000BF7002406A80B5F89C2047F60740024030
:10361000A088000110F47C700243E078012802D1F8
:1036200052F4004204E0E078022801D152F008028E
:10363000A5F89C20A078012806D1B5F8A80050F084
:103640004000A5F8A80006E0B5F8A8104FF6BF7036
:103650000140A5F8A81031BDF8B50400002C08D130
:10366000B322DFF83C15DFF84005FFF7BDF8AFF3F4
:103670000080062500262700320029003800FDF7CB
:10368000D3FC05202070012060700020A070002075
:10369000E0701A20A080F1BD38B505000C00002CA8
:1036A00008D1D822DFF8F814DFF8FC04FFF79CF803
:1036B000AFF3008069884FF6C0700140207810F0A9
:1036C0003F0001436980B5F89E204CF6FF70024030
:1036D000E078012801D152F400522079012801D16B
:1036E00052F48052A5F89E20B5F8A6104FF6FC7053
:1036F0000140A07810F003000143A5F8A610B5F82A
:10370000A8304FF6F8700340A07910F0070003438B
:10371000A5F8A83031BD38B505000C00002C08D143
:10372000FA22DFF87C14DFF88004FFF75DF8AFF3CE
:103730000080B5F89E108904890CE078012801D139
:1037400051F400412079012801D151F48041A5F8BC
:103750009E10B5F8A6204CF2F3000240208800022B
:1037600010F47C50A3789B0013F00C031843024321
:10377000A5F8A620B5F8A8304FF6C7700340E0883A
:10378000C00010F038000343A5F8A83031BD70B573
:1037900005000E001400002C09D14FF48F72DFF8E1
:1037A0000014DFF80404FFF71FF8AFF300803000C7
:1037B00080B2C00703D521002800FFF76DFF30005D
:1037C00080B2800703D521002800FFF7A4FF70BD59
:1037D000F8B50400002C09D14FF49E72DFF8C01335
:1037E000DFF8C403FFF700F8AFF3008008250026D8
:1037F0002700320029003800FDF716FC0420208045
:103800000020A0700020E070002020710020E080E7
:10381000F1BD10B40B009BB2DB070DD51300DBB27A
:10382000002B05D004884BF6FF731C40048003E096
:10383000038853F4804303800B009BB29B070DD594
:103840001300DBB2002B05D044884BF6FF731C40FD
:10385000448003E0438853F48043438010BC7047A6
:1038600010B40B009BB2DB0711D51300DBB2002BA9
:1038700007D0B0F89C404FF6FE731C40A0F89C4067
:1038800005E0B0F89C3053F00103A0F89C300B0029
:103890009BB29B0711D51300DBB2002B07D0B0F809
:1038A0009C404FF6FD731C40A0F89C4005E0B0F82A
:1038B0009C3053F00203A0F89C3010BC704701000C
:1038C00000204A8A120401D550F008004A8A5204A6
:1038D00001D550F010004A8A120501D550F02000A1
:1038E0004A8AD20401D550F040004A8A520501D5D7
:1038F00050F001004A8A920501D550F002004A8A30
:10390000D20501D550F00400B1F89C20520501D534
:1039100050F08000B1F89C20120501D550F4807061
:1039200080B2704770B505000E001400002C07D15E
:1039300040F2A3229A499C48FEF756FFAFF300805D
:10394000300080B2102807D34FF429729449984868
:10395000FEF74AFFAFF300802088042805D32088B3
:10396000082817D320880C2814D2A078002808D063
:103970002A88904823885B0830F8130002432A8085
:1039800028E02A888B4823885B0830F8130082439C
:103990002A801FE02088042802D32088082805D325
:1039A00020880C2816D32088102813D2A07800284D
:1039B00008D06A887F4823885B0830F813000243E8
:1039C0006A8007E06A887B4823885B0830F8130028
:1039D00082436A80300080B2082811D2A88803236D
:1039E0003200D2B2520013FA02F230EA0202237914
:1039F0003000C0B2400083401A431100A98016E095
:103A0000300080B2102812D2083EE888032332002A
:103A1000D2B2520013FA02F230EA020223793000E5
:103A2000C0B2400083401A431100E98008363000DC
:103A300080B2042811D228890F233200D2B292001A
:103A400013FA02F230EA020223883000C0B280008A
:103A500083401A431100298146E0300080B20828D3
:103A600013D2361F68890F233200D2B2920013FAA4
:103A700002F230EA020223883000C0B280008340A4
:103A80001A4311006981361D2EE0300080B20C28E7
:103A900013D2083EA8890F233200D2B2920013FA43
:103AA00002F230EA020223883000C0B28000834074
:103AB0001A431100A981083616E0300080B21028A0
:103AC00012D20C3EE8890F233200D2B2920013FAD0
:103AD00002F230EA020223883000C0B28000834044
:103AE0001A431100E9810C362089320092B205EBAD
:103AF00042029087E088320092B205EB4202A2F8BF
:103B00005C006089320092B205EB4202A2F87C00B0
:103B10002088082813D2B5F8A00003232288D2B247
:103B2000520013FA02F230EA0202E3782088C0B2AF
:103B3000400083401A431100A5F8A01017E0208828
:103B4000102814D2B5F8A20003232288083AD2B272
:103B5000520013FA02F230EA0202E37820880838B1
:103B6000C0B2400083401A431100A5F8A210207B88
:103B7000002807D0B5F8A4000122B2401043A5F8F0
:103B8000A40006E0B5F8A4000122B2409043A5F8D5
:103B9000A40070BD0000000000700440E46B000051
:103BA000545D0000B862000054690000E86B00003A
:103BB000A067000028680000DFF890150A6860F32D
:103BC00093420A607047037813F05F030A78134347
:103BD00003704A78920182707047027812F0F00206
:103BE0000A430270704710B5DFF8D84420680028F7
:103BF00008D1D622DFF8D014DFF85805FEF7F4FD1F
:103C0000AFF30080206810BD10B5FFF7ECFF00286F
:103C100024D0DFF8B8140978C1F3C202D040DFF82D
:103C200038150978C1F301131900C9B2002915D05C
:103C30001100C9B20029052904D9891F04D0491EE1
:103C400006D009E0400909E01421B0FBF1F005E0DD
:103C50000C21B0FBF1F001E00021080010BDDFF8FD
:103C600070040078C00703D4DFF86804006808E037
:103C7000DFF864040068DFF8E4140978C1F3420156
:103C8000C840704780B5DFF848040078C0B2C0F380
:103C90000010002802D1FFF7B7FF02E0DFF834047C
:103CA000006802BD80B5FFF79EFF02BD010049F626
:103CB0009800814201D2002006E0DFF8A40481428E
:103CC00001D2012000E00220C0B2704710B5DFF839
:103CD0000C040078000610D5DFF8E84320680028BF
:103CE00009D14FF4A772DFF8E013DFF86404FEF7A0
:103CF0007BFDAFF30080206800E0002010BD10B510
:103D0000DFF8D8030078000616D5DFF8B84320683E
:103D1000002809D140F26112DFF8AC13DFF830045B
:103D2000FEF762FDAFF300802068DFF838140978F1
:103D3000C9B28909C84000E0002010BD80B5DFF895
:103D40000C040068800C10F00300002802D0032847
:103D50000AD00CE0FFF7BAFFB0F5004F02D14FF4E4
:103D6000004000E0002003E04FF47A7000E0002003
:103D700002BD80B500F06AF8DFF838140968C1F3B5
:103D80000361491CB0FBF1F002BD10B50400200036
:103D9000C0B2002816D0022829D0032827D0042832
:103DA0001AD005282ED006283ED007283FD0082854
:103DB0002BD009282CD00A282DD00B282ED00E2845
:103DC0002FD037E000F042F8DFF8E8130968090F58
:103DD000491CB0FBF1F02EE000F038F8DFF8D41306
:103DE0000968C1F30361491CB0FBF1F023E000F066
:103DF0002DF8DFF8C0130968C1F30341491CB0FB7B
:103E0000F1F018E0FFF79AFF15E000F068F812E013
:103E100000F05AF80FE000F035F80CE000F06EF812
:103E200009E04FF47A7006E0FFF769FF03E0FFF75F
:103E30004DFF00E0002010BD10B504006068DFF801
:103E4000741308602078FFF7B7FE10BD10B5DFF8D7
:103E500074030078C0B2C0F38104002C07D0022C98
:103E60000BD007D3032C0BD100F048F809E000F089
:103E700009F806E0FFF7F3FE03E0FFF7B4FE00E009
:103E8000002010BD80B5DFF8D0020078800704D490
:103E9000DFF83C020078800601D5002013E0FFF730
:103EA000F1FE00280FD0DFF810231178C1F3411183
:103EB0001278D209DFF81033C9B203EB8101D2B214
:103EC00031F81210484302BD80B5DFF800030078D6
:103ED000800701D4002001E0FFF7C1FE02BD10B54C
:103EE000FFF7D0FE0400FFF7B1FFC008A04203D3E4
:103EF000002C01D0200000E0002010BD10B5DFF83C
:103F0000D0010078400601D4002020E0FFF7CAFE6F
:103F10000400002C09D140F28222DFF8AC11DFF856
:103F20009C02FEF761FCAFF30080DFF8940200789A
:103F3000C0B210F00700401CB4FBF0F0DFF89012A4
:103F40000978C9B211F01F0110314843400810BD73
:103F5000010000207047F0B50300DFF874412078BD
:103F6000C0F38105267816F00106DFF8F001077826
:103F7000C7F342079446BE465FFA8CFC5FFA8EFE9A
:103F8000F44527D0DFF844C29CF800C05FEA8C7C7F
:103F900001D4012D12D1B4465FFA8CFCBCF1010FA3
:103FA0000CD1DFF8B4C19CF800E01EF0FE0E8CF8D6
:103FB00000E094F800C05FEACC7CFAD490F800C02E
:103FC0001CF0D00C5FEA420E1EF00E0E5EEA0C0CE6
:103FD00080F800C0DFF880C19CF800E01EF0FE0E03
:103FE00011F0010050EA0E0E8CF800E0DFF8DC0161
:103FF00090F800C01CF0FC0C53EA0C0C80F800C0D8
:10400000012D01D0980707D5207810F001008C46CB
:104010005FFA8CFC6045F7D10020F0BD38B5040094
:10402000002C09D14FF45872DFF89C10DFF8A4017E
:10403000FEF7DAFBAFF300800020617811F0070192
:104040000843DFF87C110870DFF88421137813F03F
:10405000E003A57815F01F052B4313700A78237829
:1040600053F040031A430A70DFF8581109784906E3
:10407000FAD531BD70B504002068FFF717FE0500C2
:10408000DFF8586021793000FFF7A7FDDFF8C8108E
:104090000A7812F0C302280110F030000243607960
:1040A00002430A70A11D3000FFF78DFD60790028E2
:1040B00007D03078000604D5DFF8080100788007C3
:1040C000FAD570BD18000020C85D00000040064011
:1040D000064006400000002004000020005006407A
:1040E000F8B505000C00002C09D140F29262DFF80F
:1040F000E810DFF8E000FEF777FBAFF3008016482A
:10410000017811F0FD010170DFF8C000017811F0B5
:104110003B0151F0800101702A4E307810F01C00F4
:104120000828F9D12A4F387810F0BF00387030785D
:104130008006FCD42000FFF771FF387850F0400073
:10414000387030788006FCD50020F2BD0070044045
:1041500060690000B4670000014006400840064066
:1041600001127A000250064070B505000E001400DE
:10417000002C07D140F2AA7217491648FEF734FB0B
:10418000AFF300802800C0B2FFF7E2FE210030004C
:10419000C0B2FFF7A5FF0D48017811F03F01017093
:1041A00008480078C0B2C0F381000328F8D100208D
:1041B00070BD000044800440034006406C6900006C
:1041C00004400640064006403868000000400640B3
:1041D00005400640246A0000C85D00002DE9F84F44
:1041E00092B01546029100211C9ADFF804828DF8E6
:1041F0002F2081469A4608910FF28C464FF0FF37E8
:104200000CE025280FD015F8011B0298C84700289C
:10421000029000F0D7800898401C08902878002869
:10422000EFD10898E6E000200021002205900691D9
:10423000079201E041F0010115F8010F2028F9D0A3
:1042400023280CD02B2804D02D2805D0302809D0C5
:10425000BAE041F00201EFE741F00401ECE741F080
:104260000801E9E741F01001E6E70A9209E00A983F
:10427000404505DA00EB800402EB4402303A0A9232
:104280006D1C2A78A2F130000A28F0D328782E2855
:1042900018BF099725D115F8010F2A280AD1DAF895
:1042A0000000CAF800006D1C50F8042BCAF800008A
:1042B000099216E02D280CBF6D1C002000220992E7
:1042C0000AE040B9099A424505DA02EB820403EBA1
:1042D0004403303B09936D1C2B78A3F130020A2A6A
:1042E000EFD3ADF82C103046297800F0DFF908B193
:1042F00015F8010B8DF82E009DF82E00682804BFDC
:104300002978682903D162208DF82E006D1C0CA835
:104310000490524615F8013B01A9484600F098F870
:1043200000284FD10A980599079A069C401A801ACE
:10433000041B9DF82C0041070FD42020002C8DF881
:1043400000000ADDA34601236A4601A9484600F0A1
:1043500084F9B8BBBBF1010BF5D1059B0CAA01A9EF
:10436000484600F07AF968BBDDF81CB03020BBF19C
:10437000000F8DF8000009DD01236A4601A94846B7
:1043800000F06BF9F0B9BBF1010BF5D1069B039A74
:1043900001A9484600F061F9A0B99DF82C00410739
:1043A0007FF53CAF2020002C8DF800007FF736AF62
:1043B00001236A4601A9484600F04FF910B9641E6E
:1043C000F6D12BE7384615E02A287FF44EAFDAF80D
:1043D0000020CAF8002052F8040BCAF80020002878
:1043E0000A9003D540420A9041F004016D1C4DE74C
:1043F000CBCCCC0C13B0BDE8F08F62280ED068286F
:1044000019D1002A0A680A60106803D0121D0A60D8
:1044100000B217E0121D0A6080B217E0002A0A6895
:104420000A60106803D0121D0A6040B20AE0121D33
:104430000A60C0B20AE0002A0A680A60106803D065
:10444000121D0A60C1177047121D0A6000217047D3
:1044500070B51C460D46252CEE68114600F0848090
:10446000582C37D0632C0ED0642C18BF692C14D074
:104470006F2C2FD0702C49D0732C53D0752C18BFB3
:10448000782C27D076E02869421C2A610A680A60E5
:1044900052F8043B0A60335476E095F82A00012272
:1044A000FFF7ABFF0028286004D52869411C29616B
:1044B0002D220DE0288D810704D52869411C296132
:1044C0002B2205E0C0071CD52869411C2961202248
:1044D000325416E095F82A000022FFF78EFF28607C
:1044E00095F8280001070CD5286850B144F0200148
:1044F000782906D1286930213154401C421C2A6198
:104500003454214628693044A86007E008680860F0
:1045100050F8042B08602A60AE607821284600F02D
:1045200035F831E00868086050F8044B0860AC606A
:104530003CB900BF56A000F0C5F84FF0FF34201A78
:1045400070BD2E6A002E04D52046FEF76FFD04468E
:1045500008E032460021204600F0D4F8002814BFBD
:10456000041B34466C610FE02869411C2961252237
:10457000325409E02969481C28612522725421001F
:1045800002D0431C2B613454002070BDF0B40246AD
:104590006F29D46808BF082605D041F0200078288C
:1045A00014BF0A26102618251368642918BF692924
:1045B000184602D1002B48BF4042F0B9136AE3B954
:1045C000082E39D192F82800010735D5302017255B
:1045D000E07531E000280ED592F8280000F01400B4
:1045E000102808D1546A11699069641A241AE31AD0
:1045F000012BA8BF9361F0BC7047B0FBF6F706FB38
:10460000170030306D1EC3B23A2BA4BFA1F1510385
:1046100018186055380003D093686719BB42ECD373
:10462000082E09D192F82800010705D5605D3028D1
:1046300002D06D1E30206055C5F11803106A536119
:10464000611983429160C5DA118DC31A4FF6EF707C
:10465000014093611185F0BC7047F8B505460E46E0
:1046600017461C46002074B117F8011B7068A84754
:10467000706030B1F069401CF0610020641EF3D11D
:10468000F2BD4FF0FF30F2BD686C747A4C00000050
:104690007072696E74665F733A206261642025737C
:1046A00020617267756D656E74000000C9B2027892
:1046B0008A421AB11CBF10F8012FF9E718BF002079
:1046C0007047FEE780B500B906A005490B681BB12D
:1046D00022220021984701E000F040F8222002BD8C
:1046E0007C2A0020636F6E73747261696E74206837
:1046F000616E646C65723A20626164206D657373EB
:1047000061676500C9B2830706D0521E22D310F834
:10471000013B9942F7D11FE0083A13D302F104029A
:1047200041EA012141EA014150F8043B121F21BF37
:104730004B40A3F1013C2CEA030C1CF0803FF3D06A
:10474000C9B2001F083210F8013B521E28BF91EA7F
:10475000030FF8D818BF0120401E7047012000F059
:1047600001B8000080B5AFF30080024A11001820A4
:10477000ABBEFBE72600020080B500F0B7F900F001
:104780000AFA00F04DFA00F057FA00F0A9FA00F02A
:1047900021FA00F070FB00F059FC00F093FB00F0F0
:1047A000C3FC00F0EFF800F010F9FBF765FFFEE73F
:1047B00038B584B004009948019000200199087030
:1047C00000200199487200200199487001980078F2
:1047D000401C019908700A200199C8720B200199A8
:1047E000C8708F4D012202A92800FEF744FE08225E
:1047F00002A92800FEF73FFE082202A92800FEF7C2
:104800002EFE884800F0AAFC9DF80F10864800F0A4
:10481000A5FC9DF80E10854800F0A0FC9DF80D1039
:10482000834800F09BFC9DF80C10824800F096FC39
:1048300002ADE978804800F091FCA9787F4800F04B
:104840008DFC69787E4800F089FC9DF808107D4851
:1048500000F084FC9DF80800312828D168783228BF
:1048600025D1A878332822D10A208DF80000002312
:104870000A22694674480068FDF70CF9012803D044
:10488000724800F06BFC02E0714800F067FC002306
:104890000A2201A96F480068FDF7FCF8012803D03F
:1048A0006D4800F05BFC02E06C4800F057FCC8204B
:1048B000FBF7B8FE8AE77CB50400C826684800F01C
:1048C0004DFC320092B269465F480068FDF728FA55
:1048D0000500012D17D19DF80010624800F03EFC44
:1048E00061490868002801D1012000E00020C0B221
:1048F00008605E490868002801D1012000E000201E
:10490000C0B20860DAE758490868002801D10120E0
:1049100000E00020C0B20860D0E77CB50400C826E3
:10492000534800F01BFC320092B2694649480068C7
:10493000FDF7F6F90500012D12D1009801784D48D8
:1049400000F00CFC0098C17A4B4800F007FC00987E
:10495000C1784A4800F002FC49480178017008E03B
:1049600042490868002801D1012000E00020C0B2BF
:1049700008605FF0805043490860BFF34F8FBFF37A
:104980006F8FCDE7E0B540480190012000900023F3
:104990004FF400723D493E48FBF73AFD3D48019017
:1049A0000220009000234FF400723B493B48FBF784
:1049B0002FFD3B4801900320009000234FF400722C
:1049C00038493948FBF724FD07BD10B51E4C0022BD
:1049D00001210A20FDF718F820602068002802D184
:1049E000324800F0BBFB1B4C002204210A20FDF7DB
:1049F0000BF820602068002802D12D4800F0AEFBA3
:104A00002C4C002204210A20FCF7FEFF20602068C5
:104A1000002802D1284800F0A1FB10BDDC280020AE
:104A200000B00640686800007868000088680000F0
:104A300098680000A8680000B8680000C868000016
:104A4000D8680000E8680000D0280020306300002B
:104A50007C650000D4280020A0650000C46500002B
:104A6000F8680000006400001C18FE431818FE439C
:104A7000086900002C640000586400008464000091
:104A80001000002004ED00E0C4280020CC690000E4
:104A9000B1470000C8280020D8690000B7480000CE
:104AA000CC280020E46900001B490000406700009A
:104AB00058670000D828002070670000274911EBD4
:104AC00010410A68012383401A430A60704710B4FA
:104AD00050F8213033F4E0631400E4B2240214F4FB
:104AE000E064234340F8213010BC704710B51C48E7
:104AF000FFF7E4FF1B48FFF7E1FF1B4C06220021F4
:104B00002000FFF7E4FF062201212000FFF7DFFF6E
:104B1000062202212000FFF7DAFF062203212000EF
:104B2000FFF7D5FF052204212000FFF7D0FF052263
:104B300005212000FFF7CBFF0C4C032200212000B1
:104B4000FFF7C5FF032201212000FFF7C0FF08483F
:104B5000016831F0D001016010BD00000070044018
:104B60000C0038100D00381000C0044000D0044084
:104B70001080044020490860704720481D490860A3
:104B800070471F490A7812F0C702C30013F03803B8
:104B90001A430A70704710B5FFF7EFFF1A4C200058
:104BA000FFF768FA2068FFF7E5FF184C2079FFF758
:104BB000E8FFE21D00210020FFF7D6FAE278A17895
:104BC0006078FFF7C8F91248FFF736F911480D4928
:104BD000086010BD80B500F001F801BD0E48016805
:104BE00051F0807101600D48016851F001010160D0
:104BF00070470000448004401800002000000711A6
:104C0000004006400C0000201C6A000048690000BB
:104C1000146A000000BD0105FCED00E0001000E09A
:104C200010B5FFF7A6F80400230001225FF4E1317C
:104C30000120FDF72AFE10BD80B5042207210320C4
:104C400000F02CFC04220621032000F027FC01BD0B
:104C5000010049B200290AD4012210F01F018A4044
:104C6000DFF8E41103005BB25B0941F823207047D1
:104C7000DFF8D81111EB10410A68012383401A4371
:104C80000A60704710B5040020007FF07F0140B239
:104C9000884201D1012004E0200040B2FFF7D8FF94
:104CA000002010BD10B450F8213033F4E06314003C
:104CB000E4B2240214F4E064234340F8213010BC31
:104CC000704710B450F8213033F470231400E4B26C
:104CD000240414F47024234340F8213010BC70479E
:104CE0007CB55B480088ADF800005A48FFF7C0FF6C
:104CF0005948FFF7BDFF594C01221E212000FFF744
:104D0000D1FF01221D212000FFF7CCFF0122182135
:104D10002000FFF7C7FF012219212000FFF7C2FF83
:104D20004F4C012201212000FFF7BCFF012202218C
:104D30002000FFF7B7FF012204212000FFF7B2FF98
:104D4000012205212000FFF7ADFF01220C212000E8
:104D5000FFF7A8FF01220D212000FFF7A3FF414D1F
:104D60006A460121280000F01CFA3F4E6A461921CC
:104D7000300000F016FA6A461821300000F011FAEF
:104D80006A460C21280000F00CFA6A460D21280022
:104D900000F007FA6A460221280000F002FA6A468B
:104DA0000421280000F0FDF96A460521280000F0E2
:104DB000F8F96A461E21300000F0F3F96A461D2119
:104DC000300000F0EEF902221D21042000F087FAE5
:104DD00002221E21042000F082FA0222182104205F
:104DE00000F07DFA02221921042000F078FA022254
:104DF0000121002000F073FA02220221002000F0BD
:104E00006EFA02220421002000F069FA0222052134
:104E1000002000F064FA02220C21002000F05FFA6A
:104E200002220D21002000F05AFA0B22012120005D
:104E3000FFF747FF3B20FFF725FF6A4601212800C7
:104E400000F0AFF973BD000000E100E00070044025
:104E5000862000000D0038100900381000D00440F2
:104E60000090044000F00F4000F10F400069C8407E
:104E700010F00100704738B5DFF8A0410020206035
:104E8000DFF8945103212800FFF7F0FF002803D03A
:104E9000206850F00100206002212800FFF7E6FFA3
:104EA000002803D0206850F0020020600121280073
:104EB000FFF7DCFF002803D0206850F004002060DA
:104EC000206832BD3EB5DFF85841200000F016FBE7
:104ED00040F2011540F21D122900200000F019FBDC
:104EE0004FF48F722900200000F013FB40F21F12D4
:104EF0002900200000F00DFB4FF4907229002000E3
:104F000000F007FB6846FDF705FA01208DF8000068
:104F100002208DF8080000208DF8070001208DF890
:104F2000000000208DF80B00DFF8F8406A460021F1
:104F30002000FDF721F9012803D1DFF8EC00FDF78F
:104F40001DFD00208DF8050000208DF804006A4644
:104F500001212000FDF710F9012803D1DFF8C80076
:104F6000FDF70CFD6A4602212000FDF705F9012836
:104F700003D1DFF8B400FDF701FD00F005F8DFF81C
:104F8000AC00FDF7FBFC37BDF8B586B040F6B83491
:104F90000420FEF7FAFE050040F28A20A0FB05017E
:104FA000DFF88C20002300F0E1FA060001208DF8E4
:104FB0000C0003A8002181703221417086800020FE
:104FC0008DF8120000208DF8140032208DF81300A7
:104FD000ADF81660DFF84C70029501940320009044
:104FE000022303AA00213800FDF7C2F902950194BB
:104FF00003200090022303AA01213800FDF7B8F92D
:105000000295019403200090022303AA0221380094
:10501000FDF7AEF907B0F0BD40F00F4014000020DE
:105020000090054000300340A866000018680000AA
:1050300000CA9A3B1300DBB2002B03D0038A8B43D8
:10504000038202E0038A0B430382704738B588B0BD
:1050500004A8FEF701FB02208DF810002F4C04A9D4
:105060002000FEF7A3FA06A8FEF7B2FB06AA03216A
:105070002000FEF78CFB012203212000FEF7F0FB4D
:105080002000FEF71CFC10F4C070B0F5C07FF7D014
:10509000012203212000FEF7BCFB00208DF8030055
:1050A00000208DF804004FF6FF70ADF806000020D8
:1050B000ADF808000020ADF80A0000208DF80C00C3
:1050C0000220ADF8000000208DF802006A460021A1
:1050D0002000FEF727FC0320ADF8000000208DF82B
:1050E00002006A4601212000FEF71CFC0325012274
:1050F000290089B22000FFF79DFF0022280080B21E
:10510000C043010089B22000FFF794FF0448FDF777
:1051100035FC0448FDF732FC09B030BD00C0054045
:10512000A4630000DC640000F8B56846FEF75EF991
:105130005FF4E130009001208DF80B0001208DF824
:105140000C000420FEF721FE020069460248FEF72B
:105150006AF805B000BD00BF00B006400EB4C0B58F
:10516000024603A800210190009101AB01210448EF
:1051700078440C30FFF732F806BC5DF810FB00BF36
:105180000916000010B401231400E4B2002C03D16E
:1051900013FA01F4846002E013FA01F4446010BCD5
:1051A0007047F8B505000E001400002C06D16F22E0
:1051B0007B497C48FDF718FBAFF30080012720787E
:1051C000002805D1696917FA06F08143696109E091
:1051D000627831002800FFF7D5FF696917FA06F0F9
:1051E00001436961F1BD30B46F4C25686F4B53F8D2
:1051F00020301D4325601300DBB2012B0AD16C4B1C
:1052000053F82040646901258D402C4353F8203029
:105210005C610AE0664B53F82040656901248C40CC
:1052200035EA040453F820305C6130BC7047F0B4B8
:105230005D4C25685D4B53F820301D4325605D4B68
:1052400053F820400D00EDB253F820600F00FFB27C
:1052500056F8276036F4E06644F8256053F820409D
:105260000D00EDB253F820300E00F6B253F82630A0
:105270001600F6B2360216F4E066334344F82530E1
:10528000F0BC704730B4484C2568484B53F8203088
:105290001D4325601300DBB2002B0FD0454B53F8A4
:1052A00020400D00EDB254F8254054F0200453F88E
:1052B00020300D00EDB243F825400EE03D4B53F891
:1052C00020400D00EDB254F8254034F0200453F88E
:1052D00020300D00EDB243F8254030BC7047F0B4EB
:1052E000314C2568314B53F820301D4325601300A5
:1052F000DBB2002B04D0022B30D0032B10D04BE0BC
:105300002C4B53F820400D00EDB253F820300E0026
:10531000F6B253F8263033F0020344F825303BE070
:10532000244B53F820400D00EDB253F820600F00DD
:10533000FFB256F8276056F0020644F8256053F88D
:1053400020400D00EDB253F820300E00F6B253F8B5
:10535000263053F0010344F825301DE0154B53F877
:1053600020400D00EDB253F820600F00FFB256F858
:10537000276056F0020644F8256053F820400D00DF
:10538000EDB253F820300E00F6B253F826305B0829
:105390005B0044F82530FFE7F0BC704700000000D8
:1053A000985F00009069000038800440F0670000BA
:1053B000C8670000DC67000010B5040060780028B2
:1053C00006D002282AD016D304284DD039D35EE067
:1053D00000226168C9B22078FFF781FF002261686E
:1053E000C9B22078FFF74EFF00226168C9B2207869
:1053F000FFF7F9FE4BE002226168C9B22078FFF79F
:105400006EFF00226168C9B22078FFF73BFF0022DF
:105410006168C9B22078FFF7E6FE38E003226168D0
:10542000C9B22078FFF75BFF00226168C9B220781B
:10543000FFF728FF00226168C9B22078FFF7D3FE8A
:1054400025E003226168C9B22078FFF748FF0122F6
:105450006168C9B22078FFF715FF01226168C9B2FF
:105460002078FFF7C0FE12E000226168C9B2207800
:10547000FFF735FF00226168C9B22078FFF702FF0D
:1054800001226168C9B22078FFF7ADFEFFE7012273
:105490006168C9B22078FFF7CAFE10BD7CB5040070
:1054A0000D00160020008DF800008DF801600195B8
:1054B0006846FFF781FF2000C0B276BD264911EB98
:1054C00010410A68012383401A430A60704738B5C7
:1054D00005000024002C06D1204850F82400A842E2
:1054E00001D0641CF6E7002C06D040221C491D4860
:1054F000FDF77AF9AFF30080200032BD10B504004B
:105500002000FFF7E4FF184951F82000FFF7D6FF0D
:1055100010BD70B413001BB2C3F3460310EB430479
:1055200013001BB2C3F3460310EB43031D88FF2691
:1055300012F00103DBB2DB009E40B5430E0036B231
:1055400006F0FF0612F00103DBB2DB009E4035439C
:10555000258070BC7047000000700440F06B0000B4
:105560008060000078620000F46B0000BBBBE1B11A
:10557000B2F5803F80F07E80022A1ED98C46B1FBB6
:10558000F2F102FB11C31B0443EA1043B3FBF2FC2C
:1055900002FB1C3380B240EA0343B3FBF2F002FB90
:1055A000103240EA0C4000237047022A05D9844695
:1055B000B0FBF2F002FB10C270474AB105D100F017
:1055C000010249085FEA300070470022002370475B
:1055D00000F0E4B80B000200002100207047904268
:1055E00071EB030CF6D3B3F5803F2FD2F0B5B3FACD
:1055F00083F7B1FA81F4A7F10F0E3D1B5340CEF1B2
:10560000200602FA0EF2F3415340B5F10F0746D8D7
:105610000F3C2C444140C4F12006A040F1414140E0
:10562000B1FBF3F603FB1611A2FB0645001BA941D3
:1056300002D2761E8018594180EA010221FA0EF347
:1056400062FA0EF200215A403046F0BD30B4B1FB90
:10565000F3FC03FB1C11A2FB0C45001BA94103D268
:10566000ACF1010C8018594130BC02460B46604633
:1056700000217047B2F1807F65D3F0B5B2FA82F7AE
:10568000B1FA81F4C7F10F063D1B22FA06F307F1C8
:10569000110EF24120355A40B5F10F07B8D94140FB
:1056A000C4F12006A040F1414140B1FBF3FC03FBF3
:1056B0001C11A2FB0C45001BA94103D2BCF1010C3B
:1056C000801859410F2F12D30F3FC90341EA5041AF
:1056D000B1FBF3F603FB1611A2FB0645D4EBC03079
:1056E000A94102D2761E8018594146EACC3C07B344
:1056F0004140C7F12006B840F1414140B1FBF3F60B
:1057000003FB1611A2FB0645001BA94102D2761E1F
:105710008018594180EA010221FA0EF3C7F12004F2
:1057200062FA0EF20CFA07F05A402CFA04F13043F8
:10573000F0BD80EA010221FA0EF3002162FA0EF2B6
:1057400060465A40F0BD8C46B1FBF2F102FB11C33A
:105750001B0243EA1063B3FBF2FC02FB1C331B0287
:105760004CEA002043EA1063B3FBF2FC02FB1C335B
:105770001B024CEA002043EA1063B3FBF2FC02FB7D
:105780001C331B024CEA002043EA1063B3FBF2FC1B
:1057900002FB1C324CEA00200023704770470000D7
:1057A0002DE9F8430400002C07D140F2F44280496F
:1057B0007D48FDF719F8AFF30080207CA168C87719
:1057C000A068217C4901084441F21C01465A16F0A8
:1057D0008006F6B2F609E06800280AD120680028A1
:1057E0005ED000233200D2B2616820002568A8474D
:1057F00056E0A068217C4901084441F2180147584D
:10580000E0683F1A3D006D093000C0B2002801D0A9
:10581000A84609E0002D03D02800B0F1010803E0FC
:1058200094F91400B0F10108404694F91110C0B287
:10583000C9B288420FD194F9130094F914100200F0
:105840000B0052B25BB29A4202D194F913900FE06E
:105850005FF000090CE04046C0B294F91190B0EB43
:105860000909B9F1000F03D594F9140019EB0009E7
:1058700084F81180E07CB0EB0900E0742068002817
:1058800007D04B463200D2B261682000D4F800C085
:10589000E0473000C0B2002802D0207CA168087721
:1058A000BDE8F18380B541480068FFF779FFBFF399
:1058B0004F8F01BD80B53D484068FFF771FFBFF3D2
:1058C0004F8F01BD80B539488068FFF769FFBFF38E
:1058D0004F8F01BD80B53548C068FFF761FFBFF34A
:1058E0004F8F01BD000080B530480069FFF758FFB9
:1058F000BFF34F8F01BD80B52C484069FFF750FFC3
:10590000BFF34F8F01BD80B528488069FFF748FF7E
:10591000BFF34F8F01BD80B52448C069FFF740FF3A
:10592000BFF34F8F01BD80B52048006AFFF738FFF5
:10593000BFF34F8F01BD80B51C48406AFFF730FFB1
:10594000BFF34F8F01BD80B51848806AFFF728FF6D
:10595000BFF34F8F01BD80B51448C06AFFF720FF29
:10596000BFF34F8F01BD80B51048006BFFF718FFE4
:10597000BFF34F8F01BD80B50C48406BFFF710FFA0
:10598000BFF34F8F01BD80B50848806BFFF708FF5C
:10599000BFF34F8F01BD80B50448C06BFFF700FF18
:1059A000BFF34F8F01BD0000846900004800002054
:1059B000B05E0000473A5C4D4B56343446323536C3
:1059C00046564831365F50726F5C4941525F6D6B8D
:1059D00076343466313238766C6831365F736F6690
:1059E00074776172655F666F6C6465725C66726520
:1059F0006552544F535F6961725F6D6B76343466E4
:105A0000313238766C6831365F736F66745C7574EA
:105A1000696C69746965735C64656275675F636FFF
:105A20006E736F6C655C66736C5F64656275675FEF
:105A3000636F6E736F6C652E630000002828286208
:105A400061736529203D3D202828554152545F54FB
:105A5000797065202A29283078343030364130304A
:105A60003075292929203F20283829203A20282844
:105A7000286261736529203D3D20282855415254F4
:105A80005F54797065202A292830783430303642C6
:105A900030303075292929203F20283129203A200B
:105AA000282D31292929203E3D20636F6E666967C4
:105AB0002D3E74784669666F57617465726D6172C8
:105AC0006B0000002828286261736529203D3D2075
:105AD0002828554152545F54797065202A2928306E
:105AE00078343030364130303075292929203F2034
:105AF000283829203A202828286261736529203D0A
:105B00003D202828554152545F54797065202A2938
:105B10002830783430303642303030752929292009
:105B20003F20283129203A20282D31292929203EBB
:105B30003D20636F6E6669672D3E72784669666FB9
:105B400057617465726D61726B000000473A5C4D7D
:105B50004B5634344632353646564831365F5072ED
:105B60006F5C4941525F6D6B763434663132387602
:105B70006C6831365F736F6674776172655F666FEC
:105B80006C6465725C6672656552544F535F6961FF
:105B9000725F6D6B76343466313238766C683136CC
:105BA0005F736F66745C636F6D706F6E656E747338
:105BB0005C73657269616C5F6D616E616765725C73
:105BC00073657269616C5F6D616E616765722E638A
:105BD00000000000473A5C4D4B56343446323536AF
:105BE00046564831365F50726F5C4941525F6D6B6B
:105BF00076343466313238766C6831365F736F666E
:105C000074776172655F666F6C6465725C667265FD
:105C10006552544F535F6961725F6D6B76343466C1
:105C2000313238766C6831365F736F66745C636FDF
:105C30006D706F6E656E74735C73657269616C5FB5
:105C40006D616E616765725C73657269616C5F70CE
:105C50006F72745F756172742E630000473A5C4D19
:105C60004B5634344632353646564831365F5072DC
:105C70006F5C4941525F6D6B7634346631323876F1
:105C80006C6831365F736F6674776172655F666FDB
:105C90006C6465725C6672656552544F535F6961EE
:105CA000725F6D6B76343466313238766C683136BB
:105CB0005F736F66745C636F6D706F6E656E747327
