:1000000000400020A16E00009F310000A7320000D8
:10001000DF320000234D00000B5200000000000002
:10002000000000000000000000000000891800002F
:10003000AB5200000000000031180000B5120000B3
:10004000057500000D750000157500001D75000098
:10005000257500002D750000357500003D75000008
:10006000457500004D750000557500005D75000078
:10007000657500006D750000757500007D750000E8
:100080008575000039760000397600003976000069
:1000900039760000397600003976000039760000A4
:1000A0008D750000397600009575000039760000E6
:1000B0003976000039760000397600009D75000021
:1000C000A5750000AD750000B5750000397600001B
:1000D0003976000039760000397600003976000064
:1000E0003976000039760000397600003976000054
:1000F0003976000039760000397600003976000044
:100100003976000039760000397600003976000033
:100110003976000039760000397600003976000023
:100120003976000039760000397600004356000029
:100130003976000039760000397600003976000003
:1001400039760000397600003976000039760000F3
:1001500039760000397600003976000039760000E3
:10016000397600003976000039760000BD75000050
:10017000C5750000CD750000D5750000DD75000067
:10018000E575000039760000397600003976000008
:1001900039760000397600003976000039760000A3
:1001A0003976000039760000397600003976000093
:1001B0003976000039760000ED750000F575000015
:1001C000FD750000057600000D7600001576000034
:1001D0003976000039760000397600003976000063
:1001E0003976000039760000397600003976000053
:1001F0003976000039760000397600003976000043
:100200003976000039760000397600003976000032
:1003F000397600003976000039760000FFFFFFFFF4
:10040000FFFFFFFFFFFFFFFFFFFFFFFFFEFFFFFFFD
:100410002DE9F84F84B006000F0090469946DDF8AC
:1004200038A0DDF83CB0404680B2800000F0C8FC47
:100430000500002D0BD0742000F0C2FC0400002C3D
:1004400001D0256304E0280000F04AFD00E000240C
:10045000002C12D0002003900294CDF804B0CDF807
:1004600000A04B46424692B23900300000F00AF834
:10047000200000F088F8012001E05FF0FF3005B0B7
:10048000BDE8F08F2DE9F94F81B00C0016000C9FEC
:100490000D9DDDF83880B00000905FF0A50BD8F816
:1004A00030A05A460099504600F0C4FDD8F83000FC
:1004B00000EB8600B0F1040A5FEADA0A5FEACA0AD2
:1004C0001AF00700002807D0202080F31188BFF31E
:1004D0004F8FBFF36F8FFEE7C8F844A0002C15D0F4
:1004E00000208146B9F1100F0CD214F8090008EB76
:1004F000090181F8340014F80900002802D019F12C
:100500000109EFE7002088F8430002E0002088F8A6
:100510003400072F01D306200700C8F82C70C8F854
:1005200050700020C8F8540018F1040000F0C4FD19
:1005300018F1180000F0C0FDC8F81080D7F10700CE
:10054000C8F81800C8F824805FF0000BBBF1050F55
:1005500006D2002008EB8B0188651BF1010BF5E743
:100560000020C8F86C00002088F87000029A0199F9
:10057000504600F0DFFDC8F80000002D01D0C5F89E
:100580000080BDE8F78F38B5040000F063FEDFF8A7
:10059000E0130868401C0860DFF8D853286800287A
:1005A00006D12C60086801280DD100F0C1FA0AE0DC
:1005B000DFF8C4030068002805D1E06A2968C96A29
:1005C000884200D32C60DFF8B4030168491C016045
:1005D0000068A064DFF8A8130A680123E06A83407A
:1005E0001A430A60211DDFF8DC23E36A1420434329
:1005F00002EB030000F063FD00F046FEDFF8780335
:10060000006800280DD02868C06AE16A884208D2D4
:100610005FF08050DFF84C140860BFF34F8FBFF3DA
:100620006F8F31BD38B505000024002D15D0DFF8DF
:100630001C040068002807D0202080F31188BFF335
:100640004F8FBFF36F8FFEE700F04CF800212800BA
:1006500000F05AFB00F04CF80400002C08D15FF0C9
:100660008050DFF800140860BFF34F8FBFF36F8F27
:1006700031BD1CB5DFF86406019000200090002316
:100680005A22DFF85C160FF27D40FFF7C1FE04002E
:10069000012C02D100F07CFE0400012C16D1202098
:1006A00080F31188BFF34F8FBFF36F8F5FF0FF3080
:1006B000DFF8301608600120DFF8BC120860002067
:1006C000DFF8A413086000F05EFD0AE014F1010FEA
:1006D00007D1202080F31188BFF34F8FBFF36F8FB6
:1006E000FEE713BDDFF864030168491C0160704731
:1006F000F8B500250026DFF854432068002807D10C
:10070000202080F31188BFF34F8FBFF36F8FFEE778
:1007100000F0A0FD2068401E20602068002855D110
:1007200093480068002851D0DFF8AC15086800280D
:1007300026D0C868C068050015F1180000F0E6FC76
:10074000281D00F0E3FCDFF838120A680123E86A8C
:1007500083401A430A60291DDFF86822EB6A1420DF
:10076000434302EB030000F0AAFCE86A81490968F0
:10077000C96A8842D8D30120DFF870150860D3E732
:10078000002D01D000F027FADFF85C753C68002CE2
:100790000CD000F023F8002803D00120DFF84C151E
:1007A0000860641E002CF4D100203860DFF83C059E
:1007B000006800280AD0012006005FF08050DFF8B2
:1007C000A4120860BFF34F8FBFF36F8F00F05CFD82
:1007D0003000F2BDDFF89002006870472DE9F0416B
:1007E00000279A480068002862D1DFF87C0204687C
:1007F000641C0460002C1CD1DFF82C13086800680E
:10080000002807D0202080F31188BFF34F8FBFF35B
:100810006F8FFEE7D1F80080DFF8100302680A60EE
:10082000C0F80080DFF8C8040168491C016000F0CE
:10083000D2F9DFF8B084D8F8000084423DD3DFF865
:10084000E81208680068002804D15FF0FF30C8F89B
:10085000000032E00868C068C068050068680600EB
:10086000B44202D2C8F8006027E0281D00F04EFC18
:10087000A86A002803D015F1180000F047FC404991
:100880000A680123E86A83401A430A60291D4D4A19
:10089000EB6A1420434302EB030000F010FCE86A0B
:1008A00034490968C96A8842C9D301200700C6E7EC
:1008B000DFF834040168491C0160DFF83004006887
:1008C000002801D0012007003800BDE8F0815F4812
:1008D0000068002804D00120DFF8101408602BE025
:1008E0000020DFF80814086025480068B0FA80F19D
:1008F000D1F11F011422334B02FB01F018580028DC
:1009000007D1202080F31188BFF34F8FBFF36F8F83
:10091000FEE702FB01F203EB02004268526842600C
:10092000426810F108039A4202D14268526842605C
:100930004068C0680F4A1060704738B504000D0069
:10094000002C07D1202080F31188BFF34F8FBFF315
:100950006F8FFEE7DFF8A803006810F11801200090
:1009600000F0B9FB0121280000F0CEF931BD0000F4
:100970003C2A00203C290020482A0020582A002038
:10098000442A002070B505000E001400002D07D188
:10099000202080F31188BFF34F8FBFF36F8FFEE7E6
:1009A000DFF85C03006810F11801280000F087FBF5
:1009B000002C02D05FF0FF3006002100300000F074
:1009C000A3F970BD4029002038B50500E868C46867
:1009D000002C07D1202080F31188BFF34F8FBFF385
:1009E0006F8FFEE714F1180000F090FB17480068C5
:1009F000002815D1201D00F089FBDFF8FC120A68E1
:100A00000123E06A83401A430A60211DDFF8EC22CB
:100A1000E36A1420434302EB030000F050FB05E0BF
:100A200014F11801DFF8B00200F049FBDFF8D00242
:100A30000068C06AE16A884205D201200121DFF81E
:100A4000B422116000E0002032BD0000642A0020C2
:100A5000DFF89C1209680160DFF830130968416013
:100A60007047000004ED00E0402A00202DE9F0412D
:100A700004000D00002C07D1202080F31188BFF363
:100A80004F8FBFF36F8FFEE7002D07D1202080F33B
:100A90001188BFF34F8FBFF36F8FFEE700F0DAFBD3
:100AA000DFF8E80206686768F71B286810F1010F95
:100AB00002D15FF000081BE0DFF834020068216813
:100AC000884205D06068864202D35FF001080FE0DB
:100AD0002868874208D22868C01B28602000FFF7DA
:100AE000B7FF5FF0000803E0002028605FF0010816
:100AF00000F0CAFB4046BDE8F0810120DFF8F411A8
:100B00000860704710B5040000F03DF8DFF8EC0114
:100B100000680228F8D35FF0805041490860BFF3B5
:100B20004F8FBFF36F8FEFE7F4290020F8290020E3
:100B300070B50024072C09D2DFF8C001142101FB95
:100B400004F1084400F0A9FA641CF3E7DFF844520A
:100B5000280000F0A2FADFF84062300000F09DFAB1
:100B6000DFF8740100F099FADFF8300200F095FA2E
:100B7000DFF82C0200F091FADFF828020560DFF8B8
:100B80002802066070BD38B5DFF8205228680028BA
:100B900017D000F05FFBDFF80402C068C0680400F3
:100BA000201D00F0B3FADFF808020168491E016059
:100BB0002868401E286000F067FB200000F002F863
:100BC000E2E731BD10B50400206B00F089F9200088
:100BD00000F086F910BDDFF8CC211068006800280D
:100BE00004D15FF0FF303F4A106006E01068C06833
:100BF000C068010048683B4A10607047DFF8B401E4
:100C00000068002801D1012007E0DFF8F800006843
:100C1000002801D1022000E0002070470000000001
:100C200004ED00E070B5040025000026002C50D033
:100C3000DFF8CC000068854207D0202080F31188BF
:100C4000BFF34F8FBFF36F8FFEE7686D002807D1AA
:100C5000202080F31188BFF34F8FBFF36F8FFEE723
:100C6000686D401E6865E86A296D884231D0686DFC
:100C700000282ED1281D00F049FA00280FD1DFF8F6
:100C80007C10EA6A142042438858002807D1DFF814
:100C900068100A680123E86A83409A430A60286D55
:100CA000E862E86AD0F10700A861DFF84C100A6832
:100CB0000123E86A83401A430A60291DDFF83C20BB
:100CC000EB6A1420434302EB030000F0F8F9012023
:100CD0000600300070BD0000FC290020602A0020C2
:100CE000C47400005C2A00204C2A0020502A0020F6
:100CF000542A0020502A0020442A002040290020A5
:100D00003C290020642A00202DE9F04105000C0058
:100D10001E480768DFF87880D8F80000001D00F052
:100D2000F5F9002808D1D8F8000023490A68012302
:100D3000C06A83409A430A6015F1010F08D1002C64
:100D400006D0D8F80000011D154800F0B8F91AE0E7
:100D5000E8190600D8F800004660BE4207D2D8F86D
:100D60000000011D1048006800F0B5F90BE0D8F84C
:100D70000000011D0B48006800F0ADF90F48016844
:100D80008E4200D20660BDE8F0810000402A0020BB
:100D90003C290020CC290020E0290020102A002036
:100DA000282A0020F4290020F8290020242A0020E5
:100DB0003C2A0020482A0020442A00205C2A0020E7
:100DC0002DE9F84F04005FF00008FFF78BFCDFF817
:100DD0004892D9F80000002801D100F0BBF8DFF8F4
:100DE0003CA2DAF80000044269D1002C15D08C48EE
:100DF0000068041914F0070F0FD014F1080014F064
:100E00000704041B14F0070F07D0202080F311887B
:100E1000BFF34F8FBFF36F8FFEE7002C4FD0DFF88B
:100E200004B2DBF80000A04249D37F480600006806
:100E300005006868A04205D22868002802D02E006C
:100E40002D68F6E7D9F80000854238D0744831683B
:100E5000026811448846296831600068400069686A
:100E6000091B884215D205EB0400070017F00700A4
:100E7000002807D0202080F31188BFF34F8FBFF3E5
:100E80006F8FFEE76868001B78606C60380000F0C8
:100E900092F8DBF800106868091ACBF80010634874
:100EA000DBF800100268914202D2DBF8001001600A
:100EB0006968DAF800000143696000202860FFF7E4
:100EC00017FC18F00700002807D0202080F31188B5
:100ED000BFF34F8FBFF36F8FFEE74046BDE8F28F41
:100EE00070B504002600002C33D04D480068404205
:100EF00006443500494968680A68104207D1202035
:100F000080F31188BFF34F8FBFF36F8FFEE7286820
:100F1000002807D0202080F31188BFF34F8FBFF344
:100F20006F8FFEE768680A68104212D028680028B0
:100F30000FD16A68086882436A60FFF7D3FB3949BA
:100F40000A68686882180A60280000F034F8FFF721
:100F5000CFFB70BD70B44FF420523548010011F042
:100F6000070F04D0C91DC908C900521A82180B0006
:100F70002D48036000244460D41829480068241ACE
:100F8000E408E400244D2C6000202E6870600020EE
:100F90002E6830601800261A46602D680560456886
:100FA000224E356045681F4E35605FF000451B4E90
:100FB000356070BC704730B41B4A1168814201D261
:100FC0001268FAE7140051682144814204D1536841
:100FD0004168CB185360100003004168194415683C
:100FE000A94210D10C4914680D68AC4208D044687D
:100FF000116849680C19446011680968016004E0CF
:101000000968016001E011680160824200D010604F
:1010100030BC704700000000B8280020C428002021
:1010200030760000BC280020B0280020C028002016
:10103000B000002062F30F2262F31F42401810F04C
:10104000030308D0C91A1FD3DB0748BF00F8012DDE
:1010500028BF20F8022D130030B41446154610396D
:1010600028BF20E93C00FAD8490728BF20E90C0036
:1010700048BF40F8042D890028BF20F8022D48BF42
:1010800000F8012D30BC7047C91818BF00F8012DB9
:10109000CB0728BF00F8012D704710F1080141600F
:1010A0005FF0FF31816010F10801C16010F10801AB
:1010B00001610021016070470021016170474268B1
:1010C0004A6093688B609368596091600861036817
:1010D0005B1C0360704710B40B6813F1010F01D162
:1010E000026907E010F1080254682468A34201D3A2
:1010F0005268F9E754684C604C68A1608A6051609E
:1011000008610468641C046010BC70470100086931
:101110008A684B689A604A688B685A6042688A425B
:1011200001D18A68426000220A610268521E026090
:1011300000687047001F5FF080730360001F4B085A
:101140005B000360001F0FF2150303601438026098
:10115000001F7FF002030360203870477348006867
:1011600010F1010F07D0202080F31188BFF34F8FBB
:10117000BFF36F8FFEE7202080F31188BFF34F8FFE
:10118000BFF36F8FFEE7E0B569480168694A914295
:1011900007D1202080F31188BFF34F8FBFF36F8FEB
:1011A000FEE700686449884207D1202080F3118857
:1011B000BFF34F8FBFF36F8FFEE760480178019157
:1011C000FF21017001788DF800109DF8001011F0DA
:1011D00020015B4A11705B4907220A609DF80020DC
:1011E000120608D50A68521E0A609DF800205200B7
:1011F0008DF80020F2E70A68D2F10702042A07D02E
:10120000202181F31188BFF34F8FBFF36F8FFEE76B
:101210000A6812020A600A6812F4E0620A60019920
:1012200001704948016851F470010160016851F092
:101230007041016000F092F800203C49086000F025
:1012400041FB4248016851F04041016000F02AFB37
:1012500000200EBD202080F31188BFF34F8FBFF315
:101260006F8F32490A68521C0A60096801290AD145
:1012700037490968090606D080F31188BFF34F8FFC
:10128000BFF36F8FFEE7704728490868002807D131
:10129000202080F31188BFF34F8FBFF36F8FFEE7DD
:1012A0000868401E08600868002802D1002080F30A
:1012B0001188704780B5202080F31188BFF34F8FCD
:1012C000BFF36F8FFFF78AFA002803D05FF08050DA
:1012D0001F490860002080F3118801BDEFF30580ED
:1012E000102811D31B4A1268125C11000A00144B1B
:1012F0001B78D2B29A4207D2202282F31188BFF320
:101300004F8FBFF36F8FFEE70E4A1268124B1B68B8
:1013100013F4E0639A4207D2202282F31188BFF3CC
:101320004F8FBFF36F8FFEE770470000080000206B
:1013300000ED00E071C20F4170C20F4100E400E017
:10134000A82A0020F828002020ED00E034EF00E07B
:1013500004ED00E0347600000CED00E008480021C8
:1013600001600021074A1160074909684FF47A7249
:10137000B1FBF2F1491E054A116007210160704777
:1013800010E000E018E000E00C00002014E000E0B5
:101390001CB5002400F014FADFF86C040068002883
:1013A0000DD0DFF868040190062000900023B422DD
:1013B000DFF85C140FF20D10FFF72AF80400002C80
:1013C00007D1202080F31188BFF34F8FBFF36F8FB9
:1013D000FEE7200016BD2DE9FF4704000D001600B2
:1013E0001F00DDF830805FF00009002C07D12020BD
:1013F00080F31188BFF34F8FBFF36F8FFEE7DFF8E5
:1014000008A4DAF80000002822D000950196029482
:10141000062D15DAFFF7F2FB022808D10023424619
:101420006946DAF8000000F0EBFA814610E000238C
:1014300000226946DAF8000000F0E2FA814607E08F
:1014400000233A006946DAF8000000F0ACFB814660
:10145000484604B0BDE8F087F8B505000E00DFF897
:10146000B4030068C068C768381DFFF74FFE97F8DF
:10147000280040071CD52B003200B96949193800F3
:1014800000F08FF8002819D00020009000232A00D7
:1014900000213800FFF79FFF0400002C07D1202017
:1014A00080F31188BFF34F8FBFF36F8FFEE705E026
:1014B00097F8280010F0FE0087F828003800396AF5
:1014C0008847F1BD38B50400684600F042F80500D1
:1014D0000099280000F003F800F08CF8F4E77CB5E0
:1014E00005000C00FFF7FEF8684600F046F806001D
:1014F000009800282AD1002C08D1AE4206D3FFF76D
:10150000F7F831002800FFF7A7FF21E0002C08D0F2
:10151000DFF8040300680068002801D1012400E01E
:1015200000242200A91BDFF8E002006800F034FD6F
:10153000FFF7DEF800280BD15FF08050DFF8DC12F7
:101540000860BFF34F8FBFF36F8F01E0FFF7D0F854
:1015500073BD0100DFF8BC2210680068002801D1CB
:10156000012000E0002008600868002803D110680E
:10157000C068006800E00020704770B50400FFF705
:1015800029F90500DFF898623068854204D200F03E
:10159000D0F80120206001E00020206035602800A4
:1015A00070BD2DE9F04104000D0016001F005FF032
:1015B000000865602461AE420DD3F01BA16988422A
:1015C00002D30120804612E0211DDFF84C020068A2
:1015D000FFF781FD0BE0BE4204D2BD4202D30120E1
:1015E000804604E0211D8B480068FFF774FD4046EB
:1015F000BDE8F081F8B586B0002201A982480068F4
:1016000000F041FB002800F09280019800280ED5E0
:1016100002AD002D07D1202080F31188BFF34F8F3A
:10162000BFF36F8FFEE7A96868682A689047019842
:101630000028E1D4039806007069002802D0301D0C
:10164000FFF764FD05A8FFF798FF07000198002841
:101650000ED002280CD00BD304283DD035D3062859
:1016600006D054D3082830D002D3092834D05DE006
:1016700096F8280050F0010086F82800029B3A00F6
:101680000299B06941183000FFF78BFF00281BD08A
:101690003000316A884796F82800400714D50020AA
:1016A00000900023029AB069821800213000FFF7F1
:1016B00092FE0400002C07D1202080F31188BFF394
:1016C0004F8FBFF36F8FFEE796E796F8280010F074
:1016D000FE0086F828008FE796F8280050F00100F9
:1016E00086F828000298B061B069002807D1202050
:1016F00080F31188BFF34F8FBFF36F8FFEE73B007E
:101700003A00B169C9193000FFF74BFF74E796F84A
:101710002800800703D43000FFF7E2FB05E096F8CD
:10172000280010F0FE0086F8280065E764E707B09F
:10173000F0BD2DE9FC41DFF8DC80D8F8000000683E
:10174000002834D0D8F80000C06800680500D8F838
:101750000000C068C0680700381DFFF7D7FC3800DC
:10176000396A884797F828004007E4D5B8694019D6
:101770000600B54207D27E603F61391DD8F80000EF
:10178000FFF7A9FCD7E70020009000232A000021E2
:101790003800FFF720FE0400002C07D1202080F342
:1017A0001188BFF34F8FBFF36F8FFEE7C3E7D8F801
:1017B000000019490A68C8F800200860BDE8F381F4
:1017C00070B5FFF747FD104C2068002818D1154D63
:1017D0002800FFF762FC144E3000FFF75EFC0D4856
:1017E00005600D480660002210210A2000F0C2F8B2
:1017F00020602068002803D00C49206800F0B7FB67
:10180000FFF742FD70BD0000982A00209C2A0020AE
:10181000CC740000902A0020942A002004ED00E0FF
:10182000A02A0020682A00207C2A0020D47400000E
:10183000EFF30980BFF36F8F264B1A681EF0100F6D
:1018400008BF20ED108A20E9F04F106009B44FF076
:10185000200080F31188BFF34F8FBFF36F8FFFF726
:1018600036F84FF0000080F3118809BC1968086849
:10187000B0E8F04F1EF0100F08BFB0EC108A80F3F4
:101880000988BFF36F8F7047124B19680868B0E87A
:10189000F04F80F30988BFF36F8F4FF0000080F3A3
:1018A000118870470C480068006880F308884FF082
:1018B000000080F3148862B661B6BFF34F8FBFF3A8
:1018C0006F8F00DFDFF81400016841F470010160E0
:1018D000704700003C29002008ED00E088ED00E0A2
:1018E00070B506000C003500002D07D1202080F3D4
:1018F0001188BFF34F8FBFF36F8FFEE7FFF7AAFC8E
:101900002968EA6B286C424301EB0200A8600020C2
:10191000A863286868602968EA6B521E286C4243F5
:1019200001EB0200E8605FF0FF3085F8440085F8C5
:101930004500002C12D12869002817D015F110009D
:10194000FFF742F8002811D05FF08050DFF8A014B4
:101950000860BFF34F8FBFF36F8F07E015F11000E2
:10196000FFF79BFB15F12400FFF797FBFFF78CFCBB
:10197000012070BD2DE9F84304000D001700002C74
:1019800007D1202080F31188BFF34F8FBFF36F8FF3
:10199000FEE7002D02D15FF0000901E005FB04F92C
:1019A00019F15000FFF70CFA0600002E0AD03000A3
:1019B0005030804600963B00DBB2424629002000B2
:1019C00000F003F83000BDE8F2832DE9F041050096
:1019D0000C0016001F00DDF81880002C02D1C8F89A
:1019E000008001E0C8F80060C8F83C50C8F84040EA
:1019F00001214046FFF774FF88F84C70BDE8F08184
:101A00002DE9F74380460D00994600244646002EF6
:101A100007D1202080F31188BFF34F8FBFF36F8F62
:101A2000FEE7002D02D1306C002801D1012000E03A
:101A30000020C0B2002807D1202080F31188BFF316
:101A40004F8FBFF36F8FFEE7B9F1020F02D1F06B3A
:101A5000012801D1012000E00020C0B2002807D1F8
:101A6000202080F31188BFF34F8FBFF36F8FFEE705
:101A7000FFF7C4F8002802D10298002801D1012004
:101A800000E00020C0B2002807D1202080F3118898
:101A9000BFF34F8FBFF36F8FFEE7FFF7DBFBB06B3A
:101AA000F16B884202D3B9F1020F27D14A462900CF
:101AB000300000F09FF90700706A00280FD016F17F
:101AC0002400FEF781FF002814D05FF08050DFF87B
:101AD00020130860BFF34F8FBFF36F8F0AE0002F12
:101AE00008D05FF08050DFF808130860BFF34F8F15
:101AF000BFF36F8FFFF7C8FB012052E00298002868
:101B000003D1FFF7C1FB00204BE0002C04D1684655
:101B1000FEF79EFF01200400FFF7B6FBFEF7E2FD93
:101B2000FFF798FB96F9440010F1010F02D1002055
:101B300086F8440096F9450010F1010F02D100200B
:101B400086F84500FFF7A0FB02A96846FEF78EFF66
:101B5000002820D1300000F0FBF9002815D00299B0
:101B600016F11000FEF7E9FE300000F0ACF9FEF7C8
:101B7000BFFD002891D15FF08050DFF8741208603B
:101B8000BFF34F8FBFF36F8F87E7300000F09BF9F3
:101B9000FEF7AEFD81E7300000F095F9FEF7A8FDF5
:101BA0000020BDE8FE832DE9F04707000C0015007A
:101BB00098463E00002E07D1202080F31188BFF305
:101BC0004F8FBFF36F8FFEE7002C02D1306C0028DF
:101BD00001D1012000E00020C0B2002807D1202060
:101BE00080F31188BFF34F8FBFF36F8FFEE7B8F11B
:101BF000020F02D1F06B012801D1012000E000208A
:101C0000C0B2002807D1202080F31188BFF34F8F86
:101C1000BFF36F8FFEE7FFF761FBEFF31189202021
:101C200080F31188BFF34F8FBFF36F8FB06BF16BF1
:101C3000884202D3B8F1020F20D196F945A042465E
:101C40002100300000F0D6F850465FF0FF3140B27E
:101C500088420DD1706A00280ED016F12400FEF7DC
:101C6000B3FE002808D0002D06D00120286003E034
:101C70001AF1010086F84500012000E0002089F3F8
:101C80001188BDE8F0872DE9F64182B080460E004C
:101C900000244746002F07D1202080F31188BFF38E
:101CA0004F8FBFF36F8FFEE7002E02D1386C0028F4
:101CB00001D1012000E00020C0B2002807D120207F
:101CC00080F31188BFF34F8FBFF36F8FFEE7FEF7EE
:101CD00095FF002802D10398002801D1012000E0DF
:101CE0000020C0B2002807D1202080F31188BFF364
:101CF0004F8FBFF36F8FFEE7FFF7ACFABD6B002D80
:101D00001BD03100380000F0C3F8681EB863386992
:101D100000280ED017F11000FEF756FE002808D05C
:101D20005FF08050DFF8C8100860BFF34F8FBFF33B
:101D30006F8FFFF7A9FA012057E00398002803D11D
:101D4000FFF7A2FA002050E0002C04D16846FEF70D
:101D50007FFE01200400FFF797FAFEF7C3FCFFF7B0
:101D600079FA97F9440010F1010F02D1002087F8A9
:101D7000440097F9450010F1010F02D1002087F8C7
:101D80004500FFF781FA03A96846FEF76FFE0028B9
:101D900020D1380000F0CEF8002815D0039917F1B3
:101DA0002400FEF7CAFD380000F08DF8FEF7A0FC15
:101DB0000028A1D15FF08050DFF834100860BFF335
:101DC0004F8FBFF36F8F97E7380000F07CF8FEF776
:101DD0008FFC91E7380000F076F8FEF789FC3800B8
:101DE00000F0A8F8002887D0002004B0BDE8F081FA
:101DF00004ED00E02DE9F84F06000F0014005FF03D
:101E00000008B56B306C002809D1306800283AD141
:101E1000B068FEF707FF80460020B06033E0002C7A
:101E200014D1D6F84090BA46D6F804B04A46514686
:101E3000584600F0D7F87068316C084470607068DC
:101E4000B16888421FD3306870601CE0D6F84090BB
:101E5000BA46D6F80CB04A465146584600F0C2F889
:101E6000F068316C49420844F060F068316888429B
:101E700004D2B068316C49420844F060022C02D1AF
:101E8000002D00D06D1E681CB0634046BDE8F28F87
:101E90002DE9F04104000D00206C002811D0E0680D
:101EA000216C0844E060E068A168884201D32068A2
:101EB000E060266CE768A84632003900404600F032
:101EC00091F8BDE8F081F8B50400FFF7C3F994F983
:101ED0004550280040B201280CDB606A002809D078
:101EE00014F12400FEF770FD002801D0FEF705FE76
:101EF0006D1EEEE75FF0FF3684F84560FFF7C4F92A
:101F0000FFF7A8F994F94470380040B201280CDBBF
:101F10002069002809D014F11000FEF755FD0028B3
:101F200001D0FEF7EAFD7F1EEEE784F84460FFF77C
:101F3000ABF9F1BD38B50400FFF78CF9A06B0028B0
:101F400001D1012500E00025FFF79EF9280032BDF0
:101F500038B50400FFF77EF9A06BE16B884201D130
:101F6000012500E00025FFF78FF9280032BD10B4ED
:101F70000023082B0CD2074C54F83320002A05D13B
:101F800044F8331004EBC302506001E05B1CF0E73F
:101F900010BC7047FC280020F8B504000D001600A6
:101FA0002700FFF757F997F9440010F1010F02D10C
:101FB000002087F8440097F9450010F1010F02D185
:101FC000002087F84500FFF75FF9B86B002805D1BE
:101FD0003200290017F12400FEF7D4FC3800FFF787
:101FE00072FFF1BD62B38B0708D0521E11F8013B9E
:101FF00000F8013B00F024808B07F6D1830740F006
:10200000208000BF103A07D330B4B1E83810103A3E
:10201000A0E83810F9D230BC530724BFB1E808104B
:10202000A0E8081044BF51F8043B40F8043BD20735
:1020300024BF31F8022B20F8022B44BF0B78037029
:102040007047121F17D35B0009D151F8043B20F8E9
:10205000023B1B0C121F20F8023BF6D20BE051F89A
:10206000043B00F8013B1B0A20F8023B1B0C121F2B
:1020700000F8013BF3D238BF121D521E24BF11F8E5
:10208000013B00F8013BF8D8704730B4002513E05D
:1020900050F8042BD30744BFA9F101039A18091F74
:1020A000042942F8045BFAD213468C0744BF15801A
:1020B0009B1CC90748BF1D7050F8041B0029E7D1BD
:1020C00030BC7047DFF86C1911EB10410A6801232E
:1020D00083401A430A60704738B505000024002C7D
:1020E00007D1DFF8540950F82400A84201D0641C3D
:1020F000F5E7002C08D03722DFF84019DFF8400957
:1021000000F0B0FCAFF30080200032BDF8B5050050
:102110000E001400002C08D14922DFF82019DFF846
:10212000240900F09FFCAFF300806079022805D1FC
:102130003000C0B2002801D10120B4E0607A01284B
:1021400005D13000C0B2002801D10120ABE0280049
:10215000FFF7C2FFDFF8F018000108443100C9B2F0
:1021600050F82100FFF7AEFFB5F88E0150F00F00D8
:10217000A5F88E0160213000C0B24843284482880F
:1021800012F4E652607910F00300E37ADB0013F0FA
:102190003803184323791B0213F440731843237840
:1021A00050EAC330637850EA8330637A9B0013F0BF
:1021B000040318430243E079002803D002280ED01C
:1021C00003D316E052F4005213E0B5F8883101272A
:1021D00016F10C008740BB43A5F8883109E0B5F83B
:1021E0008831012716F10C0087403B43A5F8883160
:1021F000FFE73000C0B24843284482803000C0B2BC
:1022000048432844C38840F68B700340A0790001FE
:1022100010F07000A77A50EA07300343207A0028B4
:1022200005D002280CD005D303280FD013E053F0BB
:10223000040310E053F400634FF6FF3003400AE05C
:102240004FF2FF70034053F4806304E053F40063E3
:1022500053F48063FFE73000C0B248432844C38092
:10226000B5F89001000605D0B5F8900110F47F4054
:10227000A5F89001A278120212F4E062E07802431D
:10228000A5F89021E07A00280CD13000C0B2484374
:1022900028443200D2B201FB02F12944898851F06E
:1022A000400181800020F2BDF8B50400002C08D167
:1022B000D522DFF88817DFF88C0700F0D3FBAFF3E7
:1022C00000800C2500262700320029003800FEF788
:1022D000B1FE00202070002060700020607200209D
:1022E000A0700020E070002060710020A07100202C
:1022F00020710020E0720020A072002020720020D7
:10230000E071F1BD2DE9FE4F05000E001400002C18
:1023100009D140F21112DFF82417DFF8300700F07E
:10232000A1FBAFF300800D98002809D14FF489720A
:10233000DFF80817DFF8180700F094FBAFF3008010
:102340009DF80800002809D140F21312DFF8EC16BE
:10235000DFF8000700F086FBAFF300800E9800283E
:1023600009D14FF48A72DFF8D416DFF8EC0600F0DA
:1023700079FBAFF300805FF0000A00210022002308
:1023800000279DF80800032801DB0120E0E15FF051
:1023900060085FF001090E98B4465FFA8CFC08FBF8
:1023A0000CFCAC44BCF806C0CCF3021C19FA0CFCC3
:1023B000B0FBFCF000900098DDF834C0B0FBFCFCF2
:1023C0005FF0000E70469DF808A0C0B2504580F046
:1023D000BE81E2461FFA8AFA607800FB0AFA64209E
:1023E0009AFBF0F001009DF83000002807D0022889
:1023F00000F0C8805FD3032800F0128151E16046ED
:1024000080B2400802003000C0B208FB00F028444F
:1024100092460FFA8AFADAF1000AA0F802A0300018
:10242000C0B208FB00F028445FF0000AA0F80AA040
:102430003000C0B208FB00F02844C2812078012897
:102440001CD13000C0B208FB00F028448A461FFAB5
:102450008AFA7FF0010B9AFBFBFAA0F812A0300079
:10246000C0B208FB00F028448A461FFA8AFA5FF0DF
:10247000020B9AFBFBFAA0F816A01BE03000C0B2DA
:1024800008FB00F028448A461FFA8AFA7FF0010B05
:102490009AFBFBFAA0F81AA03000C0B208FB00F0CB
:1024A00028448A461FFA8AFA5FF0020B9AFBFBFA6D
:1024B000A0F81EA0F5E03000C0B208FB00F02844F0
:1024C0005FF0000AA0F802A03000C0B208FB00F0E4
:1024D0002844E2461FFA8AFA5FF0020B9AFBFBFAE5
:1024E000A0F80AA03000C0B208FB00F02844A0F811
:1024F0000EC02078012822D13000C0B208FB00F0C5
:1025000005EB000AE3461FFA8BFB080080B2BBEB29
:10251000000B02209BFBF0F0AAF812003000C0B2C2
:1025200008FB00F028448A461FFA8AFA1AFA8CFA45
:102530005FF0020B9AFBFBFAA0F816A021E0300036
:10254000C0B208FB00F005EB000AE3461FFA8BFB64
:10255000080080B2BBEB000B02209BFBF0F0AAF856
:102560001A003000C0B208FB00F028448A461FFA67
:102570008AFA1AFA8CFA5FF0020B9AFBFBFAA0F8BF
:102580001EA08EE0604680B2400802003000C0B25B
:1025900008FB00F0284492460FFA8AFADAF1000AA2
:1025A000A0F802A03000C0B208FB00F028445FF0A1
:1025B000000AA0F80AA03000C0B208FB00F02844CE
:1025C000C2812078012815D13000C0B208FB00F08C
:1025D000284492460FFA8AFADAF1000AA0F812A00B
:1025E0003000C0B208FB00F02844B1EB020AA0F8AA
:1025F00016A014E03000C0B208FB00F02844924658
:102600000FFA8AFADAF1000AA0F81AA03000C0B274
:1026100008FB00F02844B1EB020AA0F81EA040E03D
:102620003000C0B208FB00F028445FF0000AA0F8B8
:1026300002A03000C0B208FB00F02844E2461FFAB6
:102640008AFA5FF0020B9AFBFBFAA0F80AA03000AE
:10265000C0B208FB00F02844A0F80EC02078012882
:102660000FD13000C0B208FB00F028445FF0000A30
:10267000A0F812A03000C0B208FB00F02844C182CC
:102680000EE03000C0B208FB00F028445FF0000A02
:10269000A0F81AA03000C0B208FB00F02844C183A3
:1026A000FFE7207801280DD10A2003000820070049
:1026B0003000C0B208FB00F02844B4F804A0A0F831
:1026C00030A00CE009200300042007003000C0B255
:1026D00008FB00F02844B4F804A0A0F832A0A078C9
:1026E000002813D13000C0B208FB00F005EB000A4F
:1026F0003000C0B208FB00F02844B0F822B019FA4C
:1027000003F03BEA000BAAF822B012E03000C0B29E
:1027100008FB00F005EB000A3000C0B208FB00F037
:102720002844B0F822B019FA03F050EA0B0BAAF8CB
:1027300022B0B5F8800116EB070A19FA0AFA5AEA2C
:102740000000A5F88001A41D1EF1010E3AE600204C
:10275000BDE8FE8F2DE9F84305000E0017009846EE
:10276000089C2000C0B2652809DB40F2BF12DFF8E8
:10277000CC12DFF8E80200F075F9AFF30080380002
:10278000C0B2022809DB4FF4E072DFF8B012DFF8C4
:10279000D00200F067F9AFF300800021002200238F
:1027A0004046C0B2002807D0022800F0BD805BD3AD
:1027B000032800F003813BE15FF0600C3000C0B201
:1027C0000CFB00F02844B0F90E0003009BB2580047
:1027D00001008E461FFA8EFE2000C0B200FB0EFEE6
:1027E00064209EFBF0F002003800C0B201281DD129
:1027F0003000C0B20CFB00F0284496461FFA8EFE53
:102800007FF001099EFBF9FEA0F812E03000C0B293
:102810000CFB00FC05EB0C0094461FFA8CFC5FF0EF
:10282000020E9CFBFEFCA0F816C01CE03000C0B2FB
:102830000CFB00F0284496461FFA8EFE7FF001093B
:102840009EFBF9FEA0F81AE03000C0B20CFB00FCC1
:1028500005EB0C0094461FFA8CFC5FF0020E9CFB0B
:10286000FEFCA0F81EC0E3E05FF0600C3000C0B2D8
:102870000CFB00F02844C08901008E461FFA8EFE32
:102880002000C0B200FB0EFE64209EFBF0F00200B0
:102890003800C0B2012823D13000C0B20CFB00F0D8
:1028A00005EB000E89461FFA89F9100080B2B9EBDA
:1028B0000009022099FBF0F0AEF812003000C0B21F
:1028C0000CFB00FC05EB0C0094461FFA8CFC1CFA78
:1028D00081FC5FF0020E9CFBFEFCA0F816C022E01B
:1028E0003000C0B20CFB00F005EB000E89461FFA69
:1028F00089F9100080B2B9EB0009022099FBF0F0D1
:10290000AEF81A003000C0B20CFB00FC05EB0C0066
:1029100094461FFA8CFC1CFA81FC5FF0020E9CFBB3
:10292000FEFCA0F81EC083E05FF0600C3000C0B277
:102930000CFB00F02844B0F90E0003009BB25800D5
:1029400001008E461FFA8EFE2000C0B200FB0EFE74
:1029500064209EFBF0F002003800C0B2012816D1BE
:102960003000C0B20CFB00F028449E460FFA8EFEE9
:10297000DEF1000EA0F812E03000C0B20CFB00FC4B
:1029800005EB0C00B2EB030CA0F816C015E030000C
:10299000C0B20CFB00F028449E460FFA8EFEDEF11A
:1029A000000EA0F81AE03000C0B20CFB00FC05EBF2
:1029B0000C00B2EB030CA0F81EC039E05FF0600C15
:1029C0003000C0B20CFB00F02844C08901008E46E4
:1029D0001FFA8EFE2000C0B200FB0EFE64209EFB9C
:1029E000F0F002003800C0B2012810D13000C0B2AF
:1029F0000CFB00F028445FF0000EA0F812E030005D
:102A0000C0B20CFB00FC05EB0C00C2820FE03000F2
:102A1000C0B20CFB00F028445FF0000EA0F81AE0F2
:102A20003000C0B20CFB00FC05EB0C00C283FFE7DA
:102A3000BDE8F1830070044024760000506B000074
:102A4000186D00006474000068720000CC73000010
:102A5000D8730000E4730000F0730000C070000041
:102A60005872000070B504000D00160033002A00F3
:102A70002100024800F0C0F800BEFDE7F86D00003C
:102A800070B505000C0043F22156002D07D140F22D
:102A9000D1126A496A48FFF7E5FFAFF30080002CC6
:102AA00007D14FF4E97265496648FFF7DBFFAFF3E2
:102AB000008022002900644800F0CCF9002801D0F1
:102AC0005FF0FF34200070BD2DE9F04104000D00DF
:102AD00016001F0000205FF00008B84511DA2868D2
:102AE000401C802805D329682000FFF7C9FF00207B
:102AF0002860286826542868401C286018F10108BE
:102B0000EBE7BDE8F0812DE9F14F88B00E0017002A
:102B1000984643F2215568464C491022FFF772FA55
:102B2000CDF8008001969DF820008DF80A008DF800
:102B300018703800C0B2012818D1684607905FF0BD
:102B40001C0A5FF0000BDFF808914C465A465146CC
:102B50002000FEF76FFAC9F8109004A9D9F8100008
:102B600000F0E9F80400002C14D11BE03800C0B2DA
:102B7000022801D128003CE03800C0B2032801D16E
:102B8000280036E03800C0B2042801D1280030E027
:102B900028002EE04FF4337228492E48FFF762FFD9
:102BA000AFF3008019F11401D9F8100000F0F8F823
:102BB0000500002D07D040F2D62220492548FFF716
:102BC00051FFAFF3008019F11801D9F8100000F09F
:102BD00012F90400002C07D040F2E12217491D48E9
:102BE000FFF740FFAFF30080D9F810001A490860E2
:102BF000002009B0BDE8F08F0EB42DE9F841A0B077
:102C00000400002500266846802100F03DF91248A6
:102C10000068002801D100200BE027AF0F4B6A4667
:102C20003900200000F093F9804641466846FFF7DE
:102C300027FF21B0BDE8F0015DF810FB9C630000A8
:102C40005C740000A873000034000020487200008B
:102C500020000020786E00003C000020C92A0000FF
:102C600070B505000C001600002C01D100200BE00F
:102C7000012D04D0022D02D05FF0FF3004E03100BE
:102C80002000FFF7FDFE300070BD00002DE9F0418F
:102C900005000C0016001F0043F221508046002C56
:102CA0000BD0297B012907D13A00310015F108002A
:102CB00000F0ADFA804600E08046404600B2BDE834
:102CC000F0812DE9F04107000E001500002F09D119
:102CD00040F20632DFF89011DFF89001FFF7C2FEF4
:102CE000AFF30080002E07D140F207325E49604802
:102CF000FFF7B8FEAFF30080002D07D14FF442720A
:102D000059495C48FFF7AEFEAFF30080B846D8F8EB
:102D10000040002C07D140F20D3253495648FFF7CE
:102D2000A1FEAFF300802B00320041462000FFF7E8
:102D3000ADFFBDE8F0812DE9F04704000D0043F23E
:102D40002156002D07D140F2293247494C48FFF760
:102D500089FEAFF30080002C07D140F22E324249A9
:102D60004848FFF77FFEAFF3008027005FF01008B0
:102D70005FF00009BA464A4641465046FEF75AF906
:102D8000287A3873287A012806D1E96817F10800F3
:102D900000F006FA0600FFE7300000B2BDE8F08759
:102DA0002DE9F04705000C00002D07D140F2DB3281
:102DB0002D493448FFF756FEAFF30080002C07D1B1
:102DC0004FF4777228492948FFF74CFEAFF3008093
:102DD0002E0027005FF004085FF00009A2464A4673
:102DE00041465046FEF726F97068401C70603E6010
:102DF0000020BDE8F0872DE9F04705000C00002D0C
:102E000007D140F20C4218491E48FFF72BFEAFF3E2
:102E10000080002C07D140F20D4213491748FFF7FC
:102E200021FEAFF300802E0027003068002802D07A
:102E300043F222500CE05FF004085FF00009A24664
:102E40004A4641465046FEF7F5F837603E6000209E
:102E5000BDE8F08770B504000D00160032002900AF
:102E60002000FFF72EFF70BD3465000020740000C5
:102E7000947400009C740000A47400002C74000082
:102E8000AC74000048730000002200F0F3B92DE993
:102E9000F04F84460D001400099E0020E2465FF0CA
:102EA000000B8AF800B01AF1010A002C24D0D5F8E2
:102EB00000B05946002905D15FF0300B8AF800B008
:102EC000401C42E0002940D091FBF3FBDE4603FBAF
:102ED0001E1BBBF1000F05D55F467FEA070919F1FC
:102EE000310902E0D94619F1300971468AF800909B
:102EF0001AF1010A401CE5E7D5F800B05A46002A4D
:102F000005D15FF0300B8AF800B0401C1DE0002AAC
:102F10001BD0B2FBF3FBD84603FB182BBBF10A0F07
:102F200002D25F46303709E03700FFB2002F01D0F0
:102F3000412700E061270A3F17EB0B0742468AF85A
:102F400000701AF1010A401CE1E7BDE8F08F2DE99D
:102F5000F54F91B08B461F0000265FF0000800205F
:102F6000029000208DF8040000200490DDF844A0B9
:102F70009AF800000500002D00F00D81252D07D0E6
:102F8000012328000200D2B202A91298B847FFE03C
:102F900001208DF805000020814600200390039851
:102FA000002813D11AF1010A9AF800000500302D0B
:102FB00007DB3A2D05DA0A21B5F1300001FB0909DA
:102FC000EDE7BAF1010A01200390E8E70620059039
:102FD0001AF1010108782E2819D10020059000204F
:102FE00003900398002813D1491C08780500302D60
:102FF00009DB3A2D07DA059A0A23B5F1300003FB05
:1030000002020592EDE7491E01200390E9E7491EFF
:1030100011F1010A9AF800000500642D11D0692D04
:103020000FD0662D0DD0462D0BD0782D09D0582D00
:1030300007D06F2D05D0622D03D0702D01D0752DD6
:1030400072D1642D01D0692D11D1DBF800001BF184
:10305000040B06909DF8050000900A23012206A9A2
:1030600008A8FFF714FF804608A840440600582D22
:1030700001D0782D16D1782D02D100208DF80500D1
:10308000DBF800001BF1040B04909DF80500009094
:103090001023002204A908A8FFF7F9FE804608A81B
:1030A000404406006F2D05D0622D03D0702D01D055
:1030B000752D27D1DBF800001BF1040B04906F2D58
:1030C00003D108208DF804000EE0622D03D1022008
:1030D0008DF8040008E0702D03D110208DF8040055
:1030E00002E00A208DF804009DF8050000909DF88C
:1030F0000430002204A908A8FFF7C9FE804608A8EA
:1031000040440600B9EB0803202202A91298B847F0
:10311000002E3DD0307800283AD00123327802A921
:103120001298B847761EF5E7632D0DD1DBF8000045
:103130001BF1040BC0B20790012307980200D2B222
:1031400002A91298B84723E0732D1AD1DBF80000CA
:103150001BF1040B0400002C1AD0200000F0A4F88E
:103160008046B9EB0803202202A91298B8472078BC
:1031700000280DD00123227802A91298B847641CB8
:10318000F5E7012328000200D2B202A91298B8473D
:103190001AF1010AECE6029813B0BDE8F08FFEE7E1
:1031A000F8B584B004000D00002D06D18B222C4907
:1031B0002C48FFF757FCAFF30080002C06D18C227F
:1031C00027492948FFF74EFCAFF300802E00270067
:1031D00070680190307A8DF80800707A8DF80900D7
:1031E000F07A8DF80A00307B8DF80B003068009083
:1031F000B07A8DF80C006946380000F079F80028A4
:1032000002D043F2215000E0002005B0F0BDF8B537
:1032100006000D001400002E07D140F20B121049D9
:103220001148FFF71FFCAFF30080002D07D14FF4CA
:1032300086720B490D48FFF715FCAFF30080002C98
:1032400007D140F20D1206490948FFF70BFCAFF316
:103250000080370022002900380000F0BFF8F2BDDE
:10326000BC6500005873000068730000B47400006F
:10327000BC74000000B500BF130096469446103998
:1032800028BFA0E80C50FAD85FEA417C28BF0CC0E8
:1032900048BF40F8042BC90728BF20F8022B48BFBD
:1032A00000F8012B00BDFEE700F10103810704D007
:1032B00010F8011B820781B1FAD10268A2F1013135
:1032C000914311F0803104BF50F8042FF6E709BA9A
:1032D000B1FA81F100EBD100401CC01A7047FEE743
:1032E0000100002901D1002001E042F6AF707047D3
:1032F0007FB504000D00002C06D1DE224E494F4858
:10330000FFF7B0FBAFF30080002D06D1DF224A4962
:103310004B48FFF7A7FBAFF30080287B022806D3BA
:10332000E02245494748FFF79DFBAFF30080464E3A
:10333000287B56F82000002806D1E1223E49434868
:10334000FFF790FBAFF30080684600F08DF96868E6
:103350000090287A012803D102208DF8040009E0AA
:10336000287A022803D103208DF8040002E000200F
:103370008DF80400687A012803D101208DF805003A
:1033800002E000208DF80500A87A002801D0012075
:1033900000E000208DF80C00E87A002801D0012020
:1033A00000E000208DF80B0000208DF806000120C1
:1033B0008DF807002A686946287B56F8200000F03F
:1033C00070F80600002E03D03000FFF789FF03E0FD
:1033D0002100287B0870002004B070BDF8B50600FD
:1033E0000D001400002E07D14FF4A87212491348A3
:1033F000FFF738FBAFF30080002D07D140F25112E8
:103400000D491348FFF72EFBAFF30080002C07D1C6
:103410004FF4A97208490F48FFF724FBAFF300806F
:1034200037002200290008483B7850F8230000F0BC
:1034300054F90020F2BD000044660000DC74000076
:10344000E4740000186C0000FC740000806F000041
:10345000EC740000F4740000DFF8001311EB10416D
:103460000A68012383401A430A60704770B504005C
:1034700002260025B54207D2DFF8E40250F8250005
:10348000A04201D06D1CF5E7B54208D38D22DFF8CC
:10349000D412DFF8D402FFF7E5FAAFF3008028007A
:1034A00070BD2DE9F84F05000C001600002C08D166
:1034B000D422DFF8B012DFF8B402FFF7D3FAAFF38B
:1034C00000802068002808D1D522DFF89812DFF8A4
:1034D000A002FFF7C7FAAFF30080DFF89872BD4291
:1034E00001D1082007E0DFF89002854201D10120D8
:1034F00001E05FF0FF30A179884208DAD722DFF8D7
:103500006412DFF87802FFF7ADFAAFF30080BD4236
:1035100001D1082007E0DFF86002854201D10120D7
:1035200001E05FF0FF30E179884208DAD822DFF865
:103530003412DFF84C02FFF795FAAFF30080002158
:103540000027002022681201B6FBF2F8424692B230
:10355000002A01D101218846002172002368B2FBB4
:10356000F3F9424692B2B9EB4219720043469BB25C
:103570005B0113FA89F3B2FBF3FA2268524504D2D5
:10358000D4F800B0BAEB0B0B03E0D4F800B0BBEBFF
:103590000A0B20686421B0FBF1F103204143594537
:1035A00002D240F2F5305DE02800FFF75FFFDFF860
:1035B0000C1251F82000FFF74FFFE87810F0F300ED
:1035C000E870297811F0E001404680B2000A01431A
:1035D000297085F80180A97A11F0E00119F01F0027
:1035E0000143A972A97811F0E801A07A800010F0D7
:1035F000040001432079002803D0207950F0100006
:103600000143A970287810F0DF006279520112F0AE
:10361000200210432870A079E874E0796875287C4E
:1036200050F088002874687C50F0C0006874207ADC
:10363000002803D0687B50F008006873607A002887
:1036400003D0687B50F001006873EA78E07A0028C4
:1036500001D052F00802207B002801D052F0040271
:10366000EA700020BDE8F28FF8B50400002C09D103
:1036700040F28B12DFF8EC10DFF8F000FFF7F2F900
:10368000AFF3008010250026270032002900380003
:10369000FDF7D0FC5FF4E1302060002020710020B5
:1036A00060710020A0710120E071002020720020D4
:1036B00060720020A0720020E07200202073F1BD33
:1036C00001000879C0B24A7950EA02200A7B50EA28
:1036D00002408A7C50EA0260704713005A1E002B99
:1036E00006D003791B06FCD50B78C371491CF4E79F
:1036F0007047F8B505000C001700002C09D140F206
:10370000EE22DFF86010DFF8B800FFF7ABF9AFF397
:1037100000803800471E00281ED0A87D002817D141
:103720002800FFF7CDFF0600300702D540F2F13048
:1037300013E0700702D540F2F2300EE0B00702D578
:1037400040F2F33009E0F007E7D54FF47D7004E074
:10375000E8792070641CDCE70020F2BD00700440B2
:103760007C740000F46900005C7000006C74000060
:10377000D870000000A0064000B00640246400009D
:10378000AC64000080B50F48016810480E4A12680A
:103790009047BFF34F8F01BD80B5FFF7F3FFBFF335
:1037A0004F8F01BD80B5074841680948064A126835
:1037B0009047BFF34F8F01BD0000000084740000EC
:1037C00074740000A4000020AC00002000A006409B
:1037D00000B0064080B5FFF7E5FFBFF34F8F01BD96
:1037E000DFF8701611EB10410A68012383401A4379
:1037F0000A60704738B505000024002C07D1DFF8B7
:10380000580650F82400A84201D0641CF5E7002CAB
:1038100008D05C22DFF84416DFF84406FFF722F9EF
:10382000AFF30080200032BD38B505000C00002C3D
:1038300008D16E22DFF82416DFF82806FFF712F908
:10384000AFF300802800FFF7D5FFDFF81C1651F812
:103850002000FFF7C5FF29884FF6F8700140207857
:1038600010F00700014329806078002804D06888A0
:1038700050F04000688004E06A884FF6BF70024054
:103880006A80B5F89C2047F607400240A0880001F6
:1038900010F47C700243E078012802D152F4004217
:1038A00004E0E078022801D152F00802A5F89C203B
:1038B000A078012806D1B5F8A80050F04000A5F87E
:1038C000A80006E0B5F8A8104FF6BF700140A5F8B3
:1038D000A81031BDF8B50400002C08D1B322DFF8E0
:1038E0007C15DFF88005FFF7BDF8AFF300800625F3
:1038F00000262700320029003800FDF79BFB052039
:103900002070012060700020A0700020E0701A205C
:10391000A080F1BD38B505000C00002C08D1D822DC
:10392000DFF83815DFF83C05FFF79CF8AFF30080AF
:1039300069884FF6C0700140207810F03F000143C5
:103940006980B5F89E204CF6FF700240E0780128AF
:1039500001D152F400522079012801D152F4805251
:10396000A5F89E20B5F8A6104FF6FC700140A0788F
:1039700010F003000143A5F8A610B5F8A8304FF6E3
:10398000F8700340A07910F007000343A5F8A830B1
:1039900031BD38B505000C00002C08D1FA22DFF843
:1039A000BC14DFF8C004FFF75DF8AFF30080B5F892
:1039B0009E108904890CE078012801D151F400415E
:1039C0002079012801D151F48041A5F89E10B5F865
:1039D000A6204CF2F30002402088000210F47C5034
:1039E000A3789B0013F00C0318430243A5F8A6200C
:1039F000B5F8A8304FF6C7700340E088C00010F05B
:103A000038000343A5F8A83031BD70B505000E009D
:103A10001400002C09D14FF48F72DFF84014DFF846
:103A20004404FFF71FF8AFF30080300080B2C007F6
:103A300003D521002800FFF76DFF300080B280071A
:103A400003D521002800FFF7A4FF70BDF8B50400DE
:103A5000002C09D14FF49E72DFF80014DFF8040443
:103A6000FFF700F8AFF3008008250026270032009A
:103A700029003800FDF7DEFA042020800020A07025
:103A80000020E070002020710020E080F1BD10B423
:103A90000B009BB2DB070DD51300DBB2002B05D06A
:103AA00004884BF6FF731C40048003E0038853F442
:103AB000804303800B009BB29B070DD51300DBB244
:103AC000002B05D044884BF6FF731C40448003E074
:103AD000438853F48043438010BC704710B40B00FC
:103AE0009BB2DB0711D51300DBB2002B07D0B0F877
:103AF0009C404FF6FE731C40A0F89C4005E0B0F8D7
:103B00009C3053F00103A0F89C300B009BB29B0744
:103B100011D51300DBB2002B07D0B0F89C404FF654
:103B2000FD731C40A0F89C4005E0B0F89C3053F0B9
:103B30000203A0F89C3010BC70470A0092B2D20772
:103B400003D5028852F4005202800A0092B2920712
:103B500003D5428852F40052428070470100002091
:103B60004A8A120401D550F008004A8A520401D54D
:103B700050F010004A8A120501D550F020004A8A00
:103B8000D20401D550F040004A8A520501D550F0C8
:103B900001004A8A920501D550F002004A8AD205F6
:103BA00001D550F00400B1F89C20520501D550F029
:103BB0008000B1F89C20120501D550F4807080B2CD
:103BC000704700220B009BB29B0601D552F40062A5
:103BD0000B009BB25B0601D552F4805242827047C3
:103BE00070B505000E001400002C07D140F2A3228E
:103BF0009A499C48FEF736FFAFF30080300080B250
:103C0000102807D34FF4297294499848FEF72AFFE9
:103C1000AFF300802088042805D32088082817D314
:103C200020880C2814D2A078002808D02A88904830
:103C300023885B0830F8130002432A8028E02A8892
:103C40008B4823885B0830F8130082432A801FE0EA
:103C50002088042802D32088082805D320880C282F
:103C600016D32088102813D2A078002808D06A889C
:103C70007F4823885B0830F8130002436A8007E01E
:103C80006A887B4823885B0830F8130082436A8087
:103C9000300080B2082811D2A88803233200D2B2A3
:103CA000520013FA02F230EA020223793000C0B265
:103CB000400083401A431100A98016E0300080B212
:103CC000102812D2083EE88803233200D2B25200F4
:103CD00013FA02F230EA020223793000C0B2400047
:103CE00083401A431100E9800836300080B204286E
:103CF00011D228890F233200D2B2920013FA02F2B5
:103D000030EA020223883000C0B2800083401A43A8
:103D10001100298146E0300080B2082813D2361FF6
:103D200068890F233200D2B2920013FA02F230EA0D
:103D3000020223883000C0B2800083401A43110081
:103D40006981361D2EE0300080B20C2813D2083E67
:103D5000A8890F233200D2B2920013FA02F230EA9D
:103D6000020223883000C0B2800083401A43110051
:103D7000A981083616E0300080B2102812D20C3E1D
:103D8000E8890F233200D2B2920013FA02F230EA2D
:103D9000020223883000C0B2800083401A43110021
:103DA000E9810C362089320092B205EB42029087FD
:103DB000E088320092B205EB4202A2F85C00608912
:103DC000320092B205EB4202A2F87C00208808285B
:103DD00013D2B5F8A00003232288D2B2520013FAFE
:103DE00002F230EA0202E3782088C0B24000834049
:103DF0001A431100A5F8A01017E02088102814D24B
:103E0000B5F8A20003232288083AD2B2520013FA6E
:103E100002F230EA0202E37820880838C0B240009B
:103E200083401A431100A5F8A210207B002807D078
:103E3000B5F8A4000122B2401043A5F8A40006E0A2
:103E4000B5F8A4000122B2409043A5F8A40070BDCB
:103E500000000000007004401C7600003C67000079
:103E6000A06C0000847300002076000068710000E0
:103E700028720000DFF890150A6860F393420A6028
:103E80007047037813F05F030A78134303704A788E
:103E9000920182707047027812F0F0020A430270B9
:103EA000704710B5DFF8D8442068002808D1D62222
:103EB000DFF8D014DFF85805FEF7D4FDAFF300802B
:103EC000206810BD10B5FFF7ECFF002824D0DFF804
:103ED000B8140978C1F3C202D040DFF83815097868
:103EE000C1F301131900C9B2002915D01100C9B2DC
:103EF0000029052904D9891F04D0491E06D009E0EC
:103F0000400909E01421B0FBF1F005E00C21B0FB01
:103F1000F1F001E00021080010BDDFF87004007826
:103F2000C00703D4DFF86804006808E0DFF8640421
:103F30000068DFF8E4140978C1F34201C840704713
:103F400080B5DFF848040078C0B2C0F30010002844
:103F500002D1FFF7B7FF02E0DFF83404006802BDCA
:103F600080B5FFF79EFF02BD010049F6980081422F
:103F700001D2002006E0DFF8A404814201D2012032
:103F800000E00220C0B2704710B5DFF80C040078E2
:103F9000000610D5DFF8E8432068002809D14FF467
:103FA000A772DFF8E013DFF86404FEF75BFDAFF300
:103FB0000080206800E0002010BD10B5DFF8D803B5
:103FC0000078000616D5DFF8B8432068002809D12C
:103FD00040F26112DFF8AC13DFF83004FEF742FD67
:103FE000AFF300802068DFF838140978C9B2890976
:103FF000C84000E0002010BD80B5DFF80C04006868
:10400000800C10F00300002802D003280AD00CE036
:10401000FFF7BAFFB0F5004F02D14FF4004000E0C7
:10402000002003E04FF47A7000E0002002BD80B56C
:1040300000F06AF8DFF838140968C1F30361491C1D
:10404000B0FBF1F002BD10B504002000C0B20028A2
:1040500016D0022829D0032827D004281AD00528F2
:104060002ED006283ED007283FD008282BD009287C
:104070002CD00A282DD00B282ED00E282FD037E098
:1040800000F042F8DFF8E8130968090F491CB0FB9B
:10409000F1F02EE000F038F8DFF8D4130968C1F32E
:1040A0000361491CB0FBF1F023E000F02DF8DFF8CC
:1040B000C0130968C1F30341491CB0FBF1F018E0DB
:1040C000FFF79AFF15E000F068F812E000F05AF8E8
:1040D0000FE000F035F80CE000F06EF809E04FF466
:1040E0007A7006E0FFF769FF03E0FFF74DFF00E09D
:1040F000002010BD10B504006068DFF8741308607C
:104100002078FFF7B7FE10BD10B5DFF87403007814
:10411000C0B2C0F38104002C07D0022C0BD007D30F
:10412000032C0BD100F048F809E000F009F806E094
:10413000FFF7F3FE03E0FFF7B4FE00E0002010BD40
:1041400080B5DFF8D0020078800704D4DFF83C02A5
:104150000078800601D5002013E0FFF7F1FE00286B
:104160000FD0DFF810231178C1F341111278D20972
:10417000DFF81033C9B203EB8101D2B231F812106B
:10418000484302BD80B5DFF800030078800701D402
:10419000002001E0FFF7C1FE02BD10B5FFF7D0FE21
:1041A0000400FFF7B1FFC008A04203D3002C01D0E8
:1041B000200000E0002010BD10B5DFF8D00100782D
:1041C000400601D4002020E0FFF7CAFE0400002CC6
:1041D00009D140F28222DFF8AC11DFF89C02FEF731
:1041E00041FCAFF30080DFF894020078C0B210F019
:1041F0000700401CB4FBF0F0DFF890120978C9B258
:1042000011F01F0110314843400810BD010000208B
:104210007047F0B50300DFF874412078C0F38105E2
:10422000267816F00106DFF8F0010778C7F3420799
:104230009446BE465FFA8CFC5FFA8EFEF44527D0AA
:10424000DFF844C29CF800C05FEA8C7C01D4012DE9
:1042500012D1B4465FFA8CFCBCF1010F0CD1DFF82F
:10426000B4C19CF800E01EF0FE0E8CF800E094F85B
:1042700000C05FEACC7CFAD490F800C01CF0D00CEF
:104280005FEA420E1EF00E0E5EEA0C0C80F800C0D3
:10429000DFF880C19CF800E01EF0FE0E11F0010076
:1042A00050EA0E0E8CF800E0DFF8DC0190F800C058
:1042B0001CF0FC0C53EA0C0C80F800C0012D01D05E
:1042C000980707D5207810F001008C465FFA8CFC27
:1042D0006045F7D10020F0BD38B50400002C09D1AD
:1042E0004FF45872DFF89C10DFF8A401FEF7BAFB18
:1042F000AFF300800020617811F007010843DFF878
:104300007C110870DFF88421137813F0E003A5789E
:1043100015F01F052B4313700A78237853F04003E0
:104320001A430A70DFF8581109784906FAD531BDE9
:1043300070B504002068FFF717FE0500DFF858602D
:1043400021793000FFF7A7FDDFF8C8100A7812F0D6
:10435000C302280110F030000243607902430A7062
:10436000A11D3000FFF78DFD6079002807D030785F
:10437000000604D5DFF8080100788007FAD570BD83
:104380001C000020B06700000040064006400640C8
:10439000000000200400002000500640F8B5050091
:1043A0000C00002C09D140F29262DFF8E810DFF82F
:1043B000E000FEF757FBAFF300801648017811F0DC
:1043C000FD010170DFF8C000017811F03B0151F0F0
:1043D000800101702A4E307810F01C000828F9D1B5
:1043E0002A4F387810F0BF00387030788006FCD43F
:1043F0002000FFF771FF387850F0400038703078B7
:104400008006FCD50020F2BD0070044090730000CF
:104410007C710000014006400840064001127A000D
:104420000250064070B505000E001400002C07D1A4
:1044300040F2AA7217491648FEF714FBAFF300804A
:104440002800C0B2FFF7E2FE21003000C0B2FFF743
:10445000A5FF0D48017811F03F0101700848007870
:10446000C0B2C0F381000328F8D1002070BD000065
:1044700044800440034006409C7300000440064012
:1044800006400640387200000040064005400640E5
:1044900054740000B0670000B0F888210B00DBB254
:1044A0001B0213F470631A43A0F88821704710B4FC
:1044B0001300DBB2002B09D0B0F888310C00E4B255
:1044C00014F00F042343A0F8883109E0B0F88831D4
:1044D0000C00E4B2240114F0F0042343A0F8883166
:1044E00010BC70470069C84010F00100704738B533
:1044F000DFF8284500202060DFF81C550321280044
:10450000FFF7F0FF002803D0206850F00100206082
:1045100002212800FFF7E6FF002803D0206850F0B2
:104520000200206001212800FFF7DCFF002803D0F3
:10453000206850F004002060206832BD3EB5DFF8EE
:10454000E044200000F09CFA40F2011540F21D12F8
:104550002900200000F09FFA4FF48F7229002000FC
:1045600000F099FA40F21F122900200000F093FA9F
:104570004FF490722900200000F08DFA6846FDF794
:1045800093FE01208DF8000002208DF80800002025
:104590008DF8070001208DF8000000208DF80B0039
:1045A000DFF880446A4600212000FDF7AFFD0128B6
:1045B00003D1DFF87404FEF71FFB00208DF805001F
:1045C00000208DF804006A4601212000FDF79EFDC1
:1045D000012803D1DFF85004FEF70EFB6A460221E2
:1045E0002000FDF793FD012803D1DFF83C04FEF71E
:1045F00003FB00F005F8DFF83404FEF7FDFA37BDE1
:10460000F8B586B040F6B8340420FFF71CFD05006D
:1046100040F28A20A0FB0501DFF81424002300F0FB
:1046200067FA060001208DF80C0003A800218170B4
:1046300032214170868000208DF8120000208DF814
:10464000140032208DF81300ADF81660DFF8D47333
:104650000295019403200090022303AA0021380050
:10466000FDF750FE0295019403200090022303AA57
:1046700001213800FDF746FE0295019403200090C9
:10468000022303AA02213800FDF73CFE07B0F0BD6B
:1046900038B5040000200090DFF8980390F900007E
:1046A000012801D1D4F10704DFF88C532100280040
:1046B000FEF7A2FA012C09D04AD3032C1CD010D348
:1046C000052C2FD023D3062C37D041E0022000F058
:1046D0000FF9002000F082F821002800FEF78CFA84
:1046E00036E0012000F004F9012000F032F821004A
:1046F0002800FEF781FA2BE0002000F0F9F80120F5
:1047000000F06CF821002800FEF776FA20E0002087
:1047100000F0EEF8012000F0A6F821002800FEF7D6
:104720006BFA15E0012000F0E3F8002000F09BF8A0
:1047300021002800FEF760FA0AE0022000F0D8F815
:10474000002000F006F821002800FEF755FAFFE7E8
:1047500031BD7CB504002000C0B200281CD1B14D91
:10476000B64E3088C0B200900323012200212800F9
:10477000FDF7F0FF3088C0B2009003230022012132
:104780002800FDF7E7FF012203212800FFF78FFE35
:1047900003212800FFF780FE2000C0B201281CD1B1
:1047A000A04DA64E3088C0B2009003230122002104
:1047B0002800FDF7CFFF3088C0B20090032300220D
:1047C00002212800FDF7C6FF012205212800FFF77E
:1047D0006EFE05212800FFF75FFE73BD7CB5040067
:1047E0002000C0B200281CD18E4D944E3088C0B23B
:1047F00000900323012201212800FDF7ABFF308840
:10480000C0B200900323002200212800FDF7A2FF80
:10481000012203212800FFF74AFE03212800FFF7A9
:104820003BFE2000C0B201281CD17E4D834E308853
:10483000C0B200900323012201212800FDF78AFF66
:104840003088C0B200900323002202212800FDF727
:1048500081FF012206212800FFF729FE06212800FA
:10486000FFF71AFE73BD7CB504002000C0B200281B
:104870001CD16C4D714E3088C0B2009003230122D0
:1048800002212800FDF766FF3088C0B200900323A4
:10489000002200212800FDF75DFF012205212800EC
:1048A000FFF705FE05212800FFF7F6FD2000C0B246
:1048B00001281CD15B4D614E3088C0B200900323AB
:1048C000012202212800FDF745FF3088C0B2009088
:1048D0000323002201212800FDF73CFF01220621CD
:1048E0002800FFF7E4FD06212800FFF7D5FD73BD82
:1048F00038B504002000C0B2002815D1494D002071
:1049000000900323012200212800FDF723FF00204F
:1049100000900323002200212800FDF71BFF012245
:1049200001212800FFF7C3FD2000C0B2012815D1E6
:104930003C4D002000900323012201212800FDF7B7
:1049400009FF002000900323002201212800FDF729
:1049500001FF012202212800FFF7A9FD2000C0B2BB
:10496000022815D12F4D002000900323012202219F
:104970002800FDF7EFFE0020009003230022022113
:104980002800FDF7E7FE012204212800FFF78FFD34
:1049900031BD1CB5234C00200090032301220021CF
:1049A0002000FDF7D7FE0020009003230022002105
:1049B0002000FDF7CFFE012201212000FFF777FD47
:1049C000002000900323012201212000FDF7C2FEF8
:1049D000002000900323002201212000FDF7BAFEF1
:1049E000012202212000FFF762FD00200090032336
:1049F000012202212000FDF7ADFE002000900323DC
:104A0000002202212000FDF7A5FE01220421200042
:104A1000FFF74DFD13BD000040F00F4018000020CF
:104A20000090054000300340407000000872000014
:104A300000CA9A3B120000201872000010000020EB
:104A4000264911EB10410A68012383401A430A608A
:104A5000704738B505000024002C06D1204850F8D6
:104A60002400A84201D0641CF6E7002C06D04022A6
:104A70001C491D48FDF7F6FFAFF30080200032BD52
:104A800010B504002000FFF7E4FF184951F820009A
:104A9000FFF7D6FF10BD70B413001BB2C3F346037B
:104AA00010EB430413001BB2C3F3460310EB4303A4
:104AB0001D88FF2612F00103DBB2DB009E40B543E8
:104AC0000E0036B206F0FF0612F00103DBB2DB0087
:104AD0009E403543258070BC704700000070044044
:104AE00028760000686A0000606C00002C760000E8
:104AF000BBBBE1B1B2F5803F80F07E80022A1ED9B7
:104B00008C46B1FBF2F102FB11C31B0443EA1043D4
:104B1000B3FBF2FC02FB1C3380B240EA0343B3FB5D
:104B2000F2F002FB103240EA0C4000237047022AE8
:104B300005D98446B0FBF2F002FB10C270474AB1BF
:104B400005D100F0010249085FEA300070470022F9
:104B50000023704700F0E4B80B00020000210020A1
:104B60007047904271EB030CF6D3B3F5803F2FD220
:104B7000F0B5B3FA83F7B1FA81F4A7F10F0E3D1B3C
:104B80005340CEF1200602FA0EF2F3415340B5F144
:104B90000F0746D80F3C2C444140C4F12006A040EA
:104BA000F1414140B1FBF3F603FB1611A2FB0645B0
:104BB000001BA94102D2761E8018594180EA0102E9
:104BC00021FA0EF362FA0EF200215A403046F0BD8F
:104BD00030B4B1FBF3FC03FB1C11A2FB0C45001B22
:104BE000A94103D2ACF1010C8018594130BC0246F6
:104BF0000B46604600217047B2F1807F65D3F0B567
:104C0000B2FA82F7B1FA81F4C7F10F063D1B22FA1E
:104C100006F307F1110EF24120355A40B5F10F07A6
:104C2000B8D94140C4F12006A040F1414140B1FB58
:104C3000F3FC03FB1C11A2FB0C45001BA94103D292
:104C4000BCF1010C801859410F2F12D30F3FC9033B
:104C500041EA5041B1FBF3F603FB1611A2FB0645F6
:104C6000D4EBC030A94102D2761E8018594146EAE1
:104C7000CC3C07B34140C7F12006B840F141414068
:104C8000B1FBF3F603FB1611A2FB0645001BA9417D
:104C900002D2761E8018594180EA010221FA0EF3F1
:104CA000C7F1200462FA0EF20CFA07F05A402CFA0F
:104CB00004F13043F0BD80EA010221FA0EF3002135
:104CC00062FA0EF260465A40F0BD8C46B1FBF2F13A
:104CD00002FB11C31B0243EA1063B3FBF2FC02FBAD
:104CE0001C331B024CEA002043EA1063B3FBF2FCC6
:104CF00002FB1C331B024CEA002043EA1063B3FBA7
:104D0000F2FC02FB1C331B024CEA002043EA106356
:104D1000B3FBF2FC02FB1C324CEA0020002370477C
:104D20007047FEE72DE9F84F92B015460291002139
:104D30001C9ADFF804828DF82F2081469A4608914C
:104D40000FF28C464FF0FF370CE025280FD015F8F6
:104D5000011B0298C8470028029000F0D7800898ED
:104D6000401C089028780028EFD10898E6E0002041
:104D70000021002205900691079201E041F0010117
:104D800015F8010F2028F9D023280CD02B2804D0A7
:104D90002D2805D0302809D0BAE041F00201EFE714
:104DA00041F00401ECE741F00801E9E741F01001AE
:104DB000E6E70A9209E00A98404505DA00EB80042C
:104DC00002EB4402303A0A926D1C2A78A2F13000BC
:104DD0000A28F0D328782E2818BF099725D115F86E
:104DE000010F2A280AD1DAF80000CAF800006D1C69
:104DF00050F8042BCAF80000099216E02D280CBFC9
:104E00006D1C0020002209920AE040B9099A42452F
:104E100005DA02EB820403EB4403303B09936D1C7B
:104E20002B78A3F130020A2AEFD3ADF82C103046CC
:104E3000297800F0DFF908B115F8010B8DF82E0084
:104E40009DF82E00682804BF2978682903D16220C4
:104E50008DF82E006D1C0CA80490524615F8013BED
:104E600001A9484600F098F800284FD10A98059902
:104E7000079A069C401A801A041B9DF82C004107D3
:104E80000FD42020002C8DF800000ADDA34601235A
:104E90006A4601A9484600F084F9B8BBBBF1010B92
:104EA000F5D1059B0CAA01A9484600F07AF968BB28
:104EB000DDF81CB03020BBF1000F8DF8000009DDDB
:104EC00001236A4601A9484600F06BF9F0B9BBF12D
:104ED000010BF5D1069B039A01A9484600F061F940
:104EE000A0B99DF82C0041077FF53CAF2020002C95
:104EF0008DF800007FF736AF01236A4601A94846C6
:104F000000F04FF910B9641EF6D12BE7384615E0D2
:104F10002A287FF44EAFDAF80020CAF8002052F8B1
:104F2000040BCAF8002000280A9003D540420A90DA
:104F300041F004016D1C4DE7CBCCCC0C13B0BDE8A7
:104F4000F08F62280ED0682819D1002A0A680A60FA
:104F5000106803D0121D0A6000B217E0121D0A602B
:104F600080B217E0002A0A680A60106803D0121D98
:104F70000A6040B20AE0121D0A60C0B20AE0002ACC
:104F80000A680A60106803D0121D0A60C1177047D2
:104F9000121D0A600021704770B51C460D46252C75
:104FA000EE68114600F08480582C37D0632C0ED068
:104FB000642C18BF692C14D06F2C2FD0702C49D0C2
:104FC000732C53D0752C18BF782C27D076E0286925
:104FD000421C2A610A680A6052F8043B0A60335492
:104FE00076E095F82A000122FFF7ABFF0028286041
:104FF00004D52869411C29612D220DE0288D8107E7
:1050000004D52869411C29612B2205E0C0071CD565
:105010002869411C29612022325416E095F82A00A3
:105020000022FFF78EFF286095F8280001070CD5B5
:10503000286850B144F02001782906D12869302130
:105040003154401C421C2A613454214628693044A2
:10505000A86007E00868086050F8042B08602A6020
:10506000AE607821284600F035F831E00868086025
:1050700050F8044B0860AC603CB900BF56A000F08B
:10508000C5F84FF0FF34201A70BD2E6A002E04D5EB
:105090002046FEF709F9044608E032460021204682
:1050A00000F0D4F8002814BF041B34466C610FE0F4
:1050B0002869411C29612522325409E02969481CCC
:1050C000286125227254210002D0431C2B613454E4
:1050D000002070BDF0B402466F29D46808BF0826CE
:1050E00005D041F02000782814BF0A261026182584
:1050F0001368642918BF6929184602D1002B48BFDC
:105100004042F0B9136AE3B9082E39D192F8280069
:10511000010735D530201725E07531E000280ED580
:1051200092F8280000F01400102808D1546A116980
:105130009069641A241AE31A012BA8BF9361F0BC8A
:105140007047B0FBF6F706FB170030306D1EC3B298
:105150003A2BA4BFA1F1510318186055380003D0B1
:1051600093686719BB42ECD3082E09D192F8280046
:10517000010705D5605D302802D06D1E30206055D6
:10518000C5F11803106A5361611983429160C5DA51
:10519000118DC31A4FF6EF70014093611185F0BC79
:1051A0007047F8B505460E4617461C46002074B1F8
:1051B00017F8011B7068A847706030B1F069401C97
:1051C000F0610020641EF3D1F2BD4FF0FF30F2BD5C
:1051D000686C747A4C0000007072696E74665F735C
:1051E0003A2062616420257320617267756D656E77
:1051F00074000000C9B202788A421AB11CBF10F8CC
:10520000012FF9E718BF00207047FEE780B500B90D
:1052100006A005490B681BB122220021984701E036
:1052200000F040F8222002BDA42A0020636F6E73B4
:10523000747261696E742068616E646C65723A2084
:10524000626164206D65737361676500C9B283072D
:1052500006D0521E22D310F8013B9942F7D11FE02D
:10526000083A13D302F1040241EA012141EA014163
:1052700050F8043B121F21BF4B40A3F1013C2CEA24
:10528000030C1CF0803FF3D0C9B2001F083210F8A5
:10529000013B521E28BF91EA030FF8D818BF012026
:1052A000401E7047012000F001B8FEE780B5AFF363
:1052B0000080024A11001820ABBEFBE72600020066
:1052C000B0F888210B00DBB21B0213F470639A4321
:1052D000A0F888217047808A704789B200EB4100AE
:1052E000808B704780B500F027FA00F07AFA00F062
:1052F000EAFA00F0F4FA00F047FB00F091FAFFF749
:10530000F6F800F0DFFCFFF719F900F049FD00F0B6
:1053100059F900F07AF9FBF7ACF9FEE7F8B584B07B
:1053200004004FF49676DFF83003019000200199D5
:105330000870002001994872002001994870C74FF9
:10534000012202A93800FEF7D4F9082202A9380088
:10535000FEF7CFF9082202A93800FEF7BEF9C048CF
:1053600000F038FD9DF80F10BE4800F033FD9DF8A9
:105370000E10BD4800F02EFD02AF7979BB4800F059
:1053800029FD9DF80C10BA4800F024FD9DF80B1083
:10539000B84800F01FFD9DF80A10B74800F01AFD4C
:1053A0007978B64800F016FD9DF80810B44800F072
:1053B00011FD002005002800C0B2082811DA2800DD
:1053C000C0B2385C01992A00D2B211444872280058
:1053D000C0B2385C01992A00D2B2114448706D1CE9
:1053E000E9E79DF8080001280FD100230A2201A94E
:1053F000A4480068FCF704FB012803D0A24800F091
:10540000E9FC02E0A14800F0E5FC9DF808006128F5
:1054100016D1787901990870019800788DF800000C
:1054200000230A2269469A480068FCF7E9FA012835
:1054300003D0984800F0CEFC02E0974800F0CAFC88
:105440003000FBF7EFF87AE7F8B5040064279348DB
:1054500000F0C0FC002000F04AFB05003A0069465D
:1054600088480068FCF70FFC0600012E21D1009847
:1054700001788B4800F0AEFC0098417A894800F032
:10548000A9FC00984178884800F0A4FC8749086886
:10549000002801D1012000E00020C0B2086084494A
:1054A0000868002801D1012000E00020C0B2086097
:1054B00005E000207D49086000207D490860280043
:1054C000C0B2002801D1012E0AD12800C0B20028A4
:1054D00003D100980078002801D0012000E00020CE
:1054E0003800FBF79FF8B2E72DE9F8430400C8261F
:1054F000704800F06FFC70480078002814D1FFF766
:1055000048FA0A2000F0D9F9FFF743FA6B4F01215E
:105510003800FFF7D5FE02213800FFF7D1FE042145
:105520003800FFF7CDFE49E0654F01213800FEF756
:1055300004FB3800FEF712FB8006FAD5A8461FFAD6
:1055400088F8A9461FFA89F93800FFF7C4FE10EA67
:105550000909C84521D1DFF86C8101213800FFF726
:10556000BCFEA8F80000B8F900105748FDF744FB4E
:10557000322000F0A2F901213800FFF7AEFE4FF40F
:10558000A57190FBF1F0A8F80000B8F900104F48A1
:10559000FDF732FBC82000F090F920213800FEF71B
:1055A00010FBFFF7F6F94A4FFEF7A1FF38603968A4
:1055B0004848FDF721FB3868FFF76AF83000FBF731
:1055C00031F895E7E0B544480190012000900023B0
:1055D0004FF4807241494248FAF71AFF414801905E
:1055E0000220009000234FF400723F493F48FAF731
:1055F0000FFF3F4801900320009000234FF480628A
:105600003C493D48FAF704FF07BD10B5204C002285
:1056100001210A20FCF7AEF920602068002802D1A1
:10562000364800F0D7FB174C002204210A20FCF773
:10563000A1F920602068002802D1314800F0CAFB9F
:1056400010BD80B502212F4800F020FC00201A492F
:105650000870BFF34F8F01BDE428002000B0064062
:10566000787200008872000098720000A872000032
:10567000B8720000C8720000D8720000E872000022
:10568000F8720000E0280020546D0000F06E000069
:10569000DC280020F0700000087100000873000092
:1056A000146F0000386F00005C6F00001C18FE4390
:1056B0001818FE4318730000C8280020003003406B
:1056C00000C00540100000208C740000287300000A
:1056D0001400002038730000D0280020FC73000064
:1056E0001D530000D4280020087400004954000015
:1056F000D828002014740000E95400002071000034
:105700003871000000F00F40274911EB10410A6882
:10571000012383401A430A60704710B450F82130C7
:1057200033F4E0631400E4B2240214F4E06423438D
:1057300040F8213010BC704710B51C48FFF7E4FF5B
:105740001B48FFF7E1FF1B4C062200212000FFF75A
:10575000E4FF062201212000FFF7DFFF06220221DD
:105760002000FFF7DAFF062203212000FFF7D5FF14
:10577000052204212000FFF7D0FF0522052120008B
:10578000FFF7CBFF0C4C032200212000FFF7C5FFE1
:10579000032201212000FFF7C0FF0848016831F013
:1057A000D001016010BD0000007004400C003810F2
:1057B0000D00381000C0044000D0044010800440A8
:1057C0002D49086070472D482A49086070472C49C8
:1057D0000A7812F0C702C30013F038031A430A70A4
:1057E000704710B5FFF7EFFF274C2000FEF7A0FD34
:1057F0002068FFF7E5FF254C2079FFF7E8FFE21D61
:1058000000210020FEF70EFEE278A1786078FEF716
:1058100000FD1F48FEF76EFC1E481A49086010BDC7
:1058200080B500F001F801BD1B48016851F080719E
:1058300001601A48016851F001010160704730B4FD
:10584000174A13680F490968164CB1FBF4F404FBBE
:1058500000F4E1188B4203D215688D4206D2FBE7B3
:105860001568A942FCD315688D42FCD330BC704743
:1058700000000000448004401C00002000000711CC
:10588000004006400C0000204C74000078730000BB
:105890004474000000BD0105FCED00E0001000E0D4
:1058A000041000E040420F0010B504004FF47A707D
:1058B00000FB04F0FFF7C3FF10BD10B5040020008B
:1058C000FFF7F2FF10BD10B5FEF7B1FB0400230097
:1058D00001225FF4E1310120FDF715F910BD80B51B
:1058E00004220721032000F03FFC042206210320AC
:1058F00000F03AFC01BD0000010049B200290AD4C1
:10590000012210F01F018A40DFF8501303005BB240
:105910005B0941F823207047DFF8441311EB104175
:105920000A68012383401A430A60704710B50400D7
:1059300020007FF07F0140B2884201D1012004E0C5
:10594000200040B2FFF7D8FF002010BD10B450F87F
:10595000213033F4E0631400E4B2240214F4E06470
:10596000234340F8213010BC704710B450F8213068
:1059700033F470231400E4B2240414F47024234399
:1059800040F8213010BC70477CB5B6480088ADF8AF
:105990000000B548FFF7C0FFB448FFF7BDFFB44CA7
:1059A00001221E212000FFF7D1FF01221D2120002E
:1059B000FFF7CCFF012218212000FFF7C7FF0122CB
:1059C00019212000FFF7C2FFAA4C0122012120006B
:1059D000FFF7BCFF012202212000FFF7B7FF0122E1
:1059E00004212000FFF7B2FF012205212000FFF76C
:1059F000ADFF01220C212000FFF7A8FF01220D219D
:105A00002000FFF7A3FF9C4D6A460121280000F00B
:105A10001BFA9A4E6A461921300000F015FA6A46C0
:105A20001821300000F010FA6A460C21280000F01E
:105A30000BFA6A460D21280000F006FA6A46022198
:105A4000280000F001FA6A460421280000F0FCF961
:105A50006A460521280000F0F7F96A461E21300049
:105A600000F0F2F96A461D21300000F0EDF9022243
:105A70001D21042000F094FA02221E21042000F0CF
:105A80008FFA02221821042000F08AFA022219213A
:105A9000042000F085FA02220121002000F080FAA3
:105AA00002220221002000F07BFA022204210020C1
:105AB00000F076FA02220521002000F071FA02229D
:105AC0000C21002000F06CFA02220D21002000F0D1
:105AD00067FA0B2201212000FFF747FF3B20FFF769
:105AE00025FF6A460121280000F0AEF973BD38B5E4
:105AF00004002000C0B2012802D1012060490870D2
:105B00005F4D287800287DD05E480068012823D0AA
:105B10005D48006801281FD05C48006801281BD040
:105B20005B480068012817D05A480068012813D044
:105B30005948006801280FD05848006801280BD048
:105B400057480068012807D056480068012803D04C
:105B500055480068012855D10A20FFF7AEFE002005
:105B6000287049480168012904D101680129FCD045
:105B7000022072E045480168012904D10168012929
:105B8000FCD0032069E042480168012904D1016882
:105B90000129FCD0042060E03E480168012904D1BD
:105BA00001680129FCD0052057E03B480168012924
:105BB00004D101680129FCD006204EE03748016875
:105BC000012904D101680129FCD0072045E03448AF
:105BD0000168012904D101680129FCD008203CE0BA
:105BE00030480168012904D101680129FCD009204D
:105BF00033E02D48016801292ED101680129FCD02C
:105C00000A202AE01F480068002825D11E480068A5
:105C1000002821D11D48006800281DD11C480068BB
:105C2000002819D11B480068002815D11A480068BF
:105C3000002811D11948006800280DD118480068C3
:105C4000002809D117480068002805D116480068C7
:105C5000002801D101202870002032BD00E100E0C1
:105C6000007004408A2C00000D0038100900381024
:105C700000D004400090044000F00F4000F10F40BD
:105C8000130000200402FE436422FE436022FE4310
:105C90003002FE433402FE430802FE431002FE437C
:105CA0001402FE437822FE437422FE431300DBB24B
:105CB000002B03D0038A8B43038202E0038A0B4349
