:1000000000400020E54C000097300000CF30000099
:10001000033A00005B3F0000374C00000000000086
:10002000000000000000000000000000A14D0000E2
:10003000CB4D000000000000D74D000075520000BD
:10004000455100004D510000555100005D51000028
:10005000655100006D510000755100007D51000098
:10006000855100008D510000955100009D51000008
:10007000A5510000AD510000B5510000BD51000078
:10008000C551000071520000715200007152000011
:100090007152000071520000715200007152000054
:1000A000CD51000071520000D55100007152000086
:1000B000715200007152000071520000DD510000C9
:1000C000E5510000ED510000F551000071520000B3
:1000D0007152000071520000715200007152000014
:1000E0007152000071520000715200007152000004
:1000F00071520000715200007152000071520000F4
:1001000071520000715200007152000071520000E3
:1001100071520000715200007152000071520000D3
:10012000715200007152000071520000E93C000061
:1001300071520000715200007152000071520000B3
:1001400071520000715200007152000071520000A3
:100150007152000071520000715200007152000093
:10016000715200007152000071520000FD510000F8
:10017000055200000D520000155200001D520000F3
:1001800025520000715200007152000071520000AF
:100190007152000071520000715200007152000053
:1001A0007152000071520000715200007152000043
:1001B00071520000715200002D52000035520000B3
:1001C0003D520000455200004D52000055520000C3
:1001D0007152000071520000715200007152000013
:1001E0007152000071520000715200007152000003
:1001F00071520000715200007152000071520000F3
:1002000071520000715200007152000071520000E2
:1003F000715200007152000071520000FFFFFFFFB8
:10040000FFFFFFFFFFFFFFFFFFFFFFFFFEFFFFFFFD
:10041000DFF86C1911EB10410A68012383401A437D
:100420000A60704738B505000024002C07D1DFF8BA
:10043000540950F82400A84201D0641CF5E7002CB0
:1004400008D03722DFF84019DFF8400900F0B0FC8F
:10045000AFF30080200032BDF8B505000E00140097
:10046000002C08D14922DFF82019DFF8240900F018
:100470009FFCAFF300806079022805D13000C0B244
:10048000002801D10120B4E0607A012805D13000B4
:10049000C0B2002801D10120ABE02800FFF7C2FF65
:1004A000DFF8F018000108443100C9B250F821000B
:1004B000FFF7AEFFB5F88E0150F00F00A5F88E01E2
:1004C00060213000C0B248432844828812F4E652CA
:1004D000607910F00300E37ADB0013F0380318436F
:1004E00023791B0213F440731843237850EAC33076
:1004F000637850EA8330637A9B0013F00403184357
:100500000243E079002803D002280ED003D316E07E
:1005100052F4005213E0B5F88831012716F10C00AF
:100520008740BB43A5F8883109E0B5F88831012739
:1005300016F10C0087403B43A5F88831FFE73000F7
:10054000C0B24843284482803000C0B248432844A7
:10055000C38840F68B700340A079000110F0700052
:10056000A77A50EA07300343207A002805D00228F2
:100570000CD005D303280FD013E053F0040310E090
:1005800053F400634FF6FF3003400AE04FF2FF7070
:10059000034053F4806304E053F4006353F4806336
:1005A000FFE73000C0B248432844C380B5F890014B
:1005B000000605D0B5F8900110F47F40A5F8900131
:1005C000A278120212F4E062E0780243A5F89021CA
:1005D000E07A00280CD13000C0B2484328443200F1
:1005E000D2B201FB02F12944898851F04001818097
:1005F0000020F2BDF8B50400002C08D1D522DFF8A8
:100600008817DFF88C0700F0D3FBAFF300800C25D0
:100610000026270032002900380000F0DBFB002014
:10062000207000206070002060720020A070002008
:10063000E070002060710020A07100202071002077
:10064000E0720020A072002020720020E071F1BD55
:100650002DE9FE4F05000E001400002C09D140F2D8
:100660001112DFF82417DFF8300700F0A1FBAFF319
:1006700000800D98002809D14FF48972DFF808171F
:10068000DFF8180700F094FBAFF300809DF8080036
:10069000002809D140F21312DFF8EC16DFF800074A
:1006A00000F086FBAFF300800E98002809D14FF4CC
:1006B0008A72DFF8D416DFF8EC0600F079FBAFF3AE
:1006C00000805FF0000A00210022002300279DF82F
:1006D0000800032801DB0120E0E15FF060085FF023
:1006E00001090E98B4465FFA8CFC08FB0CFCAC4484
:1006F000BCF806C0CCF3021C19FA0CFCB0FBFCF0F1
:1007000000900098DDF834C0B0FBFCFC5FF0000EF8
:1007100070469DF808A0C0B2504580F0BE81E24608
:100720001FFA8AFA607800FB0AFA64209AFBF0F05C
:1007300001009DF83000002807D0022800F0C88092
:100740005FD3032800F0128151E1604680B2400877
:1007500002003000C0B208FB00F0284492460FFAB5
:100760008AFADAF1000AA0F802A03000C0B208FB51
:1007700000F028445FF0000AA0F80AA03000C0B2E0
:1007800008FB00F02844C281207801281CD13000E9
:10079000C0B208FB00F028448A461FFA8AFA7FF0AC
:1007A000010B9AFBFBFAA0F812A03000C0B208FBC4
:1007B00000F028448A461FFA8AFA5FF0020B9AFB7F
:1007C000FBFAA0F816A01BE03000C0B208FB00F056
:1007D00028448A461FFA8AFA7FF0010B9AFBFBFA3B
:1007E000A0F81AA03000C0B208FB00F028448A46E6
:1007F0001FFA8AFA5FF0020B9AFBFBFAA0F81EA020
:10080000F5E03000C0B208FB00F028445FF0000AB9
:10081000A0F802A03000C0B208FB00F02844E24675
:100820001FFA8AFA5FF0020B9AFBFBFAA0F80AA003
:100830003000C0B208FB00F02844A0F80EC02078B9
:10084000012822D13000C0B208FB00F005EB000AFD
:10085000E3461FFA8BFB080080B2BBEB000B0220C3
:100860009BFBF0F0AAF812003000C0B208FB00F0C9
:1008700028448A461FFA8AFA1AFA8CFA5FF0020BA9
:100880009AFBFBFAA0F816A021E03000C0B208FBEA
:1008900000F005EB000AE3461FFA8BFB080080B26C
:1008A000BBEB000B02209BFBF0F0AAF81A00300013
:1008B000C0B208FB00F028448A461FFA8AFA1AFAE6
:1008C0008CFA5FF0020B9AFBFBFAA0F81EA08EE0F8
:1008D000604680B2400802003000C0B208FB00F061
:1008E000284492460FFA8AFADAF1000AA0F802A028
:1008F0003000C0B208FB00F028445FF0000AA0F806
:100900000AA03000C0B208FB00F02844C281207861
:10091000012815D13000C0B208FB00F028449246EF
:100920000FFA8AFADAF1000AA0F812A03000C0B279
:1009300008FB00F02844B1EB020AA0F816A014E06E
:100940003000C0B208FB00F0284492460FFA8AFA41
:10095000DAF1000AA0F81AA03000C0B208FB00F0DB
:100960002844B1EB020AA0F81EA040E03000C0B25B
:1009700008FB00F028445FF0000AA0F802A0300055
:10098000C0B208FB00F02844E2461FFA8AFA5FF082
:10099000020B9AFBFBFAA0F80AA03000C0B208FBD9
:1009A00000F02844A0F80EC0207801280FD13000B4
:1009B000C0B208FB00F028445FF0000AA0F812A0C3
:1009C0003000C0B208FB00F02844C1820EE03000C5
:1009D000C0B208FB00F028445FF0000AA0F81AA09B
:1009E0003000C0B208FB00F02844C183FFE7207844
:1009F00001280DD10A200300082007003000C0B2F2
:100A000008FB00F02844B4F804A0A0F830A00CE0E3
:100A100009200300042007003000C0B208FB00F0EA
:100A20002844B4F804A0A0F832A0A078002813D17C
:100A30003000C0B208FB00F005EB000A3000C0B285
:100A400008FB00F02844B0F822B019FA03F03BEAA2
:100A5000000BAAF822B012E03000C0B208FB00F090
:100A600005EB000A3000C0B208FB00F02844B0F8E3
:100A700022B019FA03F050EA0B0BAAF822B0B5F82D
:100A8000800116EB070A19FA0AFA5AEA0000A5F8DB
:100A90008001A41D1EF1010E3AE60020BDE8FE8F84
:100AA0002DE9F84305000E0017009846089C200029
:100AB000C0B2652809DB40F2BF12DFF8CC12DFF8C4
:100AC000E80200F075F9AFF300803800C0B20228E8
:100AD00009DB4FF4E072DFF8B012DFF8D00200F06B
:100AE00067F9AFF300800021002200234046C0B226
:100AF000002807D0022800F0BD805BD3032800F057
:100B000003813BE15FF0600C3000C0B20CFB00F0F1
:100B10002844B0F90E0003009BB2580001008E4635
:100B20001FFA8EFE2000C0B200FB0EFE64209EFB6A
:100B3000F0F002003800C0B201281DD13000C0B270
:100B40000CFB00F0284496461FFA8EFE7FF0010948
:100B50009EFBF9FEA0F812E03000C0B20CFB00FCD6
:100B600005EB0C0094461FFA8CFC5FF0020E9CFB18
:100B7000FEFCA0F816C01CE03000C0B20CFB00F078
:100B8000284496461FFA8EFE7FF001099EFBF9FE6F
:100B9000A0F81AE03000C0B20CFB00FC05EB0C0022
:100BA00094461FFA8CFC5FF0020E9CFBFEFCA0F842
:100BB0001EC0E3E05FF0600C3000C0B20CFB00F040
:100BC0002844C08901008E461FFA8EFE2000C0B264
:100BD00000FB0EFE64209EFBF0F002003800C0B265
:100BE000012823D13000C0B20CFB00F005EB000E51
:100BF00089461FFA89F9100080B2B9EB000902207A
:100C000099FBF0F0AEF812003000C0B20CFB00FC13
:100C100005EB0C0094461FFA8CFC1CFA81FC5FF07B
:100C2000020E9CFBFEFCA0F816C022E03000C0B211
:100C30000CFB00F005EB000E89461FFA89F9100045
:100C400080B2B9EB0009022099FBF0F0AEF81A006F
:100C50003000C0B20CFB00FC05EB0C0094461FFA00
:100C60008CFC1CFA81FC5FF0020E9CFBFEFCA0F8E1
:100C70001EC083E05FF0600C3000C0B20CFB00F0DF
:100C80002844B0F90E0003009BB2580001008E46C4
:100C90001FFA8EFE2000C0B200FB0EFE64209EFBF9
:100CA000F0F002003800C0B2012816D13000C0B206
:100CB0000CFB00F028449E460FFA8EFEDEF1000E7B
:100CC000A0F812E03000C0B20CFB00FC05EB0C00F9
:100CD000B2EB030CA0F816C015E03000C0B20CFB5C
:100CE00000F028449E460FFA8EFEDEF1000EA0F8BA
:100CF0001AE03000C0B20CFB00FC05EB0C00B2EBBC
:100D0000030CA0F81EC039E05FF0600C3000C0B2E8
:100D10000CFB00F02844C08901008E461FFA8EFEAD
:100D20002000C0B200FB0EFE64209EFBF0F002002B
:100D30003800C0B2012810D13000C0B20CFB00F066
:100D400028445FF0000EA0F812E03000C0B20CFBA7
:100D500000FC05EB0C00C2820FE03000C0B20CFBBF
:100D600000F028445FF0000EA0F81AE03000C0B296
:100D70000CFB00FC05EB0C00C283FFE7BDE8F18330
:100D80000070044064520000F0470000C44B0000B3
:100D9000C45000006C4F0000505000005C50000038
:100DA0006850000074500000584E00005C4F000076
:100DB00000B583B00091019202906A460449182060
:100DC000ABBE002801D100F038F803B000BD00BF71
:100DD0001010020062F30F2262F31F42401810F05D
:100DE000030308D0C91A1FD3DB0748BF00F8012D41
:100DF00028BF20F8022D130030B4144615461039D0
:100E000028BF20E93C00FAD8490728BF20E90C0098
:100E100048BF40F8042D890028BF20F8022D48BFA4
:100E200000F8012D30BC7047C91818BF00F8012D1B
:100E3000CB0728BF00F8012D7047012000F000B853
:100E400080B5AFF30080024A11001820ABBEFBE76B
:100E500026000200DFF8701611EB10410A6801232A
:100E600083401A430A60704738B505000024002CFF
:100E700007D1DFF8580650F82400A84201D0641CBE
:100E8000F5E7002C08D05C22DFF84416DFF84406B2
:100E9000FFF78EFFAFF30080200032BD38B50500AC
:100EA0000C00002C08D16E22DFF82416DFF828068B
:100EB000FFF77EFFAFF300802800FFF7D5FFDFF8D4
:100EC0001C1651F82000FFF7C5FF29884FF6F8706F
:100ED0000140207810F00700014329806078002845
:100EE00004D0688850F04000688004E06A884FF6BB
:100EF000BF7002406A80B5F89C2047F60740024068
:100F0000A088000110F47C700243E078012802D12F
:100F100052F4004204E0E078022801D152F00802C5
:100F2000A5F89C20A078012806D1B5F8A80050F0BB
:100F30004000A5F8A80006E0B5F8A8104FF6BF706D
:100F40000140A5F8A81031BDF8B50400002C08D167
:100F5000B322DFF87C15DFF88005FFF729FFAFF338
:100F60000080062500262700320029003800FFF700
:100F700031FF05202070012060700020A07000204B
:100F8000E0701A20A080F1BD38B505000C00002CDF
:100F900008D1D822DFF83815DFF83C05FFF708FF45
:100FA000AFF3008069884FF6C0700140207810F0E0
:100FB0003F0001436980B5F89E204CF6FF70024067
:100FC000E078012801D152F400522079012801D1A2
:100FD00052F48052A5F89E20B5F8A6104FF6FC708A
:100FE0000140A07810F003000143A5F8A610B5F861
:100FF000A8304FF6F8700340A07910F007000343C3
:10100000A5F8A83031BD38B505000C00002C08D17A
:10101000FA22DFF8BC14DFF8C004FFF7C9FEAFF313
:101020000080B5F89E108904890CE078012801D170
:1010300051F400412079012801D151F48041A5F8F3
:101040009E10B5F8A6204CF2F30002402088000262
:1010500010F47C50A3789B0013F00C031843024358
:10106000A5F8A620B5F8A8304FF6C7700340E08871
:10107000C00010F038000343A5F8A83031BD70B5AA
:1010800005000E001400002C09D14FF48F72DFF818
:101090004014DFF84404FFF78BFEAFF3008030000C
:1010A00080B2C00703D521002800FFF76DFF300094
:1010B00080B2800703D521002800FFF7A4FF70BD90
:1010C000F8B50400002C09D14FF49E72DFF800142B
:1010D000DFF80404FFF76CFEAFF30080082500265C
:1010E0002700320029003800FFF774FE042020801A
:1010F0000020A0700020E070002020710020E0801F
:10110000F1BD10B40B009BB2DB070DD51300DBB2B1
:10111000002B05D004884BF6FF731C40048003E0CD
:10112000038853F4804303800B009BB29B070DD5CB
:101130001300DBB2002B05D044884BF6FF731C4034
:10114000448003E0438853F48043438010BC7047DD
:1011500010B40B009BB2DB0711D51300DBB2002BE0
:1011600007D0B0F89C404FF6FE731C40A0F89C409E
:1011700005E0B0F89C3053F00103A0F89C300B0060
:101180009BB29B0711D51300DBB2002B07D0B0F840
:101190009C404FF6FD731C40A0F89C4005E0B0F861
:1011A0009C3053F00203A0F89C3010BC70470A003A
:1011B00092B2D20703D5028852F4005202800A008C
:1011C00092B2920703D5428852F40052428070478F
:1011D000010000204A8A120401D550F008004A8A12
:1011E000520401D550F010004A8A120501D550F082
:1011F00020004A8AD20401D550F040004A8A5205A4
:1012000001D550F001004A8A920501D550F0020044
:101210004A8AD20501D550F00400B1F89C2052054D
:1012200001D550F08000B1F89C20120501D550F492
:10123000807080B2704700220B009BB29B0601D5E4
:1012400052F400620B009BB25B0601D552F480524F
:101250004282704770B505000E001400002C07D1C3
:1012600040F2A3229A499C48FFF7A2FDAFF3008009
:10127000300080B2102807D34FF42972944998485F
:10128000FFF796FDAFF300802088042805D320885F
:10129000082817D320880C2814D2A078002808D05A
:1012A0002A88904823885B0830F8130002432A807C
:1012B00028E02A888B4823885B0830F81300824393
:1012C0002A801FE02088042802D32088082805D31C
:1012D00020880C2816D32088102813D2A078002844
:1012E00008D06A887F4823885B0830F813000243DF
:1012F0006A8007E06A887B4823885B0830F813001F
:1013000082436A80300080B2082811D2A888032363
:101310003200D2B2520013FA02F230EA020223790A
:101320003000C0B2400083401A431100A98016E08B
:10133000300080B2102812D2083EE8880323320021
:10134000D2B2520013FA02F230EA020223793000DC
:10135000C0B2400083401A431100E98008363000D3
:1013600080B2042811D228890F233200D2B2920011
:1013700013FA02F230EA020223883000C0B2800081
:1013800083401A431100298146E0300080B20828CA
:1013900013D2361F68890F233200D2B2920013FA9B
:1013A00002F230EA020223883000C0B2800083409B
:1013B0001A4311006981361D2EE0300080B20C28DE
:1013C00013D2083EA8890F233200D2B2920013FA3A
:1013D00002F230EA020223883000C0B2800083406B
:1013E0001A431100A981083616E0300080B2102897
:1013F00012D20C3EE8890F233200D2B2920013FAC7
:1014000002F230EA020223883000C0B2800083403A
:101410001A431100E9810C362089320092B205EBA3
:1014200042029087E088320092B205EB4202A2F8B5
:101430005C006089320092B205EB4202A2F87C00A7
:101440002088082813D2B5F8A00003232288D2B23E
:10145000520013FA02F230EA0202E3782088C0B2A6
:10146000400083401A431100A5F8A01017E020881F
:10147000102814D2B5F8A20003232288083AD2B269
:10148000520013FA02F230EA0202E37820880838A8
:10149000C0B2400083401A431100A5F8A210207B7F
:1014A000002807D0B5F8A4000122B2401043A5F8E7
:1014B000A40006E0B5F8A4000122B2409043A5F8CC
:1014C000A40070BD00000000007004405C520000E9
:1014D0005C4500004C4B00000850000060520000CA
:1014E000A04E00002C4F0000DFF8241611EB104135
:1014F0000A68012383401A430A607047B0F88821C4
:101500000B00DBB21B0213F470631A43A0F88821AE
:10151000704710B41300DBB2002B09D0B0F888314B
:101520000C00E4B214F00F042343A0F8883109E062
:10153000B0F888310C00E4B2240114F0F004234325
:10154000A0F8883110BC704710B450F8213033F443
:10155000E0631400E4B2240214F4E064234340F88E
:10156000213010BC70470069C84010F0010070477E
:101570001CB5DFF8A0050088ADF80000DFF898057D
:10158000FFF7B2FFDFF89445012201212000FFF7A9
:10159000DBFF012202212000FFF7D6FF01220321F9
:1015A0002000FFF7D1FFDFF878456A4601212000CF
:1015B00000F0F0FA6A460221200000F0EBFA6A46D9
:1015C0000321200000F0E6FA02220121012000F0B0
:1015D0008DFB02220221012000F088FB0222032160
:1015E000012000F083FB13BD38B5DFF8384500203B
:1015F0002060DFF82C5503212800FFF7B4FF0028F6
:1016000003D0206850F00100206002212800FFF77D
:10161000AAFF002803D0206850F0020020600121BA
:101620002800FFF7A0FF002803D0206850F0040036
:101630002060206832BD3EB5DFF8EC44200000F0A9
:1016400069FC40F2011540F21D122900200000F053
:101650006CFC4FF48F722900200000F066FC40F211
:101660001F122900200000F060FC4FF49072290046
:10167000200000F05AFC6846FEF7BCFF01208DF800
:10168000000002208DF8080000208DF807000120DE
:101690008DF8000000208DF80B00DFF890446A46BA
:1016A00000212000FEF7D8FE012803D1DFF88004D6
:1016B00000F024FD00208DF8050000208DF80400C6
:1016C0006A4601212000FEF7C7FE012803D1DFF89A
:1016D000600400F013FD6A4602212000FEF7BCFE04
:1016E000012803D1DFF8480400F008FD00F005F8F8
:1016F000DFF8400400F002FD37BDF8B586B040F6D3
:10170000B834042000F017FE050040F28A20A0FB48
:101710000501DFF82424002301F036F8060001203B
:101720008DF80C0003A80021817032214170868061
:1017300000208DF8120000208DF8140032208DF862
:101740001300ADF81660DFF8E473029501940320EE
:101750000090022303AA00213800FEF779FF0295CA
:10176000019403200090022303AA01213800FEF710
:101770006FFF0295019403200090022303AA022127
:101780003800FEF765FF07B0F0BD38B50400002053
:101790000090DFF8A80390F90000012801D1D4F1EE
:1017A0000704DFF89C532100280000F0A7FC012C5F
:1017B00009D04AD3032C1CD010D3052C2FD023D30F
:1017C000062C37D041E0022000F00FF9002000F095
:1017D00082F82100280000F091FC36E0012000F0A2
:1017E00004F9012000F032F82100280000F086FC06
:1017F0002BE0002000F0F9F8012000F06CF8210047
:10180000280000F07BFC20E0002000F0EEF8012032
:1018100000F0A6F82100280000F070FC15E001207F
:1018200000F0E3F8002000F09BF82100280000F011
:1018300065FC0AE0022000F0D8F8002000F006F86D
:101840002100280000F05AFCFFE731BD7CB5040000
:101850002000C0B200281CD1B44DBA4E3088C0B2AE
:1018600000900323012200212800FFF719F9308896
:10187000C0B200900323002201212800FFF710F9D5
:10188000012203212800FFF744FE03212800FFF76F
:1018900035FE2000C0B201281CD1A44DA94E3088CD
:1018A000C0B200900323012200212800FFF7F8F8BE
:1018B0003088C0B200900323002202212800FFF7E5
:1018C000EFF8012205212800FFF723FE052128005B
:1018D000FFF714FE73BD7CB504002000C0B20028E1
:1018E0001CD1924D974E3088C0B200900323012244
:1018F00001212800FFF7D4F83088C0B200900323FC
:10190000002200212800FFF7CBF801220321280044
:10191000FFF7FFFD03212800FFF7F0FD2000C0B214
:1019200001281CD1814D874E3088C0B2009003231E
:10193000012201212800FFF7B3F83088C0B20090DF
:101940000323002202212800FFF7AAF80122062122
:101950002800FFF7DEFD06212800FFF7CFFD73BD4D
:101960007CB504002000C0B200281CD16F4D754E1C
:101970003088C0B200900323012202212800FFF723
:101980008FF83088C0B20090032300220021280085
:10199000FFF786F8012205212800FFF7BAFD05218F
:1019A0002800FFF7ABFD2000C0B201281CD15F4D1D
:1019B000644E3088C0B20090032301220221280027
:1019C000FFF76EF83088C0B2009003230022012197
:1019D0002800FFF765F8012206212800FFF799FD8E
:1019E00006212800FFF78AFD73BD38B504002000EA
:1019F000C0B2002815D14D4D0020009003230122D4
:101A000000212800FFF74CF800200090032300225B
:101A100000212800FFF744F8012201212800FFF7E8
:101A200078FD2000C0B2012815D1404D0020009063
:101A30000323012201212800FFF732F80020009043
:101A40000323002201212800FFF72AF801220221A6
:101A50002800FFF75EFD2000C0B2022815D1334DEB
:101A6000002000900323012202212800FFF718F82C
:101A7000002000900323002202212800FFF710F825
:101A8000012204212800FFF744FD31BD1CB5274C7D
:101A9000002000900323012200212000FFF700F81E
:101AA000002000900323002200212000FEF7F8FF11
:101AB000012201212000FFF72CFD002000900323CC
:101AC000012201212000FEF7EBFF002000900323FC
:101AD000002201212000FEF7E3FF01220221200065
:101AE000FFF717FD002000900323012202212000B0
:101AF000FEF7D6FF002000900323002202212000E1
:101B0000FEF7CEFF012204212000FFF702FD13BDE6
:101B1000007004408E2F00000A00381000A004401E
:101B200040F00F40B0E0FF1F009005400030034040
:101B3000F44D00009C4F000000CA9A3B0FE0FF1FCD
:101B4000AC4F00000CE0FF1F10B401231400E4B2FE
:101B5000002C03D113FA01F4846002E013FA01F4BB
:101B6000446010BC704738B504000025052D06D22E
:101B70008E4850F82500A04201D06D1CF6E7052DD7
:101B800006D34E228A498B48FFF712F9AFF3008043
:101B9000280032BDF8B505000E001400002C06D157
:101BA0006F2283498448FFF703F9AFF300800127D0
:101BB0002078002805D1696917FA06F08143696128
:101BC00009E0627831002800FFF7BEFF696917FA63
:101BD00006F001436961F1BD38B504000D00200035
:101BE000FFF7C1FF75490200D2B251F82210C1F8C7
:101BF000A05031BD30B4724C2568724B53F8203080
:101C00001D4325601300DBB2012B0AD16E4B53F844
:101C10002040646901258D402C4353F820305C61DD
:101C20000AE0694B53F82040656901248C4035EA8D
:101C3000040453F820305C6130BC7047F0B4604C51
:101C40002568604B53F820301D4325605F4B53F8E7
:101C500020400D00EDB253F820600F00FFB256F89F
:101C6000276036F4E06644F8256053F820400D0004
:101C7000EDB253F820300E00F6B253F826301600BD
:101C8000F6B2360216F4E066334344F82530F0BC71
:101C9000704730B44A4C25684A4B53F820301D43F6
:101CA00025601300DBB2002B0FD0484B53F82040C7
:101CB0000D00EDB254F8254054F0200453F82030C4
:101CC0000D00EDB243F825400EE0404B53F82040A4
:101CD0000D00EDB254F8254034F0200453F82030C4
:101CE0000D00EDB243F8254030BC7047F0B4344CE1
:101CF0002568344B53F820301D4325601300DBB2B8
:101D0000002B04D0022B30D0032B10D04BE02F4BF4
:101D100053F820400D00EDB253F820300E00F6B21B
:101D200053F8263033F0020344F825303BE0274BCC
:101D300053F820400D00EDB253F820600F00FFB2C1
:101D400056F8276056F0020644F8256053F8204004
:101D50000D00EDB253F820300E00F6B253F82630E5
:101D600053F0010344F825301DE0184B53F8204090
:101D70000D00EDB253F820600F00FFB256F8276057
:101D800056F0020644F8256053F820400D00EDB2ED
:101D900053F820300E00F6B253F826305B085B0093
:101DA00044F82530FFE7F0BC70470000184F0000F2
:101DB0006C470000884B000044500000044F0000B6
:101DC00038800440F04E0000C84E0000DC4E000099
:101DD00010B504006078002806D002282AD016D357
:101DE00004284DD039D35EE000226168C9B2207862
:101DF000FFF77CFF00226168C9B22078FFF749FF36
:101E000000226168C9B22078FFF7F4FE4BE002229D
:101E10006168C9B22078FFF769FF00226168C9B222
:101E20002078FFF736FF00226168C9B22078FFF7FB
:101E3000E1FE38E003226168C9B22078FFF756FF5F
:101E400000226168C9B22078FFF723FF0022616891
:101E5000C9B22078FFF7CEFE25E003226168C9B23F
:101E60002078FFF743FF01226168C9B22078FFF7AD
:101E700010FF01226168C9B22078FFF7BBFE12E0B3
:101E800000226168C9B22078FFF730FF0022616844
:101E9000C9B22078FFF7FDFE01226168C9B220783F
:101EA000FFF7A8FEFFE701226168C9B22078FFF7BB
:101EB000C5FE10BD7CB504000D00160020008DF895
:101EC00000008DF8016001956846FFF781FF200052
:101ED000C0B276BD264911EB10410A680123834048
:101EE0001A430A60704738B505000024002C06D15B
:101EF000204850F82400A84201D0641CF6E7002CCA
:101F000006D040221C491D48FEF752FFAFF3008067
:101F1000200032BD10B504002000FFF7E4FF18498F
:101F200051F82000FFF7D6FF10BD70B413001BB2AC
:101F3000C3F3460310EB430413001BB2C3F3460381
:101F400010EB43031D88FF2612F00103DBB2DB0018
:101F50009E40B5430E0036B206F0FF0612F00103B4
:101F6000DBB2DB009E403543258070BC704700002B
:101F70000070044068520000F84800000C4B00005C
:101F80006C52000070B505000C0043F22156002D84
:101F900007D140F2D1126A496A48FEF709FFAFF350
:101FA0000080002C07D14FF4E97265496648FEF7BE
:101FB000FFFEAFF3008022002900644800F0E0FD3E
:101FC000002801D05FF0FF34200070BD2DE9F04102
:101FD00004000D0016001F0000205FF00008B84547
:101FE00011DA2868401C802805D329682000FFF7F3
:101FF000C9FF00202860286826542868401C2860F3
:1020000018F10108EBE7BDE8F0812DE9F14F88B048
:102010000E001700984643F2215568464C4910229D
:1020200000F0C8FDCDF8008001969DF820008DF8E5
:102030000A008DF818703800C0B2012818D168461F
:1020400007905FF01C0A5FF0000BDFF808914C4628
:102050005A4651462000FEF7BDFEC9F8109004A96B
:10206000D9F8100000F0FDFC0400002C14D11BE096
:102070003800C0B2022801D128003CE03800C0B2CC
:10208000032801D1280036E03800C0B2042801D16D
:10209000280030E028002EE04FF4337228492E4803
:1020A000FEF786FEAFF3008019F11401D9F8100095
:1020B00000F00CFD0500002D07D040F2D62220498B
:1020C0002548FEF775FEAFF3008019F11801D9F825
:1020D000100000F026FD0400002C07D040F2E122A1
:1020E00017491D48FEF764FEAFF30080D9F81000D1
:1020F0001A490860002009B0BDE8F08F0EB42DE940
:10210000F841A0B00400002500266846802100F0B8
:10211000B1FD12480068002801D100200BE027AF74
:102120000F4B6A463900200000F007FE804641460A
:102130006846FFF727FF21B0BDE8F0015DF810FB0E
:1021400070410000BC5000002C50000028E0FF1F30
:102150004C4F000014E0FF1FBC4C000030E0FF1F9C
:10216000CD1F0000DFF890150A6860F393420A6003
:102170007047037813F05F030A78134303704A78BB
:10218000920182707047027812F0F0020A430270E6
:10219000704710B5DFF8D8442068002808D1D6224F
:1021A000DFF8D014DFF85805FEF702FEAFF3008029
:1021B000206810BD10B5FFF7ECFF002824D0DFF831
:1021C000B8140978C1F3C202D040DFF83815097895
:1021D000C1F301131900C9B2002915D01100C9B209
:1021E0000029052904D9891F04D0491E06D009E019
:1021F000400909E01421B0FBF1F005E00C21B0FB2F
:10220000F1F001E00021080010BDDFF87004007853
:10221000C00703D4DFF86804006808E0DFF864044E
:102220000068DFF8E4140978C1F34201C840704740
:1022300080B5DFF848040078C0B2C0F30010002871
:1022400002D1FFF7B7FF02E0DFF83404006802BDF7
:1022500080B5FFF79EFF02BD010049F6980081425C
:1022600001D2002006E0DFF8A404814201D201205F
:1022700000E00220C0B2704710B5DFF80C0400780F
:10228000000610D5DFF8E8432068002809D14FF494
:10229000A772DFF8E013DFF86404FEF789FDAFF3FF
:1022A0000080206800E0002010BD10B5DFF8D803E2
:1022B0000078000616D5DFF8B8432068002809D159
:1022C00040F26112DFF8AC13DFF83004FEF770FD66
:1022D000AFF300802068DFF838140978C9B28909A3
:1022E000C84000E0002010BD80B5DFF80C04006895
:1022F000800C10F00300002802D003280AD00CE064
:10230000FFF7BAFFB0F5004F02D14FF4004000E0F4
:10231000002003E04FF47A7000E0002002BD80B599
:1023200000F06AF8DFF838140968C1F30361491C4A
:10233000B0FBF1F002BD10B504002000C0B20028CF
:1023400016D0022829D0032827D004281AD005281F
:102350002ED006283ED007283FD008282BD00928A9
:102360002CD00A282DD00B282ED00E282FD037E0C5
:1023700000F042F8DFF8E8130968090F491CB0FBC8
:10238000F1F02EE000F038F8DFF8D4130968C1F35B
:102390000361491CB0FBF1F023E000F02DF8DFF8F9
:1023A000C0130968C1F30341491CB0FBF1F018E008
:1023B000FFF79AFF15E000F068F812E000F05AF815
:1023C0000FE000F035F80CE000F06EF809E04FF493
:1023D0007A7006E0FFF769FF03E0FFF74DFF00E0CA
:1023E000002010BD10B504006068DFF874130860A9
:1023F0002078FFF7B7FE10BD10B5DFF87403007842
:10240000C0B2C0F38104002C07D0022C0BD007D33C
:10241000032C0BD100F048F809E000F009F806E0C1
:10242000FFF7F3FE03E0FFF7B4FE00E0002010BD6D
:1024300080B5DFF8D0020078800704D4DFF83C02D2
:102440000078800601D5002013E0FFF7F1FE002898
:102450000FD0DFF810231178C1F341111278D2099F
:10246000DFF81033C9B203EB8101D2B231F8121098
:10247000484302BD80B5DFF800030078800701D42F
:10248000002001E0FFF7C1FE02BD10B5FFF7D0FE4E
:102490000400FFF7B1FFC008A04203D3002C01D015
:1024A000200000E0002010BD10B5DFF8D00100785A
:1024B000400601D4002020E0FFF7CAFE0400002CF3
:1024C00009D140F28222DFF8AC11DFF89C02FEF75E
:1024D0006FFCAFF30080DFF894020078C0B210F018
:1024E0000700401CB4FBF0F0DFF890120978C9B285
:1024F00011F01F0110314843400810BD01000020B9
:102500007047F0B50300DFF874412078C0F381050F
:10251000267816F00106DFF8F0010778C7F34207C6
:102520009446BE465FFA8CFC5FFA8EFEF44527D0D7
:10253000DFF844C29CF800C05FEA8C7C01D4012D16
:1025400012D1B4465FFA8CFCBCF1010F0CD1DFF85C
:10255000B4C19CF800E01EF0FE0E8CF800E094F888
:1025600000C05FEACC7CFAD490F800C01CF0D00C1C
:102570005FEA420E1EF00E0E5EEA0C0C80F800C000
:10258000DFF880C19CF800E01EF0FE0E11F00100A3
:1025900050EA0E0E8CF800E0DFF8DC0190F800C085
:1025A0001CF0FC0C53EA0C0C80F800C0012D01D08B
:1025B000980707D5207810F001008C465FFA8CFC54
:1025C0006045F7D10020F0BD38B50400002C09D1DA
:1025D0004FF45872DFF89C10DFF8A401FEF7E8FB17
:1025E000AFF300800020617811F007010843DFF8A5
:1025F0007C110870DFF88421137813F0E003A578CC
:1026000015F01F052B4313700A78237853F040030D
:102610001A430A70DFF8581109784906FAD531BD16
:1026200070B504002068FFF717FE0500DFF858605A
:1026300021793000FFF7A7FDDFF8C8100A7812F003
:10264000C302280110F030000243607902430A708F
:10265000A11D3000FFF78DFD6079002807D030788C
:10266000000604D5DFF8080100788007FAD570BDB0
:1026700010E0FF1FE0450000004006400640064015
:1026800000E0FF1F04E0FF1F00500640F8B5050002
:102690000C00002C09D140F29262DFF8E810DFF85C
:1026A000E000FEF785FBAFF300801648017811F0DB
:1026B000FD010170DFF8C000017811F03B0151F01D
:1026C000800101702A4E307810F01C000828F9D1E2
:1026D0002A4F387810F0BF00387030788006FCD46C
:1026E0002000FFF771FF387850F0400038703078E4
:1026F0008006FCD50020F2BD00700440145000009C
:10270000B44E0000014006400840064001127A0025
:102710000250064070B505000E001400002C07D1D1
:1027200040F2AA7217491648FEF742FBAFF3008049
:102730002800C0B2FFF7E2FE21003000C0B2FFF770
:10274000A5FF0D48017811F03F010170084800789D
:10275000C0B2C0F381000328F8D1002070BD000092
:1027600044800440034006402050000004400640DE
:10277000064006403C4F0000004006400540064031
:10278000B4500000E0450000BBBBE1B1B2F5803FB2
:1027900080F07E80022A1ED98C46B1FBF2F102FB4A
:1027A00011C31B0443EA1043B3FBF2FC02FB1C33CE
:1027B00080B240EA0343B3FBF2F002FB103240EA7E
:1027C0000C4000237047022A05D98446B0FBF2F082
:1027D00002FB10C270474AB105D100F0010249085E
:1027E0005FEA3000704700220023704700F0CEBB44
:1027F0000B000200002100207047904271EB030C97
:10280000F6D3B3F5803F2FD2F0B5B3FA83F7B1FA20
:1028100081F4A7F10F0E3D1B5340CEF1200602FAC2
:102820000EF2F3415340B5F10F0746D80F3C2C444C
:102830004140C4F12006A040F1414140B1FBF3F614
:1028400003FB1611A2FB0645001BA94102D2761E0E
:102850008018594180EA010221FA0EF362FA0EF261
:1028600000215A403046F0BD30B4B1FBF3FC03FB0D
:102870001C11A2FB0C45001BA94103D2ACF1010CB9
:102880008018594130BC02460B4660460021704713
:10289000B2F1807F65D3F0B5B2FA82F7B1FA81F474
:1028A000C7F10F063D1B22FA06F307F1110EF241A4
:1028B00020355A40B5F10F07B8D94140C4F1200680
:1028C000A040F1414140B1FBF3FC03FB1C11A2FB12
:1028D0000C45001BA94103D2BCF1010C80185941E1
:1028E0000F2F12D30F3FC90341EA5041B1FBF3F65A
:1028F00003FB1611A2FB0645D4EBC030A94102D25E
:10290000761E8018594146EACC3C07B34140C7F1D6
:102910002006B840F1414140B1FBF3F603FB16112C
:10292000A2FB0645001BA94102D2761E8018594120
:1029300080EA010221FA0EF3C7F1200462FA0EF2D6
:102940000CFA07F05A402CFA04F13043F0BD80EA4B
:10295000010221FA0EF3002162FA0EF260465A409B
:10296000F0BD8C46B1FBF2F102FB11C31B0243EA3E
:102970001063B3FBF2FC02FB1C331B024CEA002089
:1029800043EA1063B3FBF2FC02FB1C331B024CEA6C
:10299000002043EA1063B3FBF2FC02FB1C331B0272
:1029A0004CEA002043EA1063B3FBF2FC02FB1C324A
:1029B0004CEA0020002370472DE9F04105000C008F
:1029C00016001F0043F221508046002C0BD0297BBB
:1029D000012907D13A00310015F1080000F00FFB82
:1029E000804600E08046404600B2BDE8F0812DE917
:1029F000F04107000E001500002F09D140F2063209
:102A0000DFF89011DFF89001FEF7D2F9AFF3008004
:102A1000002E07D140F207325E496048FEF7C8F940
:102A2000AFF30080002D07D14FF4427259495C4842
:102A3000FEF7BEF9AFF30080B846D8F80040002C8E
:102A400007D140F20D3253495648FEF7B1F9AFF3C2
:102A500000802B00320041462000FFF7ADFFBDE8AB
:102A6000F0812DE9F04704000D0043F22156002DBE
:102A700007D140F2293247494C48FEF799F9AFF3A4
:102A80000080002C07D140F22E3242494848FEF720
:102A90008FF9AFF3008027005FF010085FF00009A6
:102AA000BA464A4641465046FEF794F9287A3873AA
:102AB000287A012806D1E96817F1080000F068FAC1
:102AC0000600FFE7300000B2BDE8F0872DE9F047CF
:102AD00005000C00002D07D140F2DB322D493448AF
:102AE000FEF766F9AFF30080002C07D14FF4777240
:102AF00028492948FEF75CF9AFF300802E00270033
:102B00005FF004085FF00009A2464A46414650467D
:102B1000FEF760F97068401C70603E600020BDE800
:102B2000F0872DE9F04705000C00002D07D140F299
:102B30000C4218491E48FEF73BF9AFF30080002C09
:102B400007D140F20D4213491748FEF731F9AFF3B0
:102B500000802E0027003068002802D043F2225067
:102B60000CE05FF004085FF00009A2464A464146C7
:102B70005046FEF72FF937603E600020BDE8F08731
:102B800070B504000D001600320029002000FFF788
:102B90002EFF70BD0842000080500000EC50000085
:102BA000F4500000FC5000008C5000000451000064
:102BB000BC4F0000103A07D330B4B1E83810103AD7
:102BC000A0E83810F9D230BC530724BFB1E8081090
:102BD000A0E8081044BF51F8043B40F8043BD2077A
:102BE00024BF31F8022B20F8022B44BF0B7803706E
:102BF0007047121F17D35B0009D151F8043B20F82E
:102C0000023B1B0C121F20F8023BF6D20BE051F8DE
:102C1000043B00F8013B1B0A20F8023B1B0C121F6F
:102C200000F8013BF3D238BF121D521E24BF11F829
:102C3000013B00F8013BF8D8704730B4002513E0A1
:102C400050F8042BD30744BFA9F101039A18091FB8
:102C5000042942F8045BFAD213468C0744BF15805E
:102C60009B1CC90748BF1D7050F8041B0029E7D101
:102C700030BC7047002200F0F5B92DE9F04F8446D2
:102C80000D001400099E0020E2465FF0000B8AF858
:102C900000B01AF1010A002C24D0D5F800B0594632
:102CA000002905D15FF0300B8AF800B0401C42E0EB
:102CB000002940D091FBF3FBDE4603FB1E1BBBF15A
:102CC000000F05D55F467FEA070919F1310902E0D7
:102CD000D94619F1300971468AF800901AF1010AB3
:102CE000401CE5E7D5F800B05A46002A05D15FF050
:102CF000300B8AF800B0401C1DE0002A1BD0B2FB4C
:102D0000F3FBD84603FB182BBBF10A0F02D25F4638
:102D1000303709E03700FFB2002F01D0412700E033
:102D200061270A3F17EB0B0742468AF800701AF139
:102D3000010A401CE1E7BDE8F08F2DE9F54F91B0A5
:102D40008B461F0000265FF0000800200290002044
:102D50008DF8040000200490DDF844A09AF80000EB
:102D60000500002D00F00D81252D07D0012328003E
:102D70000200D2B202A91298B847FFE001208DF8F4
:102D8000050000208146002003900398002813D1FD
:102D90001AF1010A9AF800000500302D07DB3A2DE0
:102DA00005DA0A21B5F1300001FB0909EDE7BAF1B6
:102DB000010A01200390E8E7062005901AF10101BD
:102DC00008782E2819D10020059000200390039840
:102DD000002813D1491C08780500302D09DB3A2D55
:102DE00007DA059A0A23B5F1300003FB02020592C7
:102DF000EDE7491E01200390E9E7491E11F1010AA0
:102E00009AF800000500642D11D0692D0FD0662DB1
:102E10000DD0462D0BD0782D09D0582D07D06F2D11
:102E200005D0622D03D0702D01D0752D72D1642D87
:102E300001D0692D11D1DBF800001BF1040B0690C5
:102E40009DF8050000900A23012206A908A8FFF7B3
:102E500014FF804608A840440600582D01D0782D64
:102E600016D1782D02D100208DF80500DBF8000086
:102E70001BF1040B04909DF8050000901023002224
:102E800004A908A8FFF7F9FE804608A840440600F8
:102E90006F2D05D0622D03D0702D01D0752D27D157
:102EA000DBF800001BF1040B04906F2D03D1082008
:102EB0008DF804000EE0622D03D102208DF804008D
:102EC00008E0702D03D110208DF8040002E00A20E4
:102ED0008DF804009DF8050000909DF80430002254
:102EE00004A908A8FFF7C9FE804608A840440600C8
:102EF000B9EB0803202202A91298B847002E3DD052
:102F0000307800283AD00123327802A91298B847C5
:102F1000761EF5E7632D0DD1DBF800001BF1040BE5
:102F2000C0B20790012307980200D2B202A91298FA
:102F3000B84723E0732D1AD1DBF800001BF1040B16
:102F40000400002C1AD0200000F0A6F88046B9EB4F
:102F50000803202202A91298B847207800280DD033
:102F60000123227802A91298B847641CF5E70123CF
:102F700028000200D2B202A91298B8471AF1010A39
:102F8000ECE6029813B0BDE8F08F00007047000037
:102F9000F8B584B004000D00002D06D18B222C4919
:102FA0002C48FDF705FFAFF30080002C06D18C22E2
:102FB00027492948FDF7FCFEAFF300802E002700CB
:102FC00070680190307A8DF80800707A8DF80900E9
:102FD000F07A8DF80A00307B8DF80B003068009095
:102FE000B07A8DF80C006946380000F079F80028B6
:102FF00002D043F2215000E0002005B0F0BDF8B54A
:1030000006000D001400002E07D140F20B121049EB
:103010001148FDF7CDFEAFF30080002D07D14FF42E
:1030200086720B490D48FDF7C3FEAFF30080002CFC
:1030300007D140F20D1206490948FDF7B9FEAFF37A
:103040000080370022002900380000F0BFF8F2BDF0
:10305000A0420000CC4F0000DC4F00000C510000EB
:103060001451000000B500BF130096469446103975
:1030700028BFA0E80C50FAD85FEA417C28BF0CC0FA
:1030800048BF40F8042BC90728BF20F8022B48BFCF
:1030900000F8012B00BDFEE700F10103810704D019
:1030A00010F8011B820781B1FAD10268A2F1013147
:1030B000914311F0803104BF50F8042FF6E709BAAC
:1030C000B1FA81F100EBD100401CC01A7047FEE755
:1030D0000100002901D1002001E042F6AF707047E5
:1030E0007FB504000D00002C06D1DE224E494F486A
:1030F000FDF75EFEAFF30080002D06D1DF224A49C6
:103100004B48FDF755FEAFF30080287B022806D31D
:10311000E02245494748FDF74BFEAFF30080464E9D
:10312000287B56F82000002806D1E1223E4943487A
:10313000FDF73EFEAFF30080684600F08DF9686849
:103140000090287A012803D102208DF8040009E0BC
:10315000287A022803D103208DF8040002E0002021
:103160008DF80400687A012803D101208DF805004C
:1031700002E000208DF80500A87A002801D0012087
:1031800000E000208DF80C00E87A002801D0012032
:1031900000E000208DF80B0000208DF806000120D3
:1031A0008DF807002A686946287B56F8200000F051
:1031B00070F80600002E03D03000FFF789FF03E00F
:1031C0002100287B0870002004B070BDF8B506000F
:1031D0000D001400002E07D14FF4A87212491348B5
:1031E000FDF7E6FDAFF30080002D07D140F251124C
:1031F0000D491348FDF7DCFDAFF30080002C07D12B
:103200004FF4A97208490F48FDF7D2FDAFF30080D3
:1032100037002200290008483B7850F8230000F0CE
:1032200047F90020F2BD0000384300001C510000A7
:1032300024510000C44A00003C510000344D0000FD
:103240002C51000034510000DFF87C1211EB1041CA
:103250000A68012383401A430A60704770B504006E
:1032600002260025B54207D2DFF8600250F825009B
:10327000A04201D06D1CF5E7B54208D38D22DFF8DE
:103280005012DFF85002FDF793FDAFF300802800E5
:1032900070BD2DE9F84F05000C001600002C08D178
:1032A000D422DFF82C12DFF83002FDF781FDAFF3F6
:1032B00000802068002808D1D522DFF81412DFF83A
:1032C0001C02FDF775FDAFF30080DFF81472BD42FC
:1032D00001D1082007E0DFF80C02854201D101206E
:1032E00001E05FF0FF30A179884208DAD722DFF8E9
:1032F000E011DFF8F401FDF75BFDAFF30080BD42A4
:1033000001D1082007E0DFF8DC01854201D101206E
:1033100001E05FF0FF30E179884208DAD822DFF877
:10332000B011DFF8C801FDF743FDAFF300800021C5
:103330000027002022681201B6FBF2F8424692B242
:10334000002A01D101218846002172002368B2FBC6
:10335000F3F9424692B2B9EB4219720043469BB26E
:103360005B0113FA89F3B2FBF3FA2268524504D2E7
:10337000D4F800B0BAEB0B0B03E0D4F800B0BBEB11
:103380000A0B20686421B0FBF1F103204143594549
:1033900002D240F2F5305DE02800FFF75FFFDFF872
:1033A000881151F82000FFF74FFFE87810F0F30084
:1033B000E870297811F0E001404680B2000A01432C
:1033C000297085F80180A97A11F0E00119F01F0039
:1033D0000143A972A97811F0E801A07A800010F0E9
:1033E000040001432079002803D0207950F0100018
:1033F0000143A970287810F0DF006279520112F0C1
:10340000200210432870A079E874E0796875287C60
:1034100050F088002874687C50F0C0006874207AEE
:10342000002803D0687B50F008006873607A002899
:1034300003D0687B50F001006873EA78E07A0028D6
:1034400001D052F00802207B002801D052F0040283
:10345000EA700020BDE8F28FF8B50400002C09D115
:1034600040F28B12DFF86810DFF86C00FDF7A0FC6B
:10347000AFF3008010250026270032002900380015
:10348000FDF7A8FC5FF4E1302060002020710020EF
:1034900060710020A0710120E071002020720020E6
:1034A00060720020A0720020E07200202073F1BD45
:1034B00013005A1E002B06D003791B06FCD50B788F
:1034C000C371491CF4E7704700700440D4500000F9
:1034D00074480000D84D0000CC500000704E000031
:1034E00000A0064000B006404C440000D444000058
:1034F00080B50E4801680F480D4A12689047BFF327
:103500004F8F01BD80B5FFF7F3FFBFF34F8F01BDB4
:1035100080B5064841680848054A12689047BFF3DD
:103520004F8F01BD00000000DC50000098E0FF1F3D
:10353000A0E0FF1F00A0064000B0064080B5FFF7E6
:10354000E7FFBFF34F8F01BD010049B200290AD444
:10355000012210F01F018A40DFF8501303005BB214
:103560005B0941F823207047DFF8441311EB104149
:103570000A68012383401A430A60704710B50400AB
:1035800020007FF07F0140B2884201D1012004E099
:10359000200040B2FFF7D8FF002010BD10B450F853
:1035A000213033F4E0631400E4B2240214F4E06444
:1035B000234340F8213010BC704710B450F821303C
:1035C00033F470231400E4B2240414F4702423436D
:1035D00040F8213010BC70477CB5B6480088ADF883
:1035E0000000B548FFF7C0FFB448FFF7BDFFB44C7B
:1035F00001221E212000FFF7D1FF01221D21200002
:10360000FFF7CCFF012218212000FFF7C7FF01229E
:1036100019212000FFF7C2FFAA4C0122012120003E
:10362000FFF7BCFF012202212000FFF7B7FF0122B4
:1036300004212000FFF7B2FF012205212000FFF73F
:10364000ADFF01220C212000FFF7A8FF01220D2170
:103650002000FFF7A3FF9C4D6A4601212800FEF7DA
:1036600099FA9A4E6A4619213000FEF793FA6A4693
:1036700018213000FEF78EFA6A460C212800FEF76A
:1036800089FA6A460D212800FEF784FA6A4602216B
:103690002800FEF77FFA6A4604212800FEF77AFA2E
:1036A0006A4605212800FEF775FA6A461E21300099
:1036B000FEF770FA6A461D213000FEF76BFA02220F
:1036C0001D210420FEF712FB02221E210420FEF71A
:1036D0000DFB022218210420FEF708FB022219210B
:1036E0000420FEF703FB022201210020FEF7FEFA70
:1036F000022202210020FEF7F9FA02220421002012
:10370000FEF7F4FA022205210020FEF7EFFA02226A
:103710000C210020FEF7EAFA02220D210020FEF71C
:10372000E5FA0A2201212000FFF747FF3B20FFF7BF
:1037300025FF6A4601212800FEF72CFA73BD38B533
:1037400004002000C0B2012802D1012060490870A5
:103750005F4D287800287DD05E480068012823D07E
:103760005D48006801281FD05C48006801281BD014
:103770005B480068012817D05A480068012813D018
:103780005948006801280FD05848006801280BD01C
:1037900057480068012807D056480068012803D020
:1037A00055480068012855D10A2000F024F900206E
:1037B000287049480168012904D101680129FCD019
:1037C000022072E045480168012904D101680129FD
:1037D000FCD0032069E042480168012904D1016856
:1037E0000129FCD0042060E03E480168012904D191
:1037F00001680129FCD0052057E03B4801680129F8
:1038000004D101680129FCD006204EE03748016848
:10381000012904D101680129FCD0072045E0344882
:103820000168012904D101680129FCD008203CE08D
:1038300030480168012904D101680129FCD0092020
:1038400033E02D48016801292ED101680129FCD0FF
:103850000A202AE01F480068002825D11E48006879
:10386000002821D11D48006800281DD11C4800688F
:10387000002819D11B480068002815D11A48006893
:10388000002811D11948006800280DD11848006897
:10389000002809D117480068002805D1164800689B
:1038A000002801D101202870002032BD00E100E095
:1038B000007004408A2F00000D00381009003810F5
:1038C00000D004400090044000F00F4000F10F4091
:1038D0000EE0FF1F0402FE436422FE436022FE430B
:1038E0003002FE433402FE430802FE431002FE4350
:1038F0001402FE437822FE437422FE432D490860E1
:1039000070472D482A49086070472C490A7812F000
:10391000C702C30013F038031A430A70704710B58A
:10392000FFF7EFFF284C2000FEF77AFE2068FFF734
:10393000E5FF264C2079FFF7E8FFE21D002100207B
:10394000FEF7E8FEE278A1786078FEF7DAFD20481D
:10395000FEF748FD1A481B49086010BD80B500F00D
:1039600001F801BD1B48016851F0807101601A48DF
:10397000016851F001010160704730B4174A1368C3
:1039800010490968164CB1FBF4F404FB00F4E1188B
:103990008B4203D215688D4206D2FBE71568A94217
:1039A000FCD315688D42FCD330BC7047000000008A
:1039B0004480044010E0FF1F000007110040064053
:1039C000007A030A08E0FF1FAC500000FC4F000023
:1039D000A4500000FCED00E0001000E0041000E046
:1039E00040420F0010B504004FF4FA7000FB04F0E1
:1039F000FFF7C3FF10BD10B504002000FFF7F2FF72
:103A000010BDFEE7B0F888210B00DBB21B0213F4F7
:103A100070639A43A0F888217047808A704789B202
:103A200000EB4100808B70472DE9F04100F0A4F9D4
:103A3000FFF775FF00F0E4F900F0EEF9FFF7CCFDB9
:103A4000FFF78CFFFDF794FDFDF7CEFD00F0FCF9CC
:103A500000F068FAFDF7EFFD0020FFF770FE0400AC
:103A6000A74E307801280DD1FEF710F8A54FFDF7CD
:103A7000BBFD38603968A448FEF740FB3868FDF7A5
:103A800084FE13E0FEF702F80A20FFF7B4FFFDF70B
:103A9000FDFF9E4F01213800FFF7B4FF02213800DF
:103AA000FFF7B0FF04213800FFF7ACFF2000C0B2E1
:103AB00002280FD0C0F0DE80042833D013D30628AC
:103AC00053D045D308286BD05BD30A2800F0AA80D6
:103AD0007AD3CFE00120307001208D4908600020AA
:103AE0008C490860B8E77079401C707171798A4818
:103AF000FEF704FB7079012803D188480178017032
:103B000006E0864890F9001049420170002070716B
:103B100080490868002801D1012000E00020C0B2DF
:103B2000086099E77A490868002801D1012000E07F
:103B30000020C0B2086077490868002801D1012040
:103B400000E00020C0B208606420FFF754FF83E764
:103B500070490868002801D1012000E00020C0B2AF
:103B600008606420FFF747FF76E701206C49086092
:103B7000674E00203060C820FFF73DFF0120306015
:103B80006AE7634F01203860624E012030604FF4D5
:103B90009670FFF730FF00203060002038605BE750
:103BA0000120604908605A4F00203860594E0020BB
:103BB00030606420FFF71FFF012030600120386073
:103BC0006420FFF718FF47E7B078401CB0705049F9
:103BD0000868002801D1012000E00020C0B2086080
:103BE0004C490868002801D1012000E00020C0B243
:103BF00008606420FFF7FFFEB078012806D100209E
:103C0000494908600120494908600AE0B078022863
:103C100007DB002045490860012043490860002077
:103C2000B07019E77078401C7070707801280CD162
:103C300001203F490860374E012030604FF4FA7090
:103C4000FFF7D9FE0020306013E07078022802D020
:103C5000707803280DDB0020354908602C4F0120C7
:103C600038604FF4FA70FFF7C6FE0020386000207D
:103C70007070F1E62F4E01213000FDF798FA300008
:103C8000FDF7A6FA8006FAD52F00BFB2A8461FFAA4
:103C900088F83000FFF7C1FE10EA080847451ED13A
:103CA000254F01213000FFF7BAFE3880B7F9001028
:103CB0002248FEF723FA3220FFF79DFE0121300053
:103CC000FFF7ADFE4FF4A57190FBF1F03880B7F926
:103CD00000101B48FEF712FAC820FFF78CFE2021C7
:103CE0003000FDF7A8FAB7E680B502211548FDF7C8
:103CF00073FF002002490870BFF34F8F01BD000021
:103D0000A4E0FF1FACE0FF1F7C4F00000030034029
:103D10001C18FE431818FE43884E00000FE0FF1FDA
:103D20004C00FE430008FE434820FE434420FE436F
:103D30004C20FE4300C005400CE0FF1FE450000093
:103D40008C4F000000F00F40274911EB10410A682A
:103D5000012383401A430A60704710B450F82130A1
:103D600033F4E0631400E4B2240214F4E064234367
:103D700040F8213010BC704710B51C48FFF7E4FF35
:103D80001B48FFF7E1FF1B4C062200212000FFF734
:103D9000E4FF062201212000FFF7DFFF06220221B7
:103DA0002000FFF7DAFF062203212000FFF7D5FFEE
:103DB000052204212000FFF7D0FF05220521200065
:103DC000FFF7CBFF0C4C032200212000FFF7C5FFBB
:103DD000032201212000FFF7C0FF0848016831F0ED
:103DE000D001016010BD0000007004400C003810CC
:103DF0000D00381000C0044000D004401080044082
:103E000010B5FEF78CFA0400230001225FF4E131C3
:103E10000120FEF7FAF810BD80B504220721032027
:103E2000FEF748F8042206210320FEF743F801BDFF
:103E30001300DBB2002B03D0038A8B43038202E022
:103E4000038A0B430382704738B588B004A8FDF796
:103E50007BF802208DF810002F4C04A92000FDF7FC
:103E60001DF806A8FDF72CF906AA03212000FDF78E
:103E700006F9012203212000FDF76AF92000FDF771
:103E8000A7F910F4C070B0F5C07FF7D0012203216C
:103E90002000FDF736F900208DF8030000208DF892
:103EA00004004FF6FF70ADF806000020ADF80800E2
:103EB0000020ADF80A0000208DF80C000220ADF8BB
:103EC000000000208DF802006A4600212000FDF766
:103ED000C1F90320ADF8000000208DF802006A4609
:103EE00001212000FDF7B6F903250122290089B23E
:103EF0002000FFF79DFF0022280080B2C043010090
:103F000089B22000FFF794FF0448FEF7F7F8044851
:103F1000FEF7F4F809B030BD00C00540384C000091
:103F2000944C000080B5042213210420FDF7C2FF49
:103F3000042212210420FDF7BDFF042211210420D8
:103F4000FDF7B8FF042213210020FDF7B3FF042280
:103F500000210120FDF7AEFF01BDFEE72DE9F8438A
:103F60000400002C07D140F2F44280497D48FCF760
:103F70001FFFAFF30080207CA168C877A068217C78
:103F80004901084441F21C01465A16F08006F6B277
:103F9000F609E06800280AD1206800285ED00023D6
:103FA0003200D2B2616820002568A84756E0A068B8
:103FB000217C4901084441F218014758E0683F1A42
:103FC0003D006D093000C0B2002801D0A84609E0CC
:103FD000002D03D02800B0F1010803E094F914008B
:103FE000B0F10108404694F91110C0B2C9B288423C
:103FF0000FD194F9130094F9141002000B0052B27F
:104000005BB29A4202D194F913900FE05FF000097D
:104010000CE04046C0B294F91190B0EB0909B9F137
:10402000000F03D594F9140019EB000984F81180EE
:10403000E07CB0EB0900E0742068002807D04B4614
:104040003200D2B261682000D4F800C0E0473000EE
:10405000C0B2002802D0207CA1680877BDE8F183B7
:1040600080B541480068FFF779FFBFF34F8F01BD6E
:1040700080B53D484068FFF771FFBFF34F8F01BD2A
:1040800080B539488068FFF769FFBFF34F8F01BDE6
:1040900080B53548C068FFF761FFBFF34F8F01BDA2
:1040A000000080B530480069FFF758FFBFF34F8F1D
:1040B00001BD80B52C484069FFF750FFBFF34F8F1B
:1040C00001BD80B528488069FFF748FFBFF34F8FD7
:1040D00001BD80B52448C069FFF740FFBFF34F8F93
:1040E00001BD80B52048006AFFF738FFBFF34F8F4E
:1040F00001BD80B51C48406AFFF730FFBFF34F8F0A
:1041000001BD80B51848806AFFF728FFBFF34F8FC5
:1041100001BD80B51448C06AFFF720FFBFF34F8F81
:1041200001BD80B51048006BFFF718FFBFF34F8F3C
:1041300001BD80B50C48406BFFF710FFBFF34F8FF8
:1041400001BD80B50848806BFFF708FFBFF34F8FB4
:1041500001BD80B50448C06BFFF700FFBFF34F8F70
:1041600001BD00003850000040E0FF1FE84600009D
:104170004C3A5C4D4B56343446323536465648310F
:10418000365F50726F5C4941525F6D6B76343466B6
:10419000313238766C6831365F736F66747761726E
:1041A000655F666F6C6465725C4D4B5634344631A6
:1041B0003238564C4831365F536F66742D49415240
:1041C0005F6E6F6672656552544F535F6D6B7634E8
:1041D0003466313238766C6831365C7574696C6976
:1041E000746965735C64656275675F636F6E736F36
:1041F0006C655C66736C5F64656275675F636F6E48
:10420000736F6C652E6300004C3A5C4D4B56343432
:104210004632353646564831365F50726F5C4941FA
:10422000525F6D6B76343466313238766C68313675
:104230005F736F6674776172655F666F6C646572D9
:104240005C4D4B56343446313238564C4831365F2B
:10425000536F66742D4941525F6E6F667265655289
:10426000544F535F6D6B76343466313238766C68F8
:1042700031365C636F6D706F6E656E74735C736501
:104280007269616C5F6D616E616765725C736572A6
:1042900069616C5F6D616E616765722E630000001D
:1042A0004C3A5C4D4B5634344632353646564831DE
:1042B000365F50726F5C4941525F6D6B7634346685
:1042C000313238766C6831365F736F66747761723D
:1042D000655F666F6C6465725C4D4B563434463175
:1042E0003238564C4831365F536F66742D4941520F
:1042F0005F6E6F6672656552544F535F6D6B7634B7
:104300003466313238766C6831365C636F6D706F4D
:104310006E656E74735C73657269616C5F6D616EFE
:10432000616765725C73657269616C5F706F7274EE
:104330005F756172742E63004C3A5C4D4B56343499
:104340004632353646564831365F50726F5C4941C9
:10435000525F6D6B76343466313238766C68313644
:104360005F736F6674776172655F666F6C646572A8
:104370005C4D4B56343446313238564C4831365FFA
:10438000536F66742D4941525F6E6F667265655258
:10439000544F535F6D6B76343466313238766C68C7
:1043A00031365C636F6D706F6E656E74735C7561D2
:1043B00072745C756172745F616461707465722E91
:1043C000630000004C3A5C4D4B563434463235366F
:1043D00046564831365F50726F5C4941525F6D6B93
:1043E00076343466313238766C6831365F736F6696
:1043F00074776172655F666F6C6465725C4D4B5675
:10440000343446313238564C4831365F536F667417
:104410002D4941525F6E6F6672656552544F535F0E
:104420006D6B76343466313238766C6831365C6662
:10443000736C5F647269766572735C66736C5F66D9
:104440006C657863616E2E63000000002828286286
:1044500061736529203D3D202828554152545F5401
:10446000797065202A292830783430303641303050
:104470003075292929203F20283829203A2028284A
:10448000286261736529203D3D20282855415254FA
:104490005F54797065202A292830783430303642CC
:1044A00030303075292929203F20283129203A2011
:1044B000282D31292929203E3D20636F6E666967CA
:1044C0002D3E74784669666F57617465726D6172CE
:1044D0006B0000002828286261736529203D3D207B
:1044E0002828554152545F54797065202A29283074
:1044F00078343030364130303075292929203F203A
:10450000283829203A202828286261736529203D0F
:104510003D202828554152545F54797065202A293E
:10452000283078343030364230303075292929200F
:104530003F20283129203A20282D31292929203EC1
:104540003D20636F6E6669672D3E72784669666FBF
:1045500057617465726D61726B0000004C3A5C4D7E
:104560004B5634344632353646564831365F5072F3
:104570006F5C4941525F6D6B763434663132387608
:104580006C6831365F736F6674776172655F666FF2
:104590006C6465725C4D4B56343446313238564C3F
:1045A0004831365F536F66742D4941525F6E6F66B6
:1045B00072656552544F535F6D6B76343466313299
:1045C00038766C6831365C66736C5F6472697665E8
:1045D00072735C66736C5F636164632E63000000DA
:1045E0004C3A5C4D4B56343446323536465648319B
:1045F000365F50726F5C4941525F6D6B7634346642
:10460000313238766C6831365F736F6674776172F9
:10461000655F666F6C6465725C4D4B563434463131
:104620003238564C4831365F536F66742D494152CB
:104630005F6E6F6672656552544F535F6D6B763473
:104640003466313238766C6831365C66736C5F6420
:104650007269766572735C66736C5F636C6F636BB3
:104660002E6300004C3A5C4D4B563434463235369E
:1046700046564831365F50726F5C4941525F6D6BF0
:1046800076343466313238766C6831365F736F66F3
:1046900074776172655F666F6C6465725C4D4B56D2
:1046A000343446313238564C4831365F536F667475
:1046B0002D4941525F6E6F6672656552544F535F6C
:1046C0006D6B76343466313238766C6831365C66C0
:1046D000736C5F647269766572735C66736C5F6439
:1046E0007370692E630000004C3A5C4D4B563434B5
:1046F0004632353646564831365F50726F5C494116
:10470000525F6D6B76343466313238766C68313690
:104710005F736F6674776172655F666F6C646572F4
:104720005C4D4B56343446313238564C4831365F46
:10473000536F66742D4941525F6E6F6672656552A4
:10474000544F535F6D6B76343466313238766C6813
:1047500031365C66736C5F647269766572735C6631
:10476000736C5F65646D612E630000004C3A5C4DB4
:104770004B5634344632353646564831365F5072E1
:104780006F5C4941525F6D6B7634346631323876F6
:104790006C6831365F736F6674776172655F666FE0
:1047A0006C6465725C4D4B56343446313238564C2D
:1047B0004831365F536F66742D4941525F6E6F66A4
:1047C00072656552544F535F6D6B76343466313287
:1047D00038766C6831365C66736C5F6472697665D6
:1047E00072735C66736C5F6770696F2E63000000A4
:1047F0004C3A5C4D4B563434463235364656483189
:10480000365F50726F5C4941525F6D6B763434662F
:10481000313238766C6831365F736F6674776172E7
:10482000655F666F6C6465725C4D4B56343446311F
:104830003238564C4831365F536F66742D494152B9
:104840005F6E6F6672656552544F535F6D6B763461
:104850003466313238766C6831365C66736C5F640E
:104860007269766572735C66736C5F70776D2E63C8
:10487000000000004C3A5C4D4B563434463235361D
:1048800046564831365F50726F5C4941525F6D6BDE
:1048900076343466313238766C6831365F736F66E1
:1048A00074776172655F666F6C6465725C4D4B56C0
:1048B000343446313238564C4831365F536F667463
:1048C0002D4941525F6E6F6672656552544F535F5A
:1048D0006D6B76343466313238766C6831365C66AE
:1048E000736C5F647269766572735C66736C5F7516
:1048F0006172742E630000004C3A5C4D4B563434A8
:104900004632353646564831365F50726F5C494103
:10491000525F6D6B76343466313238766C6831367E
:104920005F736F6674776172655F666F6C646572E2
:104930005C4D4B56343446313238564C4831365F34
:10494000536F66742D4941525F6E6F667265655292
:10495000544F535F6D6B76343466313238766C6801
:1049600031365C66736C5F647269766572735C661F
:10497000736C5F78626172612E63000001000868E9
:10498000002801D5012000E00020704738B5040060
:104990000D002000FFF7F2FF002805D029002000BD
:1049A0000F4A1268904704E0290020000F4A12685D
:1049B0009047BFF34F8F31BD10B50B4C20680028D6
:1049C00007D140F6840207490948FCF7F1F9AFF333
:1049D000008021680748FFF7D9FF10BD00000000E4
:1049E00038E0FF1F6446000034E0FF1F3CE0FF1F7B
:1049F000104E000000C0024010B5164C2068002880
:104A000007D140F61E4212491448FCF7D1F9AFF322
:104A1000008021681248104A12689047BFF34F8FF8
:104A200010BD000010B50B4C6068002807D140F69F
:104A30002C4207490B48FCF7BBF9AFF300806168D3
:104A40000948054A12689047BFF34F8F10BD000018
:104A5000C443000080E0FF1F88E0FF1F284E0000D5
:104A600000400240404E000000500240F8B50400F3
:104A70000D00E678A778B80603D43000C0B2C006AF
:104A800006D529002000DFF81C201268904705E0B9
:104A900029002000DFF8102012689047BFF34F8FE5
:104AA000F1BD000090E0FF1F94E0FF1F80B50348B8
:104AB00001680348FFF7DAFF01BD00008CE0FF1F2B
:104AC00000600640636F6E6669672D3E696E7374A1
:104AD000616E6365203C202873697A656F66287370
:104AE0005F5561727441646170746572426173658F
:104AF00029202F2073697A656F6628554152545FCB
:104B000054797065202A292900000000696E7374A9
:104B1000616E6365203C202873697A656F6628732F
:104B20005F7862617261426173657329202F20731F
:104B3000697A656F662828735F7862617261426185
:104B4000736573295B305D2929000000696E7374F9
:104B5000616E6365203C202873697A656F662873EF
:104B60005F63616463426173657329202F207369F9
:104B70007A656F662828735F636164634261736559
:104B800073295B305D292900696E7374616E6365FA
:104B9000203C202873697A656F6628735F677069A7
:104BA0006F426173657329202F2073697A656F6680
:104BB0002828735F6770696F4261736573295B3082
:104BC0005D292900696E7374616E6365203C20283D
:104BD00073697A656F6628735F70776D426173657C
:104BE0007329202F2073697A656F662828735F7098
:104BF000776D4261736573295B305D292900000080
:104C000080B50948016851F47001016007484CF211
:104C1000205101804DF6281101804FF4E9700449BC
:104C2000088000F007F801BD88ED00E00E20054087
:104C3000002005407047FEE7507265737320616E77
:104C400079206B657920746F20747269676765726B
:104C50002074686520636F6E76657273696F6E206D
:104C60002E2E2E0D0A00000030B450F8041B79B12E
:104C70000268436802440830DC0744BFA9F101041C
:104C8000E31852F8045B43F8045B091FF9D1ECE721
:104C900030BC70470D0A53616D706C65203009534C
:104CA000616D706C6520310953616D706C652032E7
:104CB0000953616D706C6520330D0A006B5374618C
:104CC0007475735F53657269616C4D616E61676580
:104CD000725F53756363657373203D3D2073746128
:104CE0007475730072B60548054901600A6882F35D
:104CF00008880448804762B60348004708ED00E092
:104D000000000000014C00009950000010B5074958
:104D100079441831064C7C44163404E00A68081DB6
:104D2000114488470146A142F8D110BD500000004F
:104D300070000000735F5561727441646170746546
:104D400072426173655B636F6E6669672D3E696E63
:104D50007374616E63655D004EF68851CEF200019A
:104D6000086840F470000860BFF34F8FBFF36F8F87
:104D70004FF00070E1EE100A70470000BFDEFFFF49
:104D8000A400000010E0FF1F00000000DDFEFFFF98
:104D9000100000005802000000E0FF1F00000000AB
:104DA000FEE7000000F00DF8002801D0FFF7AEFF8D
:104DB000AFF300800020AFF30080FEF735FE00F077
:104DC00002F80120704700F001B8FEE707463846B8
:104DD000FCF736F8FBE7FEE7696E7374616E636596
:104DE000203C20756172744172726179436F756EF7
:104DF0007400000050574D20696E697469616C69D8
:104E00007A6174696F6E206661696C65640A00007E
:104E10003020213D20675F6473706948616E646C67
:104E2000655B305D000000003020213D20735F662F
:104E30006C657863616E48616E646C655B305D00C3
:104E40003020213D20735F666C657863616E486138
:104E50006E646C655B315D00647574794379636C75
:104E60006550657263656E74203C3D2031303000C2
:104E7000636F6E6669672D3E626175645261746529
:104E80005F42707300000000204449525F63686114
:104E90006E6765203D20256420200D0A000000007B
:104EA00073616D706C65496E646578203C202831B3
:104EB00036552900305520213D20675F7874616C9C
:104EC000304672657100000000F00F4040F00F4066
:104ED00080F00F40C0F00F4000F10F400090044000
:104EE00000A0044000B0044000C0044000D00440D2
:104EF0000002000000040000000800000010000094
:104F0000002000000090044000A0044000B00440D5
:104F100000C0044000D0044000F00F4040F00F40BB
:104F200080F00F40C0F00F4000F10F401000200053
:104F30008000000140008000000200048002DC02CA
:104F40000005B80580079508000A710B00000000F5
:104F500000000000000000010100000070776D53A8
:104F600069676E616C203C2032000000180034102C
:104F7000190034101A0034101B0034106F7572655C
:104F80006164203D202564200D0A000050574D5FCC
:104F900044757479203D2025640D0A0050574D4119
:104FA00020696E697420656E64200A0075775374F9
:104FB0006570203D2025640A000000007365726959
:104FC000616C48616E646C65000000007365726915
:104FD000616C436F6E6669670000000073657269FB
:104FE000616C48616E646C65000000000080000028
:104FF00000093D00007A030A0A00010107020000CF
:1050000000000000001A00003020213D20636F6E78
:1050100066696700675F7874616C3046726571001D
:105020006D6367706C6C30636C6B00003020213DE9
:105030002073697A6500000068616E646C652021E8
:105040003D2030003020213D20636F6E666967008F
:1050500063686E6C506172616D73000070776D46AD
:105060007265715F487A00006E756D4F6643686EB9
:105070006C730000737263436C6F636B5F487A00FC
:10508000777269746548616E646C6500726561640D
:1050900048616E646C650000AFF30080FFF75CFE52
:1050A000FFF780FE030000000000180100127A00E4
:1050B00000048000636F6E66696700003020213D48
:1050C00020636800636F6E6669670000636F6E66D9
:1050D0006967000000A0064000B006400A003410D6
:1050E0000B00341025640909000000006275666633
:1050F000657200006C656E677468000068616E64BC
:105100006C650000636F6E666967000062756666B5
:10511000657200006C656E677468000068616E649B
:105120006C650000636F6E6669670000646174619E
:10513000000000006C656E677468000000A0064007
:1051400000B00640004800476140000000480047AA
:1051500071400000004800478140000000480047BF
:105160009140000000480047A3400000004800476D
:10517000B340000000480047C3400000004800471B
:10518000D340000000480047E340000000480047CB
:10519000F34000000048004703410000004800477A
:1051A0001341000000480047234100000048004729
:1051B00033410000004800474341000000480047D9
:1051C000534100000048004771520000004800476A
:1051D000AD4A000000480047B949000000480047B8
:1051E00005350000004800477152000000480047A4
:1051F0003D3500000048004771520000004800475C
:10520000F949000000480047F949000000480047FC
:10521000F949000000480047F949000000480047EC
:10522000F949000000480047F949000000480047DC
:10523000254A000000480047254A00000048004772
:10524000254A000000480047254A00000048004762
:10525000254A000000480047254A000000C00540DC
:105260001C00381000300340009005401900381031
:06527000FFF7FEBFFEE7A0
:04000005000050990E
:00000001FF
